:020000040800F2
:10000000A8040020110200087B1400082112000837
:1000100079140008610400080116000800000000BF
:100020000000000000000000000000007F14000835
:1000300063040008000000007D140008811400081B
:100040002B0200082B0200082B0200082B020008DC
:100050002B0200082B0200082B0200082B020008CC
:100060002B0200082B0200082B0200082B020008BC
:100070002B0200082B0200082B0200082B020008AC
:100080002B0200082B0200081D0300082B020008A9
:100090002B0200082B0200082B0200082B0200088C
:1000A0002B0200082B0200082B0200082B0200087C
:1000B0002B0200082B0200082B0200082B0200086C
:1000C0002B0200082B0200082B0200082B0200085C
:1000D0002B0200082B0200082B0200082B0200084C
:1000E000650400082B0200082B0200082B02000800
:1000F0002B0200082B0200082B0200082B0200082C
:100100002B0200082B0200082B0200082B0200081B
:100110002B0200082B0200082B0200082B0200080B
:100120002B0200082B0200082B0200082B020008FB
:100130002B0200082B0200082B0200082B020008EB
:100140002B0200082B0200082B0200082B020008DB
:100150002B0200082B0200082B0200082B020008CB
:100160002B0200082B0200082B0200082B020008BB
:100170002B0200082B0200082B02000800000000E0
:100180002B0200082B0200082B0200082B0200089B
:100190002B0200082B0200082B0200082B0200088B
:1001A0002B0200082B0200082B0200082B0200087B
:1001B0002B0200082B0200082B0200082B0200086B
:1001C0002B0200082B020008000000002B02000890
:1001D0002B0200082B0200082B0200082B0200084B
:1001E0002B0200082B0200082B0200082B0200083B
:1001F0002B0200082B020008DFF810D000F07CF87A
:100200000048004743160008AFF30080A804002010
:100210000648804706480047FEE7FEE7FEE7FEE7A0
:10022000FEE7FEE7FEE7FEE7FEE7FEE7251500082E
:10023000F90100082DE9F05F0546002092469B4633
:1002400088460646814640241BE0284641464746EC
:10025000224600F041F853465A46C01A914110D345
:1002600011461846224600F028F82D1A67EB0108BF
:100270004F4622460120002100F01FF817EB00092D
:100280004E41201EA4F10104DFDC484631462A46D7
:100290004346BDE8F09FD2B201E000F8012B491EB1
:1002A000FBD270470022F6E710B513460A46044613
:1002B0001946FFF7F0FF204610BD202A04DB203A44
:1002C00000FA02F1002070479140C2F1200320FAA9
:1002D00003F3194390407047202A04DB203A21FAA7
:1002E00002F00021704721FA02F3D040C2F120024F
:1002F0009140084319467047064C074D06E0E068F8
:1003000040F0010394E8070098471034AC42F6D35C
:10031000FFF776FF6816000888160008014800F00D
:100320007FB90000100000204A496FF0706210B5DC
:10033000D1F8043323F44033C1F80433D1F8043343
:1003400044682343C1F8043301684B6823F4807385
:100350004B60016803694C6844EA03234B60016801
:100360004B6823F040734B60016884684B682343FB
:100370004B6001688B6823F400638B600168C4687C
:100380008B6823438B60816AD14201688A6822F0BE
:1003900070628A6001680DD0836A8A681A438A6035
:1003A00001688A6822F040528A600168C36A8A68DC
:1003B0001A4302E08A6822F040528A6001688A6823
:1003C00022F002028A60016882698B6843EA420275
:1003D0008A6090F820100029016811D01E4A4B68ED
:1003E00043F400634B6001684B6823F460434B6047
:1003F0000168446A4B6802EB443213434B6003E0EC
:100400004A6822F400624A600168144BCA6A22F406
:100410007002CA620168848BCA6A03EB04531A43F0
:10042000CA6201688A6822F400728A60016890F8E2
:1004300030208B6843EA42228A6001688A6822F48D
:1004400080628A60016840698A6842EA8020886028
:1004500010BD00000020014000E0FFFF0000F0FFA1
:10046000FEE770474FF4005000F0DEB972B6FEE7C9
:1004700070470000F8B50025009590F83C20012A4F
:100480001DD0012280F83C20604C0723D6070A6863
:10049000092A22D9B24220D007680A3A02EB420C5C
:1004A000FA6803FA0CF39A43FA600A68A24208D188
:1004B00002680B7AD76847EA0363D36022E0022020
:1004C000F8BD07680A3A8B6802EB4202D7F80CC005
:1004D000934043EA0C03FB6014E0076802EB42021E
:1004E000D7F810C093402CEA030CC7F810C003687B
:1004F0000F788A68D3F810C007EB4707BA4042EA82
:100500000C021A614A681F23072A16D20768521E76
:1005100002EB820C7A6B03FA0CF39A437A6302685B
:100520000F790B887F1ED2F834C09BB207EB870788
:10053000BB4043EA0C0353632DE007680D2A15D234
:10054000D21F02EB820C3A6B03FA0CF39A433A6324
:1005500002680F790B88FF1FD2F830C09BB207EBFF
:100560008707BB4043EA0C03136314E00D3A02EB28
:10057000820CFA6A03FA0CF39A43FA6202680F7962
:100580000B880D3FD2F82CC09BB207EB8707BB400E
:1005900043EA0C03D3621E4A0368934208D10B68F6
:1005A000B34205D1D2F8043323F44003C2F8043334
:1005B0000368934208D10B68122B05D1D2F804339B
:1005C00043F48003C2F80433036893421AD10B68E2
:1005D000A34201D0112B15D1D2F8043343F4000308
:1005E000C2F804330968A1420CD10A490A4A0968D1
:1005F000B1FBF2F101EB8101490000E0491E0091DD
:100600000029FBD180F83C500020F8BD12000010FA
:10061000002001400C00002040420F00704770474E
:1006200070B50446006801684268C1F34001C2F336
:10063000401251B34AB3216CC90603D4216C41F472
:1006400000712164816811F0405F17D1A169A9B9D7
:10065000C16A11F4700F02D0816849050ED4416857
:1006600021F020014160206C20F480702064206C17
:10067000C00403D4206C40F0010020642046FFF742
:10068000CDFF21686FF012000860206801684268A1
:10069000C1F38001C2F3C01289B382B3216CC906D1
:1006A00003D4216C41F400512164816811F4401F8E
:1006B0001ED1816B11F4401F02D08168490517D407
:1006C0004168490514D4816811F0405F10D1A169D7
:1006D00071B9416821F080014160206C20F48050A4
:1006E0002064206CC00503D4206C40F0010020641D
:1006F0002046FFF7BDFE21686FF00C0008602068FF
:100700000168436811F0010FC3F380110ED069B185
:100710000068C0070AD0206C40F480302064204676
:1007200000F046F821686FF0010008602068016859
:100730004268C1F340110029C2F380620DD0002A43
:100740000BD0616C6FF0200541F00201616405601F
:100750002046FFF764FF2068056070BD70B5040097
:100760004FF0000503D0206C002610B107E00120F7
:1007700070BD204600F01EF8666484F83C60206C72
:10078000C00610D4206C20F4885040F00200206491
:100790002046FFF7C9FD6664206C20F0020040F09F
:1007A0000100206400E0012584F83C60284670BD0B
:1007B0007047000010B586B0044614216846FFF764
:1007C00071FD15492068884223D11448016841F41D
:1007D00080710160006800F4807005900F48143843
:1007E000016841F00101016000680321002200F06E
:1007F0000100059001208DE807000948694600F0D6
:100800001FF800221220114600F06CF9122000F0AF
:100810005BF906B010BD00000020014044380240E2
:100820000000024070470000044910B50A68024207
:1008300002D00860FFF7F6FF10BD0000143C014035
:100840002DE9F84F00224FF001094FF0030A4FF055
:100850000F0E00BF0B6809FA02F42340A34270D1C7
:100860004D68012D05D0022D03D0112D01D0122D80
:1008700011D185685700CE680AFA07FC25EA0C05F5
:10088000BE402E43866045680E79A543C6F3001628
:1008900096402E434660C56856008F680AFA06F4F3
:1008A000A543B7402F43C7604D68022D01D0122DDC
:1008B00012D1D5080F694FEA427C00EB8505AB46A3
:1008C0002D6A4FEADC6C0EFA0CF807FA0CF725EAF1
:1008D00008052F43CBF820700D79076805F0030554
:1008E000A743B5403D4305604C68E40074D53D4CDA
:1008F000256845F480452560246822F003079607A3
:1009000004F480440094384C360F2744D7F8084844
:10091000DFF8D8C00EFA06F5604524EA050401D1D7
:1009200000252EE0324DA84201D1012529E0314DAC
:10093000A84201D1022524E02F4DA84202D103256F
:100940001FE049E02D4DA84201D1042519E02C4DAE
:10095000A84201D1052514E02A4DA84201D106255F
:100960000FE0294DA84201D107250AE0274DA842F2
:1009700001D1082505E0264DA84201D1092500E056
:100980000A25B540234E2543C7F808584D683468FA
:10099000ED0324EA030400D51C431E4D34602D1DD5
:1009A0004E682C68B60324EA030400D51C43194E94
:1009B0002C6008364D683468ED0224EA030400D543
:1009C0001C43144D34600C354E682C68B60224EA82
:1009D000030400D51C432C60521C102AFFF43AAFCC
:1009E000BDE8F88F4438024000300140000002406A
:1009F0000004024000080240000C024000100240C7
:100A00000014024000180240001C02400020024076
:100A100000240240003C01400AB181617047090492
:100A2000FBE70000014880687047000000000020DC
:100A300002488168027811448160704700000020FC
:100A4000032010B500F06EF8002000F005F800F06B
:100A500023F8002010BD000070B50D4D04464FF482
:100A60007A700C4A29781268B0FBF1F0B2FBF0F012
:100A700000F02AFB48B9102C07D200222146501E54
:100A800000F030F800206C6070BD012070BD0000E7
:100A9000000000200C0000200A4808B5016841F061
:100AA00080510160006800F0805000900548001DF2
:100AB000016841F480410160006800F480400090CA
:100AC00008BD000040380240002809DB410900F061
:100AD0001F028900012001F1E0219040C1F80001CE
:100AE000704700000E4BF0B41B680D46C3F30223A1
:100AF000C3F10706042E00D90426191D072901D2C7
:100B0000002300E0DB1E012404FA06F19C40491E8C
:100B10002940641E994014402143F0BC00F071BD8F
:100B20000CED00E0064900F0070210B54FF6FF0497
:100B30000868044B204040EA02201843086010BDBA
:100B40000CED00E00000FA051848F8B5016841F026
:100B5000805101600068164C00F0805000902068C1
:100B600040F480302060FFF75DFF4FF47A76054651
:100B700005E000BFFFF756FF401BB0420FD860688A
:100B8000C003F7D5206840F400302060FFF74AFF2B
:100B9000054606E0FFF746FF401BB04201D903209F
:100BA000F8BD60688003F5D50020F8BD40380240EC
:100BB000007000402DE9F04705000F4663D0444E19
:100BC000306800F00F00B84209D2306820F00F0002
:100BD00038433060306800F00F00B84253D12868C5
:100BE0003C4C810712D5400703D5206840F4E05003
:100BF00020602878000703D5206840F4604020601A
:100C0000A968206820F0F000084320602878C00719
:100C10002AD0304968680839012810D009680228AC
:100C200010D0890700292EDA216821F00301014341
:100C30002160FFF7F7FE804641F288390DE0096830
:100C40008903EFE78901EDE7FFF7ECFEA0EB080170
:100C5000494502D90320BDE8F0876868216801F0A2
:100C60000C01B1EB800FEFD1306800F00F00B842FB
:100C70000BD9306820F00F0038433060306800F046
:100C80000F00B84201D00120E5E72878400705D5DC
:100C9000E968206820F4E0500843206028780007C5
:100CA00006D52869216821F4604141EAC00020602E
:100CB00000F018F82168084AC1F30311515CC840DC
:100CC0000649086006480068FFF7C6FE0020C2E734
:100CD000003C024008380240581600080C00002072
:100CE00004000020104910B51048096811F00C01EB
:100CF00018D0042916D0082914D10B4C241F2268BF
:100D00002168216802F03F020023C1F38811A1FB92
:100D10000001FFF78FFA2168C1F30141491C490026
:100D2000B0FBF1F010BD0000083802400024F400D0
:100D30002DE9F84F04004FF000076ED02078DFF85F
:100D40007CA3AAF10408C007A8F104054CD0DAF886
:100D500000105046C1F38101012908D00068C0F39A
:100D6000810002280AD1D8F80000400206D5286880
:100D7000800339D560680028DFD035E06068B0F5C1
:100D8000803F0BD010B1B0F5A02F11D0286820F40F
:100D900080302860286820F4802002E0286840F431
:100DA00080302860606890B1FFF73CFE06460AE09C
:100DB000286840F480202860F0E700BFFFF732FE8B
:100DC000801B642872D828688003F7D50CE0FFF7F1
:100DD00029FE064605E000BFFFF724FE801B6428BD
:100DE000F0D828688003F7D42078800742D5DAF855
:100DF0000010504611F00C0F08D00068C0F38100BD
:100E000002280BD1D8F80000400207D428688007D8
:100E100018D5E068012800D114E04AE1E068002814
:100E2000286817D040F001002860FFF7FBFD064658
:100E300005E000BFFFF7F6FD801B0228C2D8286836
:100E40008007F7D52069296821F0F80141EAC00040
:100E500028600FE020F001002860FFF7E3FD064660
:100E600005E000BFFFF7DEFD801B02281ED82868C2
:100E70008007F7D42078000729D5904861696C3045
:100E800000298146016812D041F001010160FFF79D
:100E9000C9FD064605E000BFFFF7C4FD801B022820
:100EA00004D8D9F800008007F6D510E089E021F0D9
:100EB00001010160FFF7B6FD064604E0FFF7B2FD51
:100EC000801B02287DD8D9F800008007F6D420784E
:100ED00040076BD5DFF8E49109F13809D9F8000033
:100EE000C0000BD4D9F8001041F08051C9F80010AF
:100EF000D9F80000012700F0805000907048016888
:100F0000C90512D40168834641F480710160FFF77E
:100F100089FD064605E000BFFFF784FD801B6428BD
:100F20004FD8DBF80000C005F6D5644EA0686836DF
:100F300001280AD008B1052811D0306820F001003E
:100F40003060306820F0040002E0306840F00100BA
:100F50003060A068A0B1FFF765FD83460CE0306803
:100F600040F004003060F0E7FFF75CFDA0EB0B0100
:100F700041F28830814268D830688007F4D50EE0AD
:100F8000FFF750FD834607E0FFF74CFDA0EB0B0198
:100F900041F28830814258D830688007F4D42FB1AC
:100FA000D9F8001021F08051C9F80010A069E0B311
:100FB000DAF80010C1F3810102294DD00228286817
:100FC00000E042E020F08070286003D0FFF72AFDA7
:100FD00004463DE0FFF726FD064604E0FFF722FD4C
:100FE000801B022831D828688001F7D4D4E9092170
:100FF000DFF8D0C0D4E9070694F830304F0894F8F1
:101000002C1030430CEB074444EA8212104340EAB0
:10101000016040EA0370C8F80000286840F0807062
:101020002860FFF7FFFC044605E044E0FFF7FAFC08
:10103000001B022809D828688001F7D53BE000BFD3
:10104000FFF7F0FC001B022802D90320BDE8F88F4F
:1010500028688001F4D42EE00128D8F8000028D0B8
:10106000E16900F480028A4223D1216A00F03F0244
:101070008A421ED1626A47F6C0710140B1EB821FFD
:1010800017D1A16A4FF0FF3200F4403302EB510157
:10109000B3EB014F0DD194F82C1000F07062B2EB5D
:1010A000016F06D194F8301000F0E040B0EB017F02
:1010B00001D00120CAE70020C8E70000083802403C
:1010C000007000400000FFFF401EB0F1807F10B5AF
:1010D00001D3012010BD4FF0E02460610F216017A3
:1010E00000F08FFA0020A0610721216110BD0000EF
:1010F000F0B590F83C20012A3BD01F4E012480F827
:101100003C40022280F83D2002681C4D5368B242E8
:10111000D2F808C001D0AA4203D14F6823F470036B
:101120003B430F6823F070031F4357600268B242CD
:1011300013D0B2F1804F10D0114B9A420DD0114B09
:101140009A420AD0104B9A4207D0AA4205D00F4BC0
:101150009A4202D00E4B9A4204D189682CF0800347
:1011600019439160002180F83D4080F83C1008460A
:10117000F0BD0220F0BD000000000140000401406D
:101180000004004000080040000C00400040014006
:101190000018004010B5040003D094F83D0010B1D1
:1011A00007E0012010BD002084F83C00204600F03C
:1011B00023F8022084F83D002068211D00F0BAF9D0
:1011C000012084F8480084F83E0084F83F0084F849
:1011D000400084F8410084F8420084F8430084F819
:1011E000440084F8450084F8460084F8470084F8F9
:1011F0003D00002010BD000008B500680649884287
:1012000008D10648016841F010010160006800F053
:101210001000009008BD000000100040403802405F
:10122000FEE700007FB5164800240125134900940D
:1012300001942A0402940394130301604FF0506157
:10124000C0E901240461846180F82040C561C46064
:10125000C0E90A1380F830404561FFF77FFA08B112
:10126000FFF704F906486946CDE900450294FFF707
:1012700001F9002801D0FFF7F9F87FBD00200140F7
:10128000100000202DE9F04F87B014216846FFF7C9
:1012900009F85F48016841F004010160016801F04C
:1012A00004010591016841F080010160016801F0CD
:1012B00080010591016841F001010160016801F0C0
:1012C00001010591016841F002010160016801F02E
:1012D00002010591016841F008010160016801F017
:1012E00008010591016841F040010160006844F285
:1012F000810ADFF820B1002200F04000514605903D
:101300005846FFF789FB444800224021FFF784FB41
:1013100000244249DFF808914FF40058CDF80080CE
:10132000CDE9011469464846FFF78AFA0225694665
:10133000322002AACDE90005032648460B2782E8A1
:10134000D000FFF77DFA8620694602AACDE90005A4
:10135000344882E8D000FFF773FA4FF00109CDF866
:1013600000A0CDE90194694658460394FFF768FA56
:1013700002AA6946584682E8D000CDE90085FFF709
:101380005FFA30020294CDE9000507206946CDE9F5
:1013900003602548FFF754FA40210091CDE90194FC
:1013A0001D4869460394FFF74BFA80206946CDE952
:1013B000000419480294FFF743FA4FF4E8500090F4
:1013C0000A206946CDE903601648CDE90154FFF7CC
:1013D00037FA28026946CDE9000412480294FFF763
:1013E0002FFA4FF42050694602AACDE900050A48B9
:1013F00082E8D000FFF724FA002228201146FFF7E8
:1014000071FB2820FFF760FB07B0BDE8F08F0000FC
:101410003038024000040240001802400000111061
:101420000008024000000240000C02403EB5114896
:1014300000244FF47A520E4DFF2300940194802132
:1014400002948161C0E90242C0E90053FFF7A2FEA5
:1014500008B1FFF70BF82020009006486946029477
:10146000FFF746FE002801D0FFF700F83EBD000060
:101470000010004058000020FEE7FEE7704770476C
:10148000FFF7D6BA30B593B034216846FEF70AFFAD
:1014900014210DA8FEF706FF2048016841F0805195
:1014A0000160006800F0805012901D48016841F40E
:1014B00040410160006800250DF1200C02240094D9
:1014C0000822D823CDE9064500F4404012901021AF
:1014D0008CE81C0001200B94CDE903016846FFF75E
:1014E00027FC08B172B6FEE7FFF72EFB08B172B613
:1014F000FEE74FF480524FF4A0510F20CDE91012B7
:101500000DAA072182E831000DA8FFF753FB002840
:1015100001D072B6FEE713B030BD00004038024083
:10152000007000400248016841F47001016070479A
:1015300088ED00E0F0B5274B4FF0804E264D026855
:101540009842264E264F274C09D0704507D0A84216
:1015500005D0B04203D0B84201D0A04205D1D1F8A5
:1015600004C022F070024CEA020298421BD070457F
:1015700019D0A84217D0B04215D0B84213D0A0421B
:1015800011D0194DA8420ED0184DA8420BD0184DBD
:10159000A84208D0174DA84205D0174DA84202D046
:1015A000164DA84203D1CD6822F440722A434D69FA
:1015B00022F080022A43026098428A68C2620A6866
:1015C000826201D0A04201D1096901630121416118
:1015D000F0BD000000000140000400400008004091
:1015E000000C004000040140004001400044014064
:1015F0000048014000180040001C0040002000404E
:10160000FEE7090700284FEA116104DB00F1E02042
:1016100080F80014704700F00F0000F1E02080F81F
:10162000141D704702E008C8121F08C1002AFAD131
:1016300070477047002001E001C1121F002AFBD152
:101640007047FFF7FDF9FFF71DFFFFF71BFEFFF7E0
:10165000E9FDFFF7EBFEFEE70000000000000000E0
:10166000010203040607080988160008000000208C
:101670001000000024160008981600081000002032
:10168000980400003416000801000000100000005B
:08169000000000000024F4003A
:04000005080001F9F5
:00000001FF
