:020000040800F2
:10000000E804002011020008CB1100080F0F0008BF
:10001000C91100085504000869120008000000001A
:10002000000000000000000000000000CF110008E8
:100030005704000800000000CD110008D11100088D
:100040002B0200082B0200082B0200082B020008DC
:100050002B0200082B0200082B0200082B020008CC
:100060002B0200082B0200082B0200082B020008BC
:100070002B0200082B0200082B0200082B020008AC
:100080002B0200082B0200082B0200082B0200089C
:100090002B0200082B0200082B0200082B0200088C
:1000A0002B0200082B0200082B0200082B0200087C
:1000B0002B0200082B0200082B0200082B0200086C
:1000C0002B0200082B0200082B0200082B0200085C
:1000D0002B0200082B0200082B0200082B0200084C
:1000E0002B0200082B0200082B0200082B0200083C
:1000F0002B0200082B0200082B0200082B0200082C
:100100002B0200082B0200082B0200082B0200081B
:100110002B0200082B0200082B0200082B0200080B
:100120002B0200082B0200082B0200082B020008FB
:100130002B0200082B0200082B0200082B020008EB
:100140002B0200082B0200082B0200082B020008DB
:100150002B0200082B0200082B0200082B020008CB
:100160002B0200082B0200082B0200082B020008BB
:100170002B0200082B0200082B02000800000000E0
:100180002B0200082B0200082B0200082B0200089B
:100190002B0200082B0200082B0200082B0200088B
:1001A0002B0200082B0200082B0200082B0200087B
:1001B0002B0200082B0200082B0200082B0200086B
:1001C0002B0200082B020008000000002B02000890
:1001D0002B0200082B0200082B0200082B0200084B
:1001E0002B0200082B0200082B0200082B0200083B
:1001F0002B0200082B020008DFF810D000F07CF87A
:1002000000480047AB120008AFF30080E80400206C
:100210000648804706480047FEE7FEE7FEE7FEE7A0
:10022000FEE7FEE7FEE7FEE7FEE7FEE759120008FD
:10023000F90100082DE9F05F0546002092469B4633
:1002400088460646814640241BE0284641464746EC
:10025000224600F041F853465A46C01A914110D345
:1002600011461846224600F028F82D1A67EB0108BF
:100270004F4622460120002100F01FF817EB00092D
:100280004E41201EA4F10104DFDC484631462A46D7
:100290004346BDE8F09FD2B201E000F8012B491EB1
:1002A000FBD270470022F6E710B513460A46044613
:1002B0001946FFF7F0FF204610BD202A04DB203A44
:1002C00000FA02F1002070479140C2F1200320FAA9
:1002D00003F3194390407047202A04DB203A21FAA7
:1002E00002F00021704721FA02F3D040C2F120024F
:1002F0009140084319467047064C074D06E0E068F8
:1003000040F0010394E8070098471034AC42F6D35C
:10031000FFF776FFD4120008F41200084A496FF084
:10032000706210B5D1F8043323F44033C1F80433BC
:10033000D1F8043344682343C1F8043301684B689F
:1003400023F480734B60016803694C6844EA03231B
:100350004B6001684B6823F040734B600168846810
:100360004B6823434B6001688B6823F400638B6008
:100370000168C4688B6823438B60816AD14201683D
:100380008A6822F070628A6001680DD0836A8A6888
:100390001A438A6001688A6822F040528A600168C4
:1003A000C36A8A681A4302E08A6822F040528A606F
:1003B00001688A6822F002028A60016882698B689B
:1003C00043EA42028A6090F820100029016811D0A7
:1003D0001E4A4B6843F400634B6001684B6823F48A
:1003E00060434B600168446A4B6802EB443213433C
:1003F0004B6003E04A6822F400624A600168144BD3
:10040000CA6A22F47002CA620168848BCA6A03EB6A
:1004100004531A43CA6201688A6822F400728A602F
:10042000016890F830208B6843EA42228A600168B4
:100430008A6822F480628A60016840698A6842EAB8
:100440008020886010BD00000020014000E0FFFF18
:100450000000F0FFFEE77047F8B50025009590F822
:100460003C20012A1DD0012280F83C20604C07234B
:10047000D6070A68092A22D9B24220D007680A3A68
:1004800002EB420CFA6803FA0CF39A43FA600A682A
:10049000A24208D102680B7AD76847EA0363D360A7
:1004A00022E00220F8BD07680A3A8B6802EB42029C
:1004B000D7F80CC0934043EA0C03FB6014E00768D4
:1004C00002EB4202D7F810C093402CEA030CC7F8A5
:1004D00010C003680F788A68D3F810C007EB47078D
:1004E000BA4042EA0C021A614A681F23072A16D250
:1004F0000768521E02EB820C7A6B03FA0CF39A43E4
:100500007A6302680F790B887F1ED2F834C09BB2E1
:1005100007EB8707BB4043EA0C0353632DE00768F2
:100520000D2A15D2D21F02EB820C3A6B03FA0CF3A0
:100530009A433A6302680F790B88FF1FD2F830C0E4
:100540009BB207EB8707BB4043EA0C03136314E03D
:100550000D3A02EB820CFA6A03FA0CF39A43FA6240
:1005600002680F790B880D3FD2F82CC09BB207EBC5
:100570008707BB4043EA0C03D3621E4A03689342D9
:1005800008D10B68B34205D1D2F8043323F44003F9
:10059000C2F804330368934208D10B68122B05D1CB
:1005A000D2F8043343F48003C2F80433036893425F
:1005B0001AD10B68A34201D0112B15D1D2F8043304
:1005C00043F40003C2F804330968A1420CD10A497C
:1005D0000A4A0968B1FBF2F101EB8101490000E030
:1005E000491E00910029FBD180F83C500020F8BD45
:1005F00012000010002001400C00002040420F00BB
:1006000070B504004FF0000503D0206C002610B137
:1006100007E0012070BD204600F01CF8666484F8F5
:100620003C60206CC00610D4206C20F4885040F050
:10063000020020642046FFF771FE6664206C20F003
:10064000020040F00100206400E0012584F83C60D5
:10065000284670BDF0B587B0044614216846FFF700
:1006600021FE1C4A0023266809251B4F143A19490C
:1006700003241A48BE4207D10E6846F480760E6005
:10068000096801F4807109E0154FBE4217D10E6868
:1006900046F400760E60096801F400710591116856
:1006A00041F0010111601168009501F0010105910F
:1006B000CDE90143694600F017F807B0F0BD094FD6
:1006C000BE42FAD10E6846F480660E60096801F4F5
:1006D0008061E3E74438024000200140000002400E
:1006E00000210140002201402DE9F84F00224FF087
:1006F00001094FF0030A4FF00F0E00BF0B6809FA13
:1007000002F42340A34270D14D68012D05D0022D83
:1007100003D0112D01D0122D11D185685700CE685C
:100720000AFA07FC25EA0C05BE402E4386604568A0
:100730000E79A543C6F3001696402E434660C56861
:1007400056008F680AFA06F4A543B7402F43C760E6
:100750004D68022D01D0122D12D1D5080F694FEA34
:10076000427C00EB8505AB462D6A4FEADC6C0EFA45
:100770000CF807FA0CF725EA08052F43CBF8207090
:100780000D79076805F00305A743B5403D430560B3
:100790004C68E40074D53D4C256845F480452560DF
:1007A000246822F00307960704F480440094384C30
:1007B000360F2744D7F80848DFF8D8C00EFA06F5F8
:1007C000604524EA050401D100252EE0324DA842FF
:1007D00001D1012529E0314DA84201D1022524E0B3
:1007E0002F4DA84202D103251FE049E02D4DA8421C
:1007F00001D1042519E02C4DA84201D1052514E0B2
:100800002A4DA84201D106250FE0294DA84201D169
:1008100007250AE0274DA84201D1082505E0264D0D
:10082000A84201D1092500E00A25B540234E254301
:10083000C7F808584D683468ED0324EA030400D56E
:100840001C431E4D34602D1D4E682C68B60324EAEF
:10085000030400D51C43194E2C6008364D683468DB
:10086000ED0224EA030400D51C43144D34600C351A
:100870004E682C68B60224EA030400D51C432C60A1
:10088000521C102AFFF43AAFBDE8F88F44380240FA
:100890000030014000000240000402400008024015
:1008A000000C0240001002400014024000180240F8
:1008B000001C02400020024000240240003C014095
:1008C0000AB1816170470904FBE7000001488068B4
:1008D000704700000000002002488168027811443F
:1008E0008160704700000020032010B500F060F820
:1008F000002000F005F800F023F8002010BD0000F3
:1009000070B50D4D04464FF47A700C4A2978126880
:10091000B0FBF1F0B2FBF0F000F0E6FA48B9102CB1
:1009200007D200222146501E00F022F800206C6001
:1009300070BD012070BD0000000000200C000020F0
:100940000A4808B5016841F080510160006800F074
:10095000805000900548001D016841F4804101600D
:10096000006800F48040009008BD0000403802405C
:100970000E4BF0B41B680D46C3F30223C3F1070608
:10098000042E00D90426191D072901D2002300E0F6
:10099000DB1E012404FA06F19C40491E2940641E16
:1009A000994014402143F0BC00F05FBC0CED00E026
:1009B000064900F0070210B54FF6FF040868044B23
:1009C000204040EA02201843086010BD0CED00E012
:1009D0000000FA052DE9F04705000F4663D0444EAC
:1009E000306800F00F00B84209D2306820F00F00E4
:1009F00038433060306800F00F00B84253D12868A7
:100A00003C4C810712D5400703D5206840F4E050E4
:100A100020602878000703D5206840F460402060FB
:100A2000A968206820F0F000084320602878C007FB
:100A30002AD0304968680839012810D0096802288E
:100A400010D0890700292EDA216821F00301014323
:100A50002160FFF73BFF804641F288390DE00968CD
:100A60008903EFE78901EDE7FFF730FFA0EB08010D
:100A7000494502D90320BDE8F0876868216801F084
:100A80000C01B1EB800FEFD1306800F00F00B842DD
:100A90000BD9306820F00F0038433060306800F028
:100AA0000F00B84201D00120E5E72878400705D5BE
:100AB000E968206820F4E0500843206028780007A7
:100AC00006D52869216821F4604141EAC000206010
:100AD00000F018F82168084AC1F30311515CC840BE
:100AE0000649086006480068FFF70AFF0020C2E7D1
:100AF000003C024008380240C41200080C000020EC
:100B000004000020104910B51048096811F00C01CC
:100B100018D0042916D0082914D10B4C241F2268A0
:100B20002168216802F03F020023C1F38811A1FB74
:100B30000001FFF77FFB2168C1F30141491C490017
:100B4000B0FBF1F010BD0000083802400024F400B2
:100B50002DE9F84F04004FF000076ED02078DFF841
:100B60007CA3AAF10408C007A8F104054CD0DAF868
:100B700000105046C1F38101012908D00068C0F37C
:100B8000810002280AD1D8F80000400206D5286862
:100B9000800339D560680028DFD035E06068B0F5A3
:100BA000803F0BD010B1B0F5A02F11D0286820F4F1
:100BB00080302860286820F4802002E0286840F413
:100BC00080302860606890B1FFF780FE06460AE03A
:100BD000286840F480202860F0E700BFFFF776FE29
:100BE000801B642872D828688003F7D50CE0FFF7D3
:100BF0006DFE064605E000BFFFF768FE801B642817
:100C0000F0D828688003F7D42078800742D5DAF836
:100C10000010504611F00C0F08D00068C0F381009E
:100C200002280BD1D8F80000400207D428688007BA
:100C300018D5E068012800D114E04AE1E0680028F6
:100C4000286817D040F001002860FFF73FFE0646F5
:100C500005E000BFFFF73AFE801B0228C2D82868D3
:100C60008007F7D52069296821F0F80141EAC00022
:100C700028600FE020F001002860FFF727FE0646FD
:100C800005E000BFFFF722FE801B02281ED828685F
:100C90008007F7D42078000729D5904861696C3027
:100CA00000298146016812D041F001010160FFF77F
:100CB0000DFE064605E000BFFFF708FE801B022878
:100CC00004D8D9F800008007F6D510E089E021F0BB
:100CD00001010160FFF7FAFD064604E0FFF7F6FDAB
:100CE000801B02287DD8D9F800008007F6D4207830
:100CF00040076BD5DFF8E49109F13809D9F8000015
:100D0000C0000BD4D9F8001041F08051C9F8001090
:100D1000D9F80000012700F0805000907048016869
:100D2000C90512D40168834641F480710160FFF760
:100D3000CDFD064605E000BFFFF7C8FD801B642817
:100D40004FD8DBF80000C005F6D5644EA0686836C1
:100D500001280AD008B1052811D0306820F0010020
:100D60003060306820F0040002E0306840F001009C
:100D70003060A068A0B1FFF7A9FD83460CE03068A1
:100D800040F004003060F0E7FFF7A0FDA0EB0B019E
:100D900041F28830814268D830688007F4D50EE08F
:100DA000FFF794FD834607E0FFF790FDA0EB0B01F2
:100DB00041F28830814258D830688007F4D42FB18E
:100DC000D9F8001021F08051C9F80010A069E0B3F3
:100DD000DAF80010C1F3810102294DD002282868F9
:100DE00000E042E020F08070286003D0FFF76EFD45
:100DF00004463DE0FFF76AFD064604E0FFF766FDA6
:100E0000801B022831D828688001F7D4D4E9092151
:100E1000DFF8D0C0D4E9070694F830304F0894F8D2
:100E20002C1030430CEB074444EA8212104340EA92
:100E3000016040EA0370C8F80000286840F0807044
:100E40002860FFF743FD044605E044E0FFF73EFD60
:100E5000001B022809D828688001F7D53BE000BFB5
:100E6000FFF734FD001B022802D90320BDE8F88FEC
:100E700028688001F4D42EE00128D8F8000028D09A
:100E8000E16900F480028A4223D1216A00F03F0226
:100E90008A421ED1626A47F6C0710140B1EB821FDF
:100EA00017D1A16A4FF0FF3200F4403302EB510139
:100EB000B3EB014F0DD194F82C1000F07062B2EB3F
:100EC000016F06D194F8301000F0E040B0EB017FE4
:100ED00001D00120CAE70020C8E70000083802401E
:100EE000007000400000FFFF401EB0F1807F10B591
:100EF00001D3012010BD4FF0E02460610F21601785
:100F000000F0B3F90020A0610721216110BDFEE7C8
:100F10007FB51548002413490125009401940294DB
:100F20000394016044608460046184610F4980F827
:100F30002040C0E90A14C561C46080F830404561B2
:100F4000FFF75EFB08B172B6FEE707486946CDE9D8
:100F500000450294FFF780FA002801D072B6FEE740
:100F60007FBD000000200140100000200100000FA4
:100F70007FB515480024134901250094019402947B
:100F80000394016044608460046184610F4980F8C7
:100F90002040C0E90A14C561C46080F83040456152
:100FA000FFF72EFB08B172B6FEE707486946CDE9A8
:100FB00000450294FFF750FA002801D072B6FEE710
:100FC0007FBD000000210140580000200100000FFB
:100FD0007FB515480024134901250094019402941B
:100FE0000394016044608460046184610F4980F867
:100FF0002040C0E90A14C561C46080F830404561F2
:10100000FFF7FEFA08B172B6FEE707486946CDE978
:1010100000450294FFF720FA002801D072B6FEE7DF
:101020007FBD000000220140A00000200100000F51
:101030002DE9F04F87B014216846FFF733F95B487C
:10104000016841F004010160016801F004010591AB
:10105000016841F080010160016801F080010591A3
:10106000016841F001010160016801F00101059191
:10107000016841F002010160016801F0020105917F
:10108000016841F008010160016801F00801059163
:10109000016841F040010160006844F2810ADFF814
:1010A00010B1002200F04000514605905846FFF76D
:1010B00007FC404800224021FFF702FC00243E4983
:1010C000DFF8F8904FF40058CDF80080CDE9011416
:1010D00069464846FFF708FB02256946322002AA06
:1010E000CDE90005032648460B2782E8D000FFF72C
:1010F000FBFA8620694602AACDE90005304882E85D
:10110000D000FFF7F1FA4FF00109CDF800A0CDE9CA
:101110000194694658460394FFF7E6FA02AA694625
:10112000584682E8D000CDE90085FFF7DDFA3002AD
:101130000294CDE9000507206946CDE90360214806
:10114000FFF7D2FA40210091CDE901941948694690
:101150000394FFF7C9FA80206946CDE900041548D9
:101160000294FFF7C1FA4FF4E85000900A20694654
:10117000CDE903601248CDE90154FFF7B5FA280222
:101180006946CDE900040E480294FFF7ADFA4FF42A
:101190002050694602AACDE90005064882E8D00041
:1011A000FFF7A2FA07B0BDE8F08F00003038024028
:1011B0000004024000180240000011100008024024
:1011C00000000240000C0240FEE7FEE77047704757
:1011D000FFF782BB10B594B034216846FFF762F880
:1011E00014210DA8FFF75EF81948016841F08051FD
:1011F0000160006800F0805012901648016821F4E8
:10120000404141F4804101600068102200240694AE
:1012100000F4404012900220009001216846CDE980
:101220000312FFF795FC08B172B6FEE70F204FF4EA
:101230008051CDE90D040DA8CDE90F410021119495
:10124000FFF7C8FB002801D072B6FEE714B010BD4E
:1012500040380240007000400248016841F47001CB
:101260000160704788ED00E0FEE7090700284FEABB
:10127000116104DB00F1E02080F80014704700F0F9
:101280000F0000F1E02080F8141D704702E008C84C
:10129000121F08C1002AFAD170477047002001E0F0
:1012A00001C1121F002AFBD17047FFF71DFBFFF79A
:1012B00091FFFFF7BDFEFFF72BFEFFF759FEFFF78B
:1012C00087FEFEE7000000000000000001020304AA
:1012D00006070809F41200080000002010000000B2
:1012E0008C1200080413000810000020D80400002D
:1012F0009C12000801000000100000000000000027
:041300000024F400D1
:04000005080001F9F5
:00000001FF
