:020000040800F2
:10000000B805002011020008C1240008E91F0008FB
:10001000BD240008B1040008B52900080000000054
:10002000000000000000000000000000772500082C
:10003000B5040008000000007525000879250008B7
:100040002B0200082B0200082B0200082B020008DC
:100050002B0200082B0200082B0200082B020008CC
:100060002B0200082B0200082B0200082B020008BC
:100070002B0200082B0200082B0200082B020008AC
:100080002B0200082B0200081D0300082B020008A9
:100090002B0200082B0200082B020008C3040008F2
:1000A0002B0200082B0200082B0200082B0200087C
:1000B0002B0200082B0200082B0200082B0200086C
:1000C0002B0200082B0200082B0200082B0200085C
:1000D0002B0200082B0200082B0200082B0200084C
:1000E000B70400082B0200082B0200082B020008AE
:1000F0002B0200082B0200082B0200082B0200082C
:100100002B0200082B0200082B0200082B0200081B
:100110002B0200082B0200082B0200082B0200080B
:100120002B0200082B0200082B0200082B020008FB
:100130002B0200082B0200082B0200082B020008EB
:100140002B0200082B0200082B0200082B020008DB
:100150002B0200082B0200082B0200082B020008CB
:100160002B0200082B0200082B0200082B020008BB
:100170002B0200082B0200082B02000800000000E0
:100180002B0200082B0200082B0200082B0200089B
:100190002B0200082B0200082B0200082B0200088B
:1001A0002B0200082B0200082B0200082B0200087B
:1001B0002B0200082B0200082B0200082B0200086B
:1001C0002B0200082B020008000000002B02000890
:1001D0002B0200082B0200082B0200082B0200084B
:1001E0002B0200082B0200082B0200082B0200083B
:1001F0002B0200082B020008DFF810D000F07CF87A
:1002000000480047412A0008AFF30080B8050020ED
:100210000648804706480047FEE7FEE7FEE7FEE7A0
:10022000FEE7FEE7FEE7FEE7FEE7FEE73926000809
:10023000F90100082DE9F05F0546002092469B4633
:1002400088460646814640241BE0284641464746EC
:10025000224600F041F853465A46C01A914110D345
:1002600011461846224600F028F82D1A67EB0108BF
:100270004F4622460120002100F01FF817EB00092D
:100280004E41201EA4F10104DFDC484631462A46D7
:100290004346BDE8F09FD2B201E000F8012B491EB1
:1002A000FBD270470022F6E710B513460A46044613
:1002B0001946FFF7F0FF204610BD202A04DB203A44
:1002C00000FA02F1002070479140C2F1200320FAA9
:1002D00003F3194390407047202A04DB203A21FAA7
:1002E00002F00021704721FA02F3D040C2F120024F
:1002F0009140084319467047064C074D06E0E068F8
:1003000040F0010394E8070098471034AC42F6D35C
:10031000FFF776FF442B0008642B000810B5054852
:1003200000F009FA044800F006FA044800F003FA65
:1003300010BD00004800002090000020D8000020E0
:100340005849096821F44031574AC2F8041311464C
:10035000D1F8041342681143524A11600168496898
:1003600021F480710268516001684A68016942EABB
:100370000121026851600168496821F040710268FA
:1003800051600168496882681143026851600168E0
:10039000896821F400610268916001688968C26817
:1003A000114302689160414A816A914218D0016804
:1003B000896821F070610268916001688968826AC9
:1003C0001143026891600168896821F04051026818
:1003D000916001688968C26A1143026891600BE00C
:1003E0000168896821F0706102689160016889681C
:1003F00021F04051026891600168896821F0020192
:100400000268916001688A68816942EA4101026874
:1004100091602021095CA1B10168496841F4006143
:10042000026851600168496821F4604102685160C6
:1004300001684A68416A491E42EA413102685160D6
:1004400005E00168496821F40061026851600168B3
:10045000C96A21F470010268D1620168CA6A818B9D
:10046000491E42EA01510268D1620168896821F49B
:1004700000710268916001688A6890F8301042EA61
:100480004121026891600168896821F480610268F5
:10049000916001688A68416942EA8121026891603D
:1004A0007047000004230140002001400100000FBC
:1004B00000BFFEE7704710B54FF4005000F0BCFCE1
:1004C00010BD10B54FF4007000F0B6FC10BD72B650
:1004D00000BFFEE703B585B014216846FFF7E2FED2
:1004E0000698009001200190002002900390694638
:1004F000059800F0AFFC07B000BD704718B5024684
:100500000020009000BF92F83C00012801D1022099
:1005100018BD012082F83C0000BF0868092826D9D0
:100520000868B0F1004F22D01068C0680B780A3B11
:1005300003EB43040723A34098431368D860604B40
:100540000868984207D11068C0680B7A40EA0360D7
:100550001368D8601FE00B780A3B03EB43038868FD
:1005600098401368DB6818431368D86013E010687C
:1005700000690B7803EB43040723A34098431368F7
:1005800018610B7803EB43038868984013681B6974
:100590001843136818614868072817D21068406B21
:1005A0000B795B1E03EB83041F23A340984313685E
:1005B0005863088880B20B795B1E03EB8303984075
:1005C00013685B6B18431368586331E048680D2863
:1005D00017D21068006B0B79DB1F03EB83041F231A
:1005E000A340984313681863088880B20B79DB1F17
:1005F00003EB8303984013681B6B1843136818635D
:1006000016E01068C06A0B790D3B03EB83041F23CF
:10061000A34098431368D862088880B20B790D3BD9
:1006200003EB830398401368DB6A18431368D862AE
:10063000244B1068984209D10868B0F1004F05D1E9
:100640002148006820F44000C3F804031D4B1068E3
:10065000984208D10868122805D11B48006840F468
:100660008000C3F80403174B1068984220D1144B44
:100670000868984202D00868112819D11248006809
:1006800040F40000104B18600D4B086898420FD1E1
:100690000E4800680E4BB0FBF3F000EB800040000A
:1006A000009002E00098401E009000980028F9D1C8
:1006B00000BF002082F83C0000BF00BF28E7000018
:1006C000120000100020014004230140140000200B
:1006D00040420F0010B504460D492068884204D1FD
:1006E0000C4800F024F80C4908800C492068884226
:1006F00004D10B4800F01BF80749488009492068DD
:10070000884204D1084800F012F80349888010BDDF
:10071000002001404800002000000020002101408E
:100720009000002000220140D800002070470146C0
:100730000868C06C704770B5044600250026206824
:100740000068C0F3400520684068C0F3401695B3C8
:100750008EB3206C00F0100018B9206C40F40070CB
:1007600020642068806800F04050E8B9A069D8B9DA
:100770002068C06A00F4700020B12068806800F42E
:10078000806088B92068406820F0200021684860B7
:10079000206C20F480702064206C00F4805018B924
:1007A000206C40F0010020642046FFF793FF6FF0BB
:1007B00012002168086020680068C0F38005206886
:1007C0004068C0F3C016E5B3DEB3206C00F0100043
:1007D00018B9206C40F4005020642068806800F450
:1007E000401038BB2068806B00F4401020B12068B6
:1007F000806800F48060E8B92068406800F4806098
:10080000C0B92068806800F0405098B9A06988B9E4
:100810002068406820F0800021684860206C20F447
:1008200080502064206C00F4807018B9206C40F077
:10083000010020642046FFF760FE6FF00C00216885
:1008400008602068006800F0010520684068C0F377
:10085000801685B17EB12068006800F0010050B1BB
:10086000206C40F480302064204600F053F86FF094
:1008700001002168086020680068C0F34015206806
:100880004068C0F380667DB176B1606C40F00200D4
:1008900060646FF02000216808602046FFF746FF83
:1008A0006FF020002168086070BD000070B504463C
:1008B00000250CB9012070BD1549A06A884200D0FE
:1008C00000BF206C30B9204600F026F8002060649C
:1008D00084F83C00206C00F0100088B9206C20F4F3
:1008E000885040F0020020642046FFF729FD0020D8
:1008F0006064206C20F0020040F00100206400E001
:10090000012500BF002084F83C0000BF2846D2E744
:100910000100000F7047000010B586B00446142196
:1009200001A8FFF7BFFC50492068884230D100BFC2
:100930004E48006840F480704C49086008460068E2
:1009400000F48070009000BF00BF00BF474814381B
:10095000006840F001004549143908600846006805
:1009600000F00100009000BF00BF012001900320B3
:1009700002900020039001A93D4800F06BFA00228C
:100980001146122000F0ECFB122000F0D9FB68E0C9
:1009900038492068884230D100BF3448006840F4AC
:1009A0000070324908600846006800F4007000904A
:1009B00000BF00BF00BF2D481438006840F00100A0
:1009C0002A49143908600846006800F001000090C8
:1009D00000BF00BF0120019003200290002003907F
:1009E00001A9234800F036FA00221146122000F037
:1009F000B7FB122000F0A4FB33E01F4920688842B7
:100A00002FD100BF1948006840F480601749086082
:100A10000846006800F48060009000BF00BF00BF7F
:100A200012481438006840F0010010491439086079
:100A30000846006800F00100009000BF00BF0120E0
:100A40000190032002900020039001A9084800F0C3
:100A500001FA00221146122000F082FB122000F061
:100A60006FFB06B010BD000000200140443802407A
:100A700000000240002101400022014070B5044600
:100A80000D4600262068806800F48060B0F5806F15
:100A900011D12068806800F48070B0F5807F0AD1A1
:100AA000206C40F02000206400BF002084F83C004F
:100AB00000BF012070BD00F0DFFA064618E0681C98
:100AC000B0B125B100F0D8FA801BA84210D9206837
:100AD000006800F0020002280AD0206C40F00400F8
:100AE000206400BF002084F83C0000BF0320E1E741
:100AF0002068006800F002000228E0D16FF01200C8
:100B000021680860206C40F40070206420688068D0
:100B100000F04050B8B9A069A8B92068C06A00F4D4
:100B2000700020B12068806800F4806058B9206CA3
:100B300020F480702064206C00F4805018B9206C80
:100B400040F0010020640020B4E7000008B5014631
:100B50000020009000BF91F83C00012801D1022044
:100B600008BD012081F83C0000BF0868806800F0E3
:100B70000100A0B90868806840F001000A68906030
:100B80003D4800683D4AB0FBF2F000EB40000090A9
:100B900002E00098401E009000980028F9D10868F3
:100BA000806800F0010000285CD0086C40F201620F
:100BB000904340F4807008640868406800F48060E6
:100BC00028B1086C20F4005040F480500864086C90
:100BD00000F48050B0F5805F04D1486C20F006002E
:100BE000486401E00020486400BF002081F83C0018
:100BF00000BF6FF022000A6810602148006800F012
:100C00001F0058B90868806800F0405048BB086869
:100C1000806840F080400A6890602BE0194A0868BC
:100C200090420AD10868806800F0405028B90868EE
:100C3000806840F080400A6890601148006800F0C9
:100C4000100070B9104A0868904213D10868806893
:100C500000F0405028B90868806840F080400A6879
:100C6000906007E0086C40F010000864486C40F0A9
:100C700001004864002073E71400002040420F0088
:100C800004230140002001400022014008B5014634
:100C90000020009000BF91F83C00012801D1022003
:100CA00008BD012081F83C0000BF0868806800F0A2
:100CB0000100A0B90868806840F001000A689060EF
:100CC00040480068404AB0FBF2F000EB4000009062
:100CD00002E00098401E009000980028F9D10868B2
:100CE000806800F00100002862D0086C40F20162C8
:100CF000904340F4807008640868406800F48060A5
:100D000028B1086C20F4005040F480500864086C4E
:100D100000F48050B0F5805F04D1486C20F00600EC
:100D2000486401E00020486400BF002081F83C00D6
:100D300000BF6FF022000A68106008684068234A0C
:100D400010430A6850602248006800F01F0058B93C
:100D50000868806800F0405048BB0868806840F030
:100D600080400A6890602BE01A4A086890420AD1D5
:100D70000868806800F0405028B90868806840F032
:100D800080400A6890601248006800F0100070B956
:100D9000114A0868904213D10868806800F04050FA
:100DA00028B90868806840F080400A68906007E0D1
:100DB000086C40F010000864486C40F00100486482
:100DC00000206DE71400002040420F0020000004C6
:100DD00004230140002001400022014070B5044678
:100DE00000F04AF906462546681C10B10448007810
:100DF000054400BF00F040F9801BA842FAD370BD43
:100E00001000002070B5054600240FE004EB4400FC
:100E1000084901EB80004068A84206D104EB440178
:100E2000044A02EB810188688047641C042CEDDBD6
:100E300070BD00001800002010B50446044800688A
:100E4000204020B1024804602046FFF7DBFF10BDC0
:100E5000143C0140F8B502460B4600210025002451
:100E6000002000BFE4E0012606FA01F51E6806EA4C
:100E70000504AC4271D15E68012E08D05E68022E76
:100E800005D05E68112E02D05E68122E13D19068D4
:100E90004F000326BE40B0434F00DE68BE403043E3
:100EA0009060506801268E40B0431E79C6F300164C
:100EB0008E4030435060D0684F000326BE40B043A0
:100EC0004F009E68BE403043D0605E68022E02D064
:100ED0005E68122E13D1CF0802F1200656F82700C3
:100EE0004E07F70E0F26BE40B0434F07FF0E1E6998
:100EF000BE403043CF0802F1200646F827001068B4
:100F00004F000326BE40B0431E7906F003064F0093
:100F1000BE40304310605E6806F08056B6F1805FD8
:100F2000A8D100BF444E366846F48046424F3E602A
:100F30003E46366806F48046009600BF00BF3F4E2E
:100F40008F0856F827008E07370F0F26BE40B04394
:100F50003B4EB24202D100262EE068E0394EB2424A
:100F600001D1012628E0384EB24201D1022623E009
:100F7000364EB24201D103261EE0354EB24201D1B7
:100F8000042619E0334EB24201D1052614E0324E58
:100F9000B24201D106260FE0304EB24201D10726FF
:100FA0000AE02F4EB24201D1082605E02D4EB24292
:100FB00001D1092600E00A268F073F0FBE403043CB
:100FC0001E4E8F0846F82700274E3068A0435E6803
:100FD00006F48036B6F5803F00D12043224E3060C3
:100FE000361D3068A0435E6806F40036B6F5003F53
:100FF00000D120431C4E361D3060361D3068A043A2
:101000005E6806F48016B6F5801F00D12043164EA8
:1010100008363060361D3068A0435E6806F400165E
:10102000B6F5001F00D120430F4E0C363060491C2E
:101030001029FFF418AFF8BD4438024008380140C9
:10104000000002400004024000080240000C024080
:10105000001002400014024000180240001C024030
:101060000020024000240240003C01400AB181619E
:1010700001E00B048361704701480068704700007D
:101080000800002003480068034909780844014922
:1010900008607047080000201000002010B50320F1
:1010A00000F09CF8002000F005F800F029F800207E
:1010B00010BD000070B504460E4800784FF47A71F8
:1010C000B1FBF0F00C490968B1FBF0F5284600F0DF
:1010D0008BFC08B1012070BD102C07D200222146E4
:1010E000501E00F03DF80548046001E00120F2E7E1
:1010F0000020F0E710000020140000200C00002069
:1011000008B500BF0D48006840F080500B490860EA
:101110000846006800F08050009000BF00BF00BF8C
:10112000081D006840F48040091D086008460068FA
:1011300000F48040009000BF00BF08BD403802406E
:1011400001460846002809DB00F01F0301229A40EF
:1011500043099B0003F1E023C3F8002100BF70475F
:101160002DE9F05F80460D461646002701F024FC6D
:10117000074639462A46334601F00700C0F1070A00
:10118000BAF1040F02D94FF0040A01E0C0F1070AD6
:10119000D14600F1040ABAF1070F02D24FF0000A5B
:1011A00001E0A0F1030AD4464FF0010A0AFA09FA55
:1011B000AAF1010A0AEA020A0AFA0CFA4FF0010B34
:1011C0000BFA0CFBABF1010B0BEA030B4AEA0B0425
:1011D0002146404601F0F8FBBDE8F09F00BF00F05B
:1011E0000702064B19684FF6FF031940044B0B43E7
:1011F00043EA0221014B196000BF70470CED00E08B
:101200000000FA0538B5002400BF2048006840F00F
:1012100080501E4908600846006800F08050009029
:1012200000BF00BF1A48006840F4803018490860C9
:10123000FFF722FF044607E0FFF71EFF001BB0F593
:101240007A7F01D9032038BD1148406800F480300E
:10125000B0F5803FF0D10E48006840F400300C49F2
:101260000860FFF709FF044607E0FFF705FF001BD2
:10127000B0F57A7F01D90320E5E70548406800F41E
:101280000030B0F5003FF0D10020DCE740380240EC
:101290000070004070B504460D4600260CB90120D0
:1012A00070BD5C48006800F00F00A8420ED259489B
:1012B000006820F00F00284356490860084600687F
:1012C00000F00F00A84201D00120E9E7207800F0EB
:1012D000020002281DD1207800F00400042805D166
:1012E0004D48006840F4E0504B490860207800F019
:1012F0000800082805D14848006840F46040464985
:1013000008604548006820F0F000A16808434249A1
:101310000860207800F0010090B36068012807D1D0
:101320003D4808380068C0F34040A0B90120B7E745
:101330006068022807D1384808380068C0F3406068
:1013400048B90120ACE7344808380068C0F34000D1
:1013500008B90120A4E73048006820F00300616864
:1013600008432D490860FFF787FE064609E0FFF7AE
:1013700083FE801B41F28831884202D903208FE727
:1013800007E02548006800F00C006168B0EB810FB1
:10139000EDD12048006800F00F00A8420ED91D488A
:1013A000006820F00F0028431A49086008460068CA
:1013B00000F00F00A84201D0012071E7207800F072
:1013C0000400042807D11448006820F4E050E168C4
:1013D000084311490860207800F00800082808D167
:1013E0000D48006820F46040216940EAC1000A49C4
:1013F000086000F019F808490968C1F30311074AA9
:10140000515CC8400649086006480068FFF752FE74
:10141000002045E7003C0240083802402C2B000821
:10142000140000200C0000202DE9F04700240025C6
:101430000026A1462548006800F00C0020B10428D1
:1014400005D008283AD105E0DFF8849039E0DFF8CC
:10145000809036E01D48001F006800F03F041B48E4
:10146000001F006800F4800078B119481749091F6F
:101470000968C1F38811A0FB0170014622460023D0
:101480003846FEF7D7FE05460EE011480F49091F02
:101490000968C1F38811A0FB0170014622460023B0
:1014A0003846FEF7C7FE05460848001F0068C0F32F
:1014B0000140401C4600B5FBF6F902E0DFF8109051
:1014C00000BF00BF4846BDE8F08700000838024072
:1014D0000024F400F8B5044600270CB90120F8BD3B
:1014E000207800F00100002871D0F948006800F071
:1014F0000C0004280DD0F648006800F00C00082805
:1015000013D1F348001F006800F48000B0F5800F8D
:101510000BD1EF4808380068C0F34040002869D07C
:101520006068002866D10120D9E700BF6068B0F587
:10153000803F08D1E6480838006840F48030E4492C
:10154000083908602EE0606868B9E148083800682A
:1015500020F48030DE49083908600846006820F42D
:10156000802008601EE06068B0F5A02F0DD1D8483B
:101570000838006840F48020D549083908600846DA
:10158000006840F4803008600CE0D14808380068FA
:1015900020F48030CE49083908600846006820F4FD
:1015A0008020086000BF606890B1FFF765FD0546C8
:1015B00006E0FFF761FD401B642801D903208EE798
:1015C000C34808380068C0F340400028F1D011E05B
:1015D000FFF752FD054606E0FFF74EFD401B64286D
:1015E00001D903207BE7BA4808380068C0F34040BF
:1015F0000028F1D1207800F00200022869D1B44817
:10160000006800F00C0058B1B148006800F00C0010
:1016100008281CD1AE48001F006800F48000B0B953
:10162000AB4808380068C0F3400020B1E0680128EA
:1016300001D0012053E7A6480838006820F0F800E0
:10164000216940EAC100A2490839086041E0E06828
:1016500028B39F480838006840F001009C490839C9
:101660000860FFF709FD054606E0FFF705FD401B92
:10167000022801D9032032E7954808380068C0F3F2
:1016800040000028F1D092480838006820F0F800A7
:10169000216940EAC1008E490839086019E08C4888
:1016A0000838006820F00100894908390860FFF710
:1016B000E3FC054606E0FFF7DFFC401B022801D9EA
:1016C00003200CE7824808380068C0F34000002877
:1016D000F1D1207800F00800082836D16069D0B137
:1016E0007B486C30006840F0010079496C3108603B
:1016F000FFF7C2FC054606E0FFF7BEFC401B0228D0
:1017000001D90320EBE672486C300068C0F340005A
:101710000028F1D019E06E486C30006820F001001C
:101720006B496C310860FFF7A7FC054606E0FFF740
:10173000A3FC401B022801D90320D0E664486C308A
:101740000068C0F340000028F1D1207800F00400C8
:10175000042874D15E483830006800F0805080B9A9
:1017600000BF5B483830006840F08050584938313D
:1017700008600846006800F08050009000BF00BF7D
:1017800001275448006800F48070B0B951480068DF
:1017900040F480704F490860FFF76EFC054606E094
:1017A000FFF76AFC401B642801D9032097E64948EB
:1017B000006800F480700028F2D000BFA068012803
:1017C00008D143486830006840F001004049683162
:1017D00008602DE0A06868B93D486830006820F0D6
:1017E00001003B49683108600846006820F00400A9
:1017F00008601DE0A06805280DD1354868300068F4
:1018000040F004003249683108600846006840F042
:10181000010008600CE02E486830006820F00100EC
:101820002B49683108600846006820F00400086011
:1018300000BFA068A8B1FFF71FFC054609E02EE035
:10184000FFF71AFC401B41F28831884201D903207E
:1018500045E61F4868300068C0F340000028EFD01C
:1018600013E0FFF709FC054608E0FFF705FC401B05
:1018700041F28831884201D9032030E614486830AB
:101880000068C0F340000028EFD1012F07D11048B5
:101890003830006820F080500D4938310860A06968
:1018A000002854D00A48006800F00C00082867D0CF
:1018B000A06902284CD106480838006820F08070E2
:1018C000034908390860FFF7D7FB05460BE0000025
:1018D0000838024000700040FFF7CEFB401B022892
:1018E00001D90320FBE53F480068C0F340600028B1
:1018F000F2D1D4E907010843616A40EA811101226B
:10190000A06AC2EB500041EA00412C20005D41EA90
:1019100000613020005D41EA00703249091D086015
:10192000081F006840F08070091F0860FFF7A4FBE3
:10193000054606E0FFF7A0FB401B022801D9032063
:10194000CDE528480068C0F340600028F2D047E0A9
:101950002448006820F0807022490860FFF78CFB63
:10196000054606E0FFF788FB401B022801D903204B
:10197000B5E51C480068C0F340600028F2D12FE0B4
:101980001848001D0668A069012827D006F48001C8
:10199000E069814222D106F03F01206A81421DD1D7
:1019A00047F6C0703040616AB0EB811F16D106F473
:1019B00040310122A06AC2EB5000B1EB004F0DD1C3
:1019C00006F070612C20005DB1EB006F06D106F0CF
:1019D000E0413020005DB1EB007F01D001207EE5C9
:1019E00000207CE50038024070B504462546681E9C
:1019F000B0F1807F01D301200FE0681E4FF0E0219D
:101A000048610F214FF0FF3000F0DEFF00204FF063
:101A1000E021886107200861002070BD10B50346F1
:101A2000002200BF93F83C00012801D1022010BD24
:101A3000012083F83C0000BF22F0FF00CC6840EAA0
:101A4000040222F440708C6840EA040222F48060B0
:101A50004C6840EA040222F400600C6840EA040288
:101A600022F480500C6940EA040222F400504C69D0
:101A700040EA040222F480408C6A40EA040222F424
:101A800070200C8B40EA04420F4C1868A04203D02F
:101A90000E4C1868A0420ED122F470008C8C40EAE3
:101AA000045222F08070CC6940EA040222F00070F7
:101AB0000C6A40EA04021868426400BF002083F800
:101AC0003C0000BF00BFB2E700000140000401403D
:101AD00030B502460B4600BF92F83C00012801D108
:101AE000022030BD012082F83C0000BF022082F8B5
:101AF0003D001068416810688468214D1068A84254
:101B000003D0204D1068A84203D121F47001586819
:101B1000014321F070011868014310684160184DBD
:101B20001068A8421BD01068B0F1804F17D0164D36
:101B30001068A84213D0154D1068A8420FD0144D5C
:101B40001068A8420BD00F4D1068A84207D0114D65
:101B50001068A84203D0104D1068A84205D124F0A7
:101B600080049868044310688460012082F83D0076
:101B700000BF002082F83C0000BF00BFB1E70000BA
:101B80000000014000040140000400400008004043
:101B9000000C0040004001400018004010B5044611
:101BA0000CB9012010BD94F83D0028B9002084F83C
:101BB0003C00204600F02AF8022084F83D00211D58
:101BC000206800F043FD012084F8480000BF84F83D
:101BD0003E0001213F200155402001554120015583
:101BE000422001554320015500BF00BF012084F869
:101BF000440045200155462001554720015500BFAE
:101C0000012084F83D000020CCE7000008B5094A17
:101C1000016891420DD100BF0749096841F01001E8
:101C2000054A11601146096801F01001009100BFDA
:101C300000BF08BD001000404038024010B586B01B
:101C40000446142101A8FEF72DFB114920688842A3
:101C50001BD100BF0F48006840F010000D4908601C
:101C60000846006800F01000009000BF00BF4FF46D
:101C7000C0400190022002900020039004900120B7
:101C8000059001A90448FFF7E5F806B010BD000073
:101C900000000140303802400010024070B5044698
:101CA0000D46164600BF94F83C00012801D10220E1
:101CB00070BD012084F83C0000BF0C2E51D005DC23
:101CC0004EB1042E1ED0082E7AD133E0102E60D0F3
:101CD000142EF9D175E02946206800F035FD206802
:101CE000806940F00800216888612068806920F0E0
:101CF0000400216888612068806929690843216897
:101D0000886177E02946206800F058FD20688069E6
:101D100040F40060216888612068806920F4806058
:101D20002168886120688069296940EA012021686A
:101D300088615FE02946206800F080FD2068C06966
:101D400040F008002168C8612068C06920F00400E4
:101D50002168C8612068C069296908432168C86191
:101D600048E02946206800F0A7FD2068C06940F4DB
:101D700000602168C8612068C06920F48060216823
:101D8000C8612068C069296940EA01202168C861EA
:101D900030E02946206800F0BBFD2068406D40F02F
:101DA0000800216848652068406D20F00400216823
:101DB00048652068406D296908432168486519E035
:101DC00017E02946206800F0CBFD2068406D40F404
:101DD0000060216848652068406D20F480602168BB
:101DE00048652068406D296940EA012021684865FE
:101DF00000E000BF00BF00BF002084F83C0000BF2F
:101E000000BF55E710B504460CB9012010BD94F889
:101E10003D0028B9002084F83C00204600F02AF854
:101E2000022084F83D00211D206800F00FFC0120F5
:101E300084F8480000BF84F83E0001213F2001558E
:101E400040200155412001554220015543200155B4
:101E500000BF00BF012084F8440045200155462002
:101E600001554720015500BF012084F83D000020A6
:101E7000CCE7000008B5094A016891420DD100BFC6
:101E80000749096841F00101054A116011460968D6
:101E900001F00101009100BF00BF08BD000001403A
:101EA0004438024070B504460D4615B994F83E001A
:101EB00015E0042D02D13F20005D10E0082D02D175
:101EC0004020005D0BE00C2D02D14120005D06E0BA
:101ED000102D02D14220005D01E04320005D012869
:101EE00001D0012070BD1DB9022084F83E001AE027
:101EF000042D03D102213F20015514E0082D03D108
:101F00000221402001550EE00C2D03D10221412079
:101F1000015508E0102D03D102214220015502E0B5
:101F200002214320015501222946206800F0FAFBD6
:101F300025492068884203D024492068884201D17D
:101F4000012000E0002028B12068406C40F40040EF
:101F5000216848641C49206888421BD02068B0F181
:101F6000804F17D01A492068884213D01949206839
:101F700088420FD01849206888420BD01349206846
:101F8000884207D015492068884203D01449206848
:101F9000884210D120688068124900EA0106062EA6
:101FA0000FD0B6F5803F0CD02068006840F00100EB
:101FB0002168086005E02068006840F001002168A1
:101FC000086000208EE7000000000140000401408E
:101FD0000004004000080040000C004000400140A8
:101FE000001800400700010000BFFEE71FB50020F9
:101FF00000900190029003901748184908604FF430
:10200000803048600021154881600161816180F85D
:1020100020104FF08051C1624FF050618162002169
:10202000C1600121C161002180F8301001214161AE
:10203000FEF73CFC08B1FEF74AFA002000900120B0
:1020400001900020029069460448FEF757FA08B153
:10205000FEF73DFA1FBD00000020014048000020AF
:102060001FB5002000900190029003901748184976
:1020700008604FF48030486000211548816001619C
:10208000816180F820104FF08051C1624FF05061A3
:1020900081620021C1600121C161002180F83010FE
:1020A00001214161FEF702FC08B1FEF710FA0020A1
:1020B0000090012001900020029069460448FEF73C
:1020C0001DFA08B1FEF703FA1FBD00000021014010
:1020D000900000201FB50020009001900290039016
:1020E0001748184908604FF48030486000211548AF
:1020F00081600161816180F820104FF08051C162E0
:102100004FF0506181620021C1600121C161002155
:1021100080F8301001214161FEF7C8FB08B1FEF7DD
:10212000D6F900200090012001900020029069461D
:102130000448FEF7E3F908B1FEF7C9F91FBD000036
:1021400000220140D800002000B587B0142102A869
:10215000FEF7A8F800BF8848006840F004008649F0
:1021600008600846006800F00400019000BF00BF4E
:1021700000BF0846006840F080000860084600681C
:1021800000F08000019000BF00BF00BF084600685B
:1021900040F0010008600846006800F0010001906E
:1021A00000BF00BF00BF0846006840F002000860A2
:1021B0000846006800F00200019000BF00BF00BFA9
:1021C0000846006840F0100008600846006800F00B
:1021D0001000019000BF00BF00BF0846006840F03B
:1021E000080008600846006800F00800019000BF81
:1021F00000BF00BF0846006840F040000860084685
:10220000006800F04000019000BF00BF002244F2CF
:1022100081015A48FEF72AFF002240215848FEF764
:1022200025FF4FF400500290564803900020049080
:1022300002A95548FEF70EFE3220029002200390BC
:1022400000200490032005900B20069002A94E4820
:10225000FEF700FE862002900220039000200490EA
:10226000032005900B20069002A94848FEF7F2FDD6
:1022700044F2810002900120039000200490059018
:1022800002A93E48FEF7E6FD4FF4005002900220FE
:10229000039000200490032005900B20069002A9D3
:1022A0003648FEF7D7FD4FF44070029002200390AD
:1022B00000200490032005900720069002A93448CE
:1022C000FEF7C8FD402002900120039000200490FA
:1022D000059002A92A48FEF7BDFD8020029000204B
:1022E0000390049002A92648FEF7B4FD4FF4E8508D
:1022F00002900220039000200490032005900A2001
:10230000069002A92148FEF7A5FD4FF40070029047
:1023100000200390049002A91C48FEF79BFD4FF497
:10232000007002901B4803900020049002A91448FA
:10233000FEF790FD4FF42050029002200390002001
:102340000490032005900B20069002A90C48FEF78C
:1023500081FD002201211720FEF702FF1720FEF762
:10236000EFFE002211462820FEF7FAFE2820FEF795
:10237000E7FE07B000BD0000303802400004024014
:102380000018024000001110000802400000024046
:10239000000C02400000311000B595B000201290F2
:1023A000139014901C210BA8FDF77CFF2C2168468C
:1023B000FDF778FF2B482C49086000204860002179
:1023C000294881606421C16000210161416180214F
:1023D0008161FFF717FD08B1FEF779F80020129030
:1023E0001390149012A92048FFF772FB08B1FEF772
:1023F0006EF860200B9032200C9000200D900E9013
:102400000F901090119008220BA91748FFF746FC77
:1024100008B1FEF75CF80C220BA91348FFF73EFC4D
:1024200008B1FEF754F8002000900190029003904C
:1024300004904FF4005005900020069007904FF054
:1024400000700890002009900A9069460648FFF73E
:10245000E5FA08B1FEF73BF80348FFF7EFFB15B0CC
:1024600000BD000000000140200100200EB500204A
:102470000090019002900F480F490860FF204860CB
:1024800000210D4881604FF47A51C1608021816143
:10249000FFF784FB08B1FEF71AF820200090002017
:1024A000029069460448FFF713FB08B1FEF70FF8E6
:1024B0000EBD0000001000406C01002000BFFEE7D0
:1024C00000BFFEE71FB588B00E9C14F1640F01DB5E
:1024D000642C01DD0CB010BD0A9820B90B9810B91E
:1024E000002C00DAF6E764210898C1602048FFF765
:1024F00089FC08B1FDF7EBFF1C2101A8FDF7D2FE16
:1025000060200190201E01DB014600E04142029163
:102510000A9808B90B98C0B1DDE90A01FDF7DAFFA6
:10252000002C09DA02200390BDF82C2091B2012280
:102530000A98FEF79BFD08E000200390BDF82C20D0
:1025400091B200220A98FEF791FD002005900690B6
:10255000079001A9DDE90802FFF7A0FB08B1FDF72C
:10256000B6FFDDE90801FFF79DFC00BFB2E7000000
:10257000200100207047704710B5FEF783FD10BDA5
:1025800000B593B0342106A8FDF78CFE142101A8F4
:10259000FDF788FE00BF2648006840F080502449BF
:1025A00008600846006800F08050009000BF00BF3F
:1025B00000BF2048006840F440401E4908600846BB
:1025C000006800F44040009000BF00BF0220069069
:1025D0000120099010200A9002200C9000210D91FA
:1025E00008210E91D8210F9102211091119106A876
:1025F000FEF770FF08B1FDF76AFFFEF703FE08B1B2
:10260000FDF765FF0F20019002200290002003904B
:102610004FF4A05004904FF480500590072101A87A
:10262000FEF738FE08B1FDF752FF13B000BD000001
:1026300040380240007000400348006840F47000D9
:10264000014908607047000088ED00E010B502689D
:10265000294B98420ED0B0F1804F0BD0274B9842B7
:1026600008D0274B984205D0264B984202D0264BE3
:10267000984203D122F070024B681A431E4B9842D5
:1026800020D0B0F1804F1DD01C4B98421AD01C4B6B
:10269000984217D01B4B984214D01B4B984211D034
:1026A0001A4B98420ED01A4B98420BD0194B9842B5
:1026B00008D0194B984205D0184B984202D0184BBD
:1026C000984203D122F44072CB681A4322F080036F
:1026D0004C6943EA040202608B68C3620B68836240
:1026E000054B984202D0084B984201D10B69036315
:1026F0000123436110BD00000000014000040040C0
:1027000000080040000C004000040140004001406F
:10271000004401400048014000180040001C0040F7
:102720000020004030B501F01F05012404FA05F334
:10273000046A9C430462046A01F01F0502FA05F56D
:102740002C43046230BD000030B5056A25F0010558
:102750000562026A43688469154D2C4024F0030425
:102760000D682C4322F002028D682A43114DA842C5
:1027700000D103E0104DA84206D100BF22F00802AC
:10278000CD682A4322F004020A4DA84202D00A4D25
:10279000A84207D123F4807323F400734D692B43BF
:1027A0008D692B43436084614D684563026230BD8F
:1027B0008FFFFEFF000001400004014030B5056AB4
:1027C00025F010050562026A43688469184D2C40A3
:1027D00024F440740D6844EA052422F020028D6838
:1027E00042EA0512134DA84200D103E0124DA8425F
:1027F00007D100BF22F08002CD6842EA051222F024
:1028000040020C4DA84202D00B4DA84209D123F43E
:10281000806323F400634D6943EA85038D6943EACD
:102820008503436084614D688563026230BD0000AA
:10283000FF8FFFFE000001400004014030B5056A33
:1028400025F480750562026A4368C469174D2C40FF
:1028500024F003040D682C4322F400728D6842EAD0
:102860000522134DA84200D103E0124DA84207D122
:1028700000BF22F40062CD6842EA052222F48062A1
:102880000B4DA84202D00B4DA84209D123F480532E
:1028900023F400534D6943EA05138D6943EA051398
:1028A0004360C4614D68C563026230BD8FFFFEFFA7
:1028B000000001400004014030B5056A25F4805550
:1028C0000562036A4468C2690E4D2A4022F44072D0
:1028D0000D6842EA052223F400538D6843EA05336C
:1028E000094DA84202D0094DA84204D124F48044E5
:1028F0004D6944EA85144460C2614D680564036211
:1029000030BD0000FF8FFFFE0000014000040140C9
:1029100030B5056A25F480350562026A4368446D66
:102920000C4D2C400D682C4322F400320D8942EAF4
:102930000542094DA84202D0084DA84204D123F413
:1029400080334D6943EA0523436044654D688565DE
:10295000026230BD8FFFFEFF000001400004014015
:1029600030B5056A25F480150562026A4368446D36
:102970000D4D2C400D6844EA052422F400120D8907
:1029800042EA0552094DA84202D0094DA84204D19D
:1029900023F480234D6943EA8523436044654D68F1
:1029A000C565026230BD0000FF8FFFFE00000140E0
:1029B0000004014000BFFEE702480068C0F30220A7
:1029C000704700000CED00E010B5002804DB0A079A
:1029D000130E054A135406E00A07140E034A00F0CA
:1029E0000F031B1FD45410BD00E400E018ED00E0FD
:1029F00002E008C8121F08C1002AFAD170477047C8
:102A0000002001E001C1121F002AFBD1704703B56D
:102A100085B00020019002900390049006980190E8
:102A2000012002900020039001A90598FDF766FDA2
:102A300008B1FDF74CFD0598FEF728F907B000BD79
:102A40002DED028B8CB0FEF729FBFFF799FDFFF708
:102A50007BFBFFF7CBFAFFF709FDFFF701FBFFF761
:102A600039FBFFF799FC274803C8CDE90A0125493E
:102A7000083103C9CDE90801DDE90A01CDE9040106
:102A8000DDE90801CDE906011E20009004A80FC869
:102A9000FFF718FD6FF04500009004A80FC8FFF77E
:102AA00011FD1849103103C9CDE90201DDE9020128
:102AB000FFF7ADFF24E01448FEF748F84FF0FF3170
:102AC0001148FDF7DBFF1048FDF731FE80B208EE3C
:102AD000100AB8EE480AB7EEC00A9FED0C1B80EE54
:102AE000012BBDEEC20B10EE100A44B2009404A8F4
:102AF0000FC8FFF7E7FC4FF47A70FEF76FF900BFDD
:102B0000D9E70000142B0008480000207B14AE47D2
:102B1000E17A444020010020000000000010024043
:102B200000800000480000200100000000000000BC
:102B3000000000000102030406070809000000006D
:102B400001020304642B00080000002018000000AC
:102B5000F02900087C2B000818000020A0050000C8
:102B6000002A000800000000000000000000000033
:0C2B700010000000010000000024F40030
:04000005080001F9F5
:00000001FF
