:020000040800F2
:100000008005002011020008B31B0008C917000872
:10001000B11B000879040008AD20000800000000B2
:10002000000000000000000000000000A31C000809
:100030007B04000800000000A11C0008A51C0008AB
:100040002B0200082B0200082B0200082B020008DC
:100050002B0200082B0200082B0200082B020008CC
:100060002B0200082B0200082B0200082B020008BC
:100070002B0200082B0200082B0200082B020008AC
:100080002B0200082B0200081D0300082B020008A9
:100090002B0200082B0200082B0200082B0200088C
:1000A0002B0200082B0200082B0200082B0200087C
:1000B0002B0200082B0200082B0200082B0200086C
:1000C0002B0200082B0200082B0200082B0200085C
:1000D0002B0200082B0200082B0200082B0200084C
:1000E0007D0400082B0200082B0200082B020008E8
:1000F0002B0200082B0200082B0200082B0200082C
:100100002B0200082B0200082B0200082B0200081B
:100110002B0200082B0200082B0200082B0200080B
:100120002B0200082B0200082B0200082B020008FB
:100130002B0200082B0200082B0200082B020008EB
:100140002B0200082B0200082B0200082B020008DB
:100150002B0200082B0200082B0200082B020008CB
:100160002B0200082B0200082B0200082B020008BB
:100170002B0200082B0200082B02000800000000E0
:100180002B0200082B0200082B0200082B0200089B
:100190002B0200082B0200082B0200082B0200088B
:1001A0002B0200082B0200082B0200082B0200087B
:1001B0002B0200082B0200082B0200082B0200086B
:1001C0002B0200082B020008000000002B02000890
:1001D0002B0200082B0200082B0200082B0200084B
:1001E0002B0200082B0200082B0200082B0200083B
:1001F0002B0200082B020008DFF810D000F07CF87A
:100200000048004735210008AFF30080800500203A
:100210000648804706480047FEE7FEE7FEE7FEE7A0
:10022000FEE7FEE7FEE7FEE7FEE7FEE7491D000802
:10023000F90100082DE9F05F0546002092469B4633
:1002400088460646814640241BE0284641464746EC
:10025000224600F041F853465A46C01A914110D345
:1002600011461846224600F028F82D1A67EB0108BF
:100270004F4622460120002100F01FF817EB00092D
:100280004E41201EA4F10104DFDC484631462A46D7
:100290004346BDE8F09FD2B201E000F8012B491EB1
:1002A000FBD270470022F6E710B513460A46044613
:1002B0001946FFF7F0FF204610BD202A04DB203A44
:1002C00000FA02F1002070479140C2F1200320FAA9
:1002D00003F3194390407047202A04DB203A21FAA7
:1002E00002F00021704721FA02F3D040C2F120024F
:1002F0009140084319467047064C074D06E0E068F8
:1003000040F0010394E8070098471034AC42F6D35C
:10031000FFF776FF4C2200086C220008054810B554
:1003200000F0A1F9044800F09EF9BDE81040034830
:1003300000F099B91000002058000020A000002013
:100340004A496FF0706210B5D1F8043323F440339A
:10035000C1F80433D1F8043344682343C1F80433AB
:1003600001684B6823F480734B60016803694C6833
:1003700044EA03234B6001684B6823F040734B60F1
:10038000016884684B6823434B6001688B6823F4E1
:1003900000638B600168C4688B6823438B60816A4B
:1003A000D14201688A6822F070628A6001680DD0CB
:1003B000836A8A681A438A6001688A6822F0405218
:1003C0008A600168C36A8A681A4302E08A6822F078
:1003D00040528A6001688A6822F002028A600168DD
:1003E00082698B6843EA42028A6090F820100029F3
:1003F000016811D01E4A4B6843F400634B600168EA
:100400004B6823F460434B600168446A4B6802EB1D
:10041000443213434B6003E04A6822F400624A60AE
:100420000168144BCA6A22F47002CA620168848BA4
:10043000CA6A03EB04531A43CA6201688A6822F449
:1004400000728A60016890F830208B6843EA42228B
:100450008A6001688A6822F480628A600168406963
:100460008A6842EA8020886010BD000000200140B8
:1004700000E0FFFF0000F0FFFEE770474FF4005080
:1004800000F0DCBA72B6FEE730B585B004460D4622
:1004900068461421FFF706FF002000950121CDE9F1
:1004A000011069460390204600F0D4FA05B030BD33
:1004B00070470000F8B50025009590F83C20012A0F
:1004C0001DD0012280F83C20604C0723D6070A6823
:1004D000092A22D9B24220D007680A3A02EB420C1C
:1004E000FA6803FA0CF39A43FA600A68A24208D148
:1004F00002680B7AD76847EA0363D36022E00220E0
:10050000F8BD07680A3A8B6802EB4202D7F80CC0C4
:10051000934043EA0C03FB6014E0076802EB4202DD
:10052000D7F810C093402CEA030CC7F810C003683A
:100530000F788A68D3F810C007EB4707BA4042EA41
:100540000C021A614A681F23072A16D20768521E36
:1005500002EB820C7A6B03FA0CF39A437A6302681B
:100560000F790B887F1ED2F834C09BB207EB870748
:10057000BB4043EA0C0353632DE007680D2A15D2F4
:10058000D21F02EB820C3A6B03FA0CF39A433A63E4
:1005900002680F790B88FF1FD2F830C09BB207EBBF
:1005A0008707BB4043EA0C03136314E00D3A02EBE8
:1005B000820CFA6A03FA0CF39A43FA6202680F7922
:1005C0000B880D3FD2F82CC09BB207EB8707BB40CE
:1005D00043EA0C03D3621E4A0368934208D10B68B6
:1005E000B34205D1D2F8043323F44003C2F80433F4
:1005F0000368934208D10B68122B05D1D2F804335B
:1006000043F48003C2F80433036893421AD10B68A1
:10061000A34201D0112B15D1D2F8043343F40003C7
:10062000C2F804330968A1420CD10A490A4A096890
:10063000B1FBF2F101EB8101490000E0491E00919C
:100640000029FBD180F83C500020F8BD12000010BA
:10065000002001400C00002040420F00704770470E
:100660000068C06C704770B5044600680168426855
:10067000C1F34001C2F3401251B34AB3216CC90621
:1006800003D4216C41F400712164816811F0405F52
:1006900017D1A169A9B9C16A11F4700F02D081689C
:1006A00049050ED4416821F020014160206C20F4FE
:1006B00080702064206CC00403D4206C40F00100E2
:1006C00020642046FFF7CAFF21686FF0120008601F
:1006D000206801684268C1F38001C2F3C01289B387
:1006E00082B3216CC90603D4216C41F4005121640A
:1006F000816811F4401F1ED1816B11F4401F02D09C
:100700008168490517D44168490514D4816811F0FE
:10071000405F10D1A16971B9416821F08001416049
:10072000206C20F480502064206CC00503D4206C21
:1007300040F0010020642046FFF7BAFE21686FF008
:100740000C00086020680168436811F0010FC3F3D2
:1007500080110ED069B10068C0070AD0206C40F447
:1007600080302064204600F046F821686FF00100D8
:100770000860206801684268C1F340110029C2F393
:1007800080620DD0002A0BD0616C6FF0200541F023
:100790000201616405602046FFF761FF2068056083
:1007A00070BD70B504004FF0000503D0206C00262A
:1007B00010B107E0012070BD204600F01DF866640E
:1007C00084F83C60206CC00610D4206C20F4885063
:1007D00040F0020020642046FFF7B2FD6664206C02
:1007E00020F0020040F00100206400E0012584F8C0
:1007F0003C60284670BD7047F0B587B004461421B0
:100800006846FFF74FFD204A0023266801251F4F49
:10081000143A1D4903241E48BE4207D10E6846F40F
:1008200080760E60096801F4807109E0194FBE42BC
:100830001FD10E6846F400760E60096801F400715D
:100840000591116841F0010111601168009501F0F6
:1008500001010591CDE90143694600F0FBF8002252
:100860001220114600F048FA122000F037FA07B0C3
:10087000F0BD094FBE42FAD10E6846F480660E60A4
:10088000096801F48061DBE7443802400020014040
:100890000000024000210140002201402DE9F0410A
:1008A000044600680D460027816849050BD580681D
:1008B000C00508D5206C84F83C7040F0200020640E
:1008C0000120BDE8F08100F0B7F9064613E0681C8E
:1008D00011D025B100F0B0F9801BA8420BD92068D7
:1008E0000068800707D4206C84F83C7040F0040056
:1008F00020640320E5E7206800688007E7D52168C9
:100900006FF012000860206C40F4007020642068D2
:10091000816811F0405F13D1A16989B9C16A11F4EE
:10092000700F02D0806840050AD4206C20F48070DB
:100930002064206CC00403D4206C40F001002064CB
:100940000020BEE718B50021009190F83C20012A54
:1009500007D0012280F83C2002689368DB0702D0B0
:1009600011E0022018BD94682F4B44F001049460FC
:100970002E4A1268B2FBF3F202EB420200E0521E72
:100980000092002AFBD103689A68D20741D0026C1A
:1009900040F20164A24342F4807202645A68520534
:1009A00005D5026C22F4005242F480520264026CBB
:1009B000D20404D5426C22F00602426400E0416495
:1009C0006FF022041A4A80F83C101C60D2F804131D
:1009D000C90607D0016891420AD18B6813F0405FC5
:1009E00002D005E000680BE08B6843F080438B6029
:1009F000D2F80413C90614D400680E49884210D1F5
:100A0000816811F0405F0CD1816841F080418160C4
:100A100007E0016C41F010010164416C41F00101FB
:100A20004164002018BD000040420F000C0000206F
:100A3000002001400022014070470000044910B529
:100A40000A68024202D00860FFF7F6FF10BD0000FE
:100A5000143C01402DE9F84F00224FF001094FF0FE
:100A6000030A4FF00F0E00BF0B6809FA02F423408F
:100A7000A34270D14D68012D05D0022D03D0112D58
:100A800001D0122D11D185685700CE680AFA07FCF3
:100A900025EA0C05BE402E43866045680E79A543C5
:100AA000C6F3001696402E434660C56856008F6810
:100AB0000AFA06F4A543B7402F43C7604D68022DDC
:100AC00001D0122D12D1D5080F694FEA427C00EBFC
:100AD0008505AB462D6A4FEADC6C0EFA0CF807FA76
:100AE0000CF725EA08052F43CBF820700D7907682D
:100AF00005F00305A743B5403D4305604C68E4009D
:100B000074D53D4C256845F480452560246822F065
:100B10000307960704F480440094384C360F2744AA
:100B2000D7F80848DFF8D8C00EFA06F5604524EA81
:100B3000050401D100252EE0324DA84201D1012546
:100B400029E0314DA84201D1022524E02F4DA842D1
:100B500002D103251FE049E02D4DA84201D1042513
:100B600019E02C4DA84201D1052514E02A4DA842D8
:100B700001D106250FE0294DA84201D107250AE041
:100B8000274DA84201D1082505E0264DA84201D1F4
:100B9000092500E00A25B540234E2543C7F808582B
:100BA0004D683468ED0324EA030400D51C431E4D50
:100BB00034602D1D4E682C68B60324EA030400D56A
:100BC0001C43194E2C6008364D683468ED0224EA47
:100BD000030400D51C43144D34600C354E682C685A
:100BE000B60224EA030400D51C432C60521C102AD0
:100BF000FFF43AAFBDE8F88F4438024000300140BE
:100C0000000002400004024000080240000C0240C4
:100C1000001002400014024000180240001C024074
:100C20000020024000240240003C01400AB18161E2
:100C300070470904FBE70000014880687047000026
:100C400000000020024881680278114481607047EA
:100C500000000020032010B500F06EF8002000F026
:100C600005F800F023F8002010BD000070B50D4D10
:100C700004464FF47A700C4A29781268B0FBF1F000
:100C8000B2FBF0F000F02AFB48B9102C07D200228A
:100C90002146501E00F030F800206C6070BD01202D
:100CA00070BD0000000000200C0000200A4808B5BC
:100CB000016841F080510160006800F080500090B0
:100CC0000548001D016841F480410160006800F49E
:100CD0008040009008BD000040380240002809DB39
:100CE000410900F01F028900012001F1E02190403C
:100CF000C1F80001704700000E4BF0B41B680D46B0
:100D0000C3F30223C3F10706042E00D90426191DDC
:100D1000072901D2002300E0DB1E012404FA06F1BA
:100D20009C40491E2940641E994014402143F0BC58
:100D300001F0BDB90CED00E0064900F0070210B566
:100D40004FF6FF040868044B204040EA0220184395
:100D5000086010BD0CED00E00000FA051848F8B579
:100D6000016841F0805101600068164C00F080502D
:100D70000090206840F480302060FFF75DFF4FF462
:100D80007A76054605E000BFFFF756FF401BB042EC
:100D90000FD86068C003F7D5206840F400302060A9
:100DA000FFF74AFF054606E0FFF746FF401BB0424B
:100DB00001D90320F8BD60688003F5D50020F8BD97
:100DC00040380240007000402DE9F04705000F4612
:100DD00063D0444E306800F00F00B84209D230684A
:100DE00020F00F0038433060306800F00F00B84248
:100DF00053D128683C4C810712D5400703D52068A1
:100E000040F4E05020602878000703D5206840F4C3
:100E100060402060A968206820F0F000084320604E
:100E20002878C0072AD0304968680839012810D0CE
:100E30000968022810D0890700292EDA216821F0DC
:100E4000030101432160FFF7F7FE804641F2883934
:100E50000DE009688903EFE78901EDE7FFF7ECFE94
:100E6000A0EB0801494502D90320BDE8F087686876
:100E7000216801F00C01B1EB800FEFD1306800F078
:100E80000F00B8420BD9306820F00F0038433060B3
:100E9000306800F00F00B84201D00120E5E7287863
:100EA000400705D5E968206820F4E0500843206039
:100EB0002878000706D52869216821F4604141EAB5
:100EC000C000206000F018F82168084AC1F303113F
:100ED000515CC8400649086006480068FFF7C6FE36
:100EE0000020C2E7003C0240083802403C220008D3
:100EF0000C00002004000020104910B510480968BB
:100F000011F00C0118D0042916D0082914D10B4C6B
:100F1000241F22682168216802F03F020023C1F3E8
:100F20008811A1FB0001FFF785F92168C1F3014198
:100F3000491C4900B0FBF1F010BD00000838024028
:100F40000024F4002DE9F84F04004FF000076ED0A4
:100F50002078DFF87CA3AAF10408C007A8F10405F3
:100F60004CD0DAF800105046C1F38101012908D0B5
:100F70000068C0F3810002280AD1D8F800004002BE
:100F800006D52868800339D560680028DFD035E0B1
:100F90006068B0F5803F0BD010B1B0F5A02F11D034
:100FA000286820F480302860286820F4802002E03F
:100FB000286840F480302860606890B1FFF73CFEFC
:100FC00006460AE0286840F480202860F0E700BF69
:100FD000FFF732FE801B642872D828688003F7D59B
:100FE0000CE0FFF729FE064605E000BFFFF724FEF0
:100FF000801B6428F0D828688003F7D42078800705
:1010000042D5DAF80010504611F00C0F08D00068F5
:10101000C0F3810002280BD1D8F80000400207D4A9
:101020002868800718D5E068012800D114E04AE15B
:10103000E0680028286817D040F001002860FFF71A
:10104000FBFD064605E000BFFFF7F6FD801B02280A
:10105000C2D828688007F7D52069296821F0F801EF
:1010600041EAC00028600FE020F001002860FFF78F
:10107000E3FD064605E000BFFFF7DEFD801B02280A
:101080001ED828688007F7D42078000729D5904813
:1010900061696C3000298146016812D041F001017C
:1010A0000160FFF7C9FD064605E000BFFFF7C4FD7C
:1010B000801B022804D8D9F800008007F6D510E07C
:1010C00089E021F001010160FFF7B6FD064604E06A
:1010D000FFF7B2FD801B02287DD8D9F800008007F9
:1010E000F6D4207840076BD5DFF8E49109F1380990
:1010F000D9F80000C0000BD4D9F8001041F080519D
:10110000C9F80010D9F80000012700F080500090C5
:1011100070480168C90512D40168834641F48071A2
:101120000160FFF789FD064605E000BFFFF784FD7B
:10113000801B64284FD8DBF80000C005F6D5644E4C
:10114000A068683601280AD008B1052811D0306897
:1011500020F001003060306820F0040002E03068C8
:1011600040F001003060A068A0B1FFF765FD834644
:101170000CE0306840F004003060F0E7FFF75CFD01
:10118000A0EB0B0141F28830814268D830688007BB
:10119000F4D50EE0FFF750FD834607E0FFF74CFD66
:1011A000A0EB0B0141F28830814258D830688007AB
:1011B000F4D42FB1D9F8001021F08051C9F80010F3
:1011C000A069E0B3DAF80010C1F3810102294DD023
:1011D0000228286800E042E020F08070286003D0F8
:1011E000FFF72AFD04463DE0FFF726FD064604E032
:1011F000FFF722FD801B022831D828688001F7D430
:10120000D4E90921DFF8D0C0D4E9070694F83030DA
:101210004F0894F82C1030430CEB074444EA821238
:10122000104340EA016040EA0370C8F800002868F3
:1012300040F080702860FFF7FFFC044605E044E0C2
:10124000FFF7FAFC001B022809D828688001F7D5AF
:101250003BE000BFFFF7F0FC001B022802D903208F
:10126000BDE8F88F28688001F4D42EE00128D8F872
:10127000000028D0E16900F480028A4223D1216A6B
:1012800000F03F028A421ED1626A47F6C0710140F7
:10129000B1EB821F17D1A16A4FF0FF3200F4403347
:1012A00002EB5101B3EB014F0DD194F82C1000F07B
:1012B0007062B2EB016F06D194F8301000F0E0409C
:1012C000B0EB017F01D00120CAE70020C8E7000091
:1012D00008380240007000400000FFFF401EB0F1DF
:1012E000807F10B501D3012010BD4FF0E024606174
:1012F0000F21601700F0DBFE0020A06107212161B3
:1013000010BD00002DE9F04390F83C20012A42D0A6
:10131000012280F83C2051F80C4BDFF880804FF020
:10132000000991E8680051E9022723F44073B1F8FD
:101330000CC03B43CF6923F480631343026823F45A
:101340000063234323F4805343EA050323F400534B
:1013500043EA060323F4804343EA07030C3923F4EA
:101360007023424543EA0C4302D00D4CA2420CD1FB
:101370008D8C23F47006D1E9073446EA055121F03B
:101380008071194321F000732343536480F83C902B
:101390000020BDE8F0830220FBE7000000000140D0
:1013A00000040140F0B590F83C20012A3BD01F4ECC
:1013B000012480F83C40022280F83D2002681C4D48
:1013C0005368B242D2F808C001D0AA4203D14F6894
:1013D00023F470033B430F6823F070031F435760EF
:1013E0000268B24213D0B2F1804F10D0114B9A4232
:1013F0000DD0114B9A420AD0104B9A4207D0AA4204
:1014000005D00F4B9A4202D00E4B9A4204D1896804
:101410002CF0800319439160002180F83D4080F852
:101420003C100846F0BD0220F0BD00000000014065
:10143000000401400004004000080040000C00408F
:10144000004001400018004010B5040003D094F89B
:101450003D0010B107E0012010BD002084F83C00E1
:10146000204600F023F8022084F83D002068211D6A
:1014700000F072FC012084F8480084F83E0084F8F3
:101480003F0084F8400084F8410084F8420084F86A
:10149000430084F8440084F8450084F8460084F84A
:1014A000470084F83D00002010BD000008B500682A
:1014B0000649884208D10648016841F010010160E0
:1014C000006800F01000009008BD0000001000400F
:1014D0004038024010B586B0044614216846FEF735
:1014E000E1FE0E492068884216D10D48016841F09E
:1014F0001001016000680123022200F01000059035
:1015000000204FF4C04100916946CDE90120CDE9AA
:1015100003030448FFF79EFA06B010BD0000014027
:10152000303802400010024070B5044690F83C008C
:101530000D4601280BD0012084F83C000C2A45D030
:1015400007DC5AB1042A1BD0082A78D12CE00220EB
:1015500070BD102A4ED0142A71D15DE0206800F0D1
:101560006FFC2068816941F0080181612068816910
:1015700021F00401816120682A698169114311E029
:10158000206800F097FC2068816941F40061816166
:101590002068816921F480618161206829698269FC
:1015A00042EA012181614AE0206800F0BFFC206826
:1015B000C16941F00801C1612068C16921F00401DD
:1015C000C16120682A69C169114311E0206800F0F7
:1015D000E9FC2068C16941F40061C1612068C1690A
:1015E00021F48061C16120682969C26942EA012150
:1015F000C16124E0206800F001FD2068416D41F0E8
:10160000080141652068416D21F0040141652068B1
:101610002A69416D114311E0206800F01BFD20682C
:10162000416D41F4006141652068416D21F48061A4
:10163000416520682969426D42EA01214165002027
:1016400084F83C0070BD10B5040003D094F83D0050
:1016500010B107E0012010BD002084F83C002046B6
:1016600000F022F8022084F83D002068211D00F0DF
:1016700073FB012084F8480084F83E0084F83F00A2
:1016800084F8400084F8410084F8420084F8430064
:1016900084F8440084F8450084F8460084F8470044
:1016A00084F83D00002010BD08B500680649884256
:1016B00008D10648016841F001010160006800F0AE
:1016C0000100009008BD00000000014044380240C5
:1016D00010B504464FF0020269B1042912D008295E
:1016E00017D00C291CD0102921D094F843000128D0
:1016F00024D0012010BD94F83E000128F9D184F8CF
:101700003E201DE094F83F000128F2D184F83F20EC
:1017100016E094F840000128EBD184F840200FE057
:1017200094F841000128E4D184F8412008E094F8BD
:1017300042000128DDD184F8422001E084F84320F2
:101740000122206800F06EFB17492068174A884282
:1017500001D0904203D1436C43F4004343642068BA
:10176000884213D0B0F1804F10D0114988420DD07B
:10177000104988420AD01049884207D0904205D0CB
:101780000E49884202D00E49884207D181680D4A2D
:101790001140062906D0B1F5803F03D0016841F021
:1017A00001010160002010BD000001400004014063
:1017B0000004004000080040000C004000400140D0
:1017C0000018004007000100FEE700007FB5164842
:1017D000002401251349009401942A0402940394DF
:1017E000130301604FF05061C0E90124046184617A
:1017F00080F82040C561C460C0E90A1380F8304019
:101800004561FEF7CEFF08B1FEF73CFE064869468B
:10181000CDE900450294FEF74DFE002801D0FEF709
:1018200031FE7FBD00200140100000207FB516482A
:10183000002401251349009401942A0402940B0505
:10184000039401604FF05061C0E901240461846198
:1018500080F82040C561C460C0E90A1380F83040B8
:101860004561FEF79EFF08B1FEF70CFE064869468B
:10187000CDE900450294FEF71DFE002801D0FEF7D9
:1018800001FE7FBD00210140580000207FB51648B1
:10189000002401251349009401942A040294CB04E6
:1018A000039401604FF05061C0E901240461846138
:1018B00080F82040C561C460C0E90A1380F8304058
:1018C0004561FEF76EFF08B1FEF7DCFD064869468C
:1018D000CDE900450294FEF7EDFD002801D0FEF7AA
:1018E000D1FD7FBD00220140A00000202DE9F04F76
:1018F00087B014216846FEF7D5FC6348016841F0C3
:1019000004010160016801F004010591016841F0E2
:1019100080010160016801F080010591016841F0DA
:1019200001010160016801F001010591016841F0C8
:1019300002010160016801F002010591016841F0B6
:1019400010010160016801F010010591016841F08A
:1019500008010160016801F008010591016841F08A
:1019600040010160006844F2810ADFF820B10022E2
:1019700000F04000514605905846FFF757F944489B
:1019800000224021FFF752F900244249DFF8089174
:101990004FF40058CDF80080CDE90114694648465F
:1019A000FFF758F802256946322002AACDE9000562
:1019B000032648460B2782E8D000FFF74BF8862025
:1019C000694602AACDE90005344882E8D000FFF755
:1019D00041F84FF00109CDF800A0CDE90194694626
:1019E00058460394FFF736F802AA6946584682E83B
:1019F000D000CDE90085FFF72DF830020294CDE943
:101A0000000507206946CDE903602548FFF722F865
:101A100040210091CDE901941D4869460394FFF7E8
:101A200019F880206946CDE9000419480294FFF7AF
:101A300011F84FF4E85000900A206946CDE90360A0
:101A40001648CDE90154FFF705F828026946CDE9AB
:101A5000000412480294FEF7FDFF4FF4205069463F
:101A600002AACDE900050A4882E8D000FEF7F2FF9D
:101A7000002228201146FFF73FF92820FFF72EF912
:101A800007B0BDE8F08F000030380240000402408B
:101A9000001802400000111000080240000002403F
:101AA000000C024010B596B000241C210BA8129423
:101AB00013941494FEF7F6FB2C216846FEF7F2FB14
:101AC0002748642225498023C0E90014C0E9024266
:101AD0000461C0E90543FFF7B6FD08B1FEF7D2FC8B
:101AE0001F4812A9129413941494FFF75BFC08B1D9
:101AF000FEF7C8FC0BAA6020322182E813001848C8
:101B000008220BA90E940F9410941194FFF70CFD6A
:101B100008B1FEF7B7FC12480C220BA9FFF704FD31
:101B200008B1FEF7AFFC4FF400500094019401039C
:101B30000294CDE9044003940694CDE90741084896
:101B4000694609940A94FFF7DDFB08B1FEF79AFC99
:101B50000348FFF7BFFC16B010BD000000000140B5
:101B6000E80000203EB5114800244FF47A520E4D93
:101B7000FF2300940194802102948161C0E9024214
:101B8000C0E90053FFF760FC08B1FEF77BFC2020A2
:101B90000090064869460294FFF704FC002801D033
:101BA000FEF770FC3EBD0000001000403401002034
:101BB000FEE7FEE770B5642A164688B004460D4677
:101BC0001FD86420E0601048FFF73DFD08B1FEF724
:101BD00059FC1C216846FEF765FB00202A4660215F
:101BE00000916946CDE90160049005900690204679
:101BF000FFF79AFC08B1FEF745FC29462046FFF79F
:101C000067FD08B070BD0000E80000202DE9F0413C
:101C100088B005460E46174698460E9C04F16400AF
:101C2000C92838D26420E8601C48FFF70CFD08B1D1
:101C3000FEF728FC1C216846FEF734FB602000906C
:101C4000002C01DB204600E060424146019038460E
:101C5000FEF71AFC002C4FF0000406DA0220029076
:101C60001FFA88F13846012204E01FFA88F138464D
:101C700000220294FEF7DAFF3246284669460494B1
:101C800005940694FFF750FC08B1FEF7FBFB3146C4
:101C90002846FFF71DFD08B0BDE8F081E8000020F0
:101CA00070477047FEF7CEBF30B593B03421684619
:101CB000FEF7F8FA14210DA8FEF7F4FA204801689F
:101CC00041F080510160006800F0805012901D4882
:101CD000016841F440410160006800250DF1200CCD
:101CE000022400940822D823CDE9064500F44040A0
:101CF000129010218CE81C0001200B94CDE9030107
:101D00006846FFF71FF908B172B6FEE7FFF726F83D
:101D100008B172B6FEE74FF480524FF4A0510F2085
:101D2000CDE910120DAA072182E831000DA8FFF7B6
:101D30004BF8002801D072B6FEE713B030BD0000AA
:101D400040380240007000400248016841F47001D0
:101D50000160704788ED00E0F0B5274B4FF0804EF2
:101D6000264D02689842264E264F274C09D07045D2
:101D700007D0A84205D0B04203D0B84201D0A0425B
:101D800005D1D1F804C022F070024CEA0202984258
:101D90001BD0704519D0A84217D0B04215D0B84218
:101DA00013D0A04211D0194DA8420ED0184DA84210
:101DB0000BD0184DA84208D0174DA84205D0174D9A
:101DC000A84202D0164DA84203D1CD6822F4407239
:101DD0002A434D6922F080022A43026098428A68B1
:101DE000C2620A68826201D0A04201D1096901631E
:101DF00001214161F0BD00000000014000040040ED
:101E000000080040000C0040000401400040014078
:101E1000004401400048014000180040001C004000
:101E20000020004010B5046A012301F01F018B401F
:101E30009C4304628A40016A1143016210BD0000A4
:101E4000F0B5026ADFF860C0184F22F00102DFF837
:101E500060E00262066A4268836926F002060D6845
:101E6000B8428C6803EA0C0323F0030344EA060437
:101E700045EA030501D0704505D1CB6824F008047C
:101E8000234323F00404B84201D0704505D122F465
:101E90004076D1E9053233431A434260856149688F
:101EA00041630462F0BD00008FFFFEFF00000140AF
:101EB00000040140F0B5026A194E1A4C22F01002DB
:101EC000DFF864E00262056A4368826925F0200554
:101ED000D1F808C0A0420F6802EA060222F440725C
:101EE00045EA0C1542EA072201D0704506D1CE68BA
:101EF00025F0800545EA061525F04005A04201D0F1
:101F0000704507D1D1E9054623F4406343EA8403D1
:101F100043EA860343608261496881630562F0BDDC
:101F2000FF8FFFFE0000014000040140F0B5026A8F
:101F3000194F1A4E22F48072DFF864E00262056ADB
:101F40004368C26925F40075D1F808C0B0420C6836
:101F500002EA070222F0030245EA0C2544EA0204E1
:101F600001D0704506D1CF6825F4006242EA07220D
:101F700022F48065B04201D0704507D123F440526D
:101F8000D1E9053642EA031242EA06134360C4610E
:101F90004968C1630562F0BD8FFFFEFF000001408C
:101FA00000040140F0B5026A124B114F22F4805236
:101FB00098420262046A4268C36924F400548E683D
:101FC0000D6803EA070323F4407344EA063443EA46
:101FD000052302D0084DA84204D14D6922F4804265
:101FE00042EA85124260C361496801640462F0BD3F
:101FF000FF8FFFFE0000014000040140F0B5026ABF
:10200000DFF844C022F480320262056A4268446DFF
:1020100025F400350E8960450C4F0B6804EA07046F
:1020200045EA064543EA040302D0094CA04204D124
:102030004C6922F4803242EA0422426043654968D6
:1020400081650562F0BD0000000001408FFFFEFFCA
:1020500000040140F0B5026ADFF844C022F48012A7
:102060000262046A4268436D24F400140E896045DC
:102070000C4F0D6803EA070344EA065443EA0523BC
:1020800002D0094DA84204D14D6922F4802242EACF
:102090008522426043654968C1650462F0BD000065
:1020A00000000140FF8FFFFE00040140FEE709072A
:1020B00000284FEA116104DB00F1E02080F80014F1
:1020C000704700F00F0000F1E02080F8141D704709
:1020D00002E008C8121F08C1002AFAD170477047F1
:1020E000002001E001C1121F002AFBD170471FB57B
:1020F000012300220292CDE9001369460392FEF704
:10210000D9F9002801D0FEF7BDF91FBD10B504466E
:10211000FFF7EDFF2046FEF715FC20464FF0FF319C
:10212000FEF7BCFB08B1002010BD2046FEF798FA70
:1021300080B210BD08B5FEF78DFDFFF7B5FDFFF7C6
:10214000D5FBFFF743FBFFF70DFDFFF76FFBFFF735
:102150009DFBFFF7A7FC25480C21FFF7B9FA2348A0
:102160000C21FFF7B5FADFF888B05C46D4E903A686
:10217000D4E90585D4E90001DBF80890DBF81C7090
:10218000FFF7C4FF51464846FFF7C0FF41463046BF
:10219000FFF7BCFF39462846FFF7B8FF20343C2242
:1021A00094E86300203CFFF705FD1E2231462846D7
:1021B000FFF700FD3C22D4E90C01FFF7FBFC3834AB
:1021C0001E2094E8E000E4683A4631462346009039
:1021D0002846FFF71BFD6FF0450023463A4631467F
:1021E00000902846FFF712FDBFE70000E80000203E
:1021F000F421000810000020010000001000002061
:1022000002000000580000200001000058000020DB
:1022100000020000E800002008000000E8000020A4
:102220000C000000E800002008000000E80000208A
:102230000800000000000240010000000000000053
:102240000000000001020304060708096C220008D0
:102250000000002010000000D02000087C220008B0
:102260001000002070050000E020000801000000C0
:0C22700010000000000000000024F4003A
:04000005080001F9F5
:00000001FF
