:020000040800F2
:1000000048080020110200084D300008CF2B0008DE
:1000100049300008B9040008213D00080000000034
:100020000000000000000000000000000331000894
:10003000BD0400080000000001310008053100087F
:100040002B0200082B0200082B0200082B020008DC
:100050002B0200082B0200082B0200082B020008CC
:100060002B0200082B0200082B0200082B020008BC
:100070002B0200082B0200082B0200082B020008AC
:100080002B0200082B020008390300082B0200088D
:100090002B0200082B0200082B020008CB040008EA
:1000A0002B0200082B0200082B0200082B0200087C
:1000B0002B0200082B0200082B0200082B0200086C
:1000C0002B0200082B0200082B0200082B0200085C
:1000D0002B0200082B020008013D0008113D00081A
:1000E000BF0400082B0200082B0200082B020008A6
:1000F0002B0200082B0200082B0200082B0200082C
:100100002B0200082B0200082B0200082B0200081B
:100110002B0200082B0200082B0200082B0200080B
:100120002B0200082B0200082B0200082B020008FB
:100130002B0200082B0200082B0200082B020008EB
:100140002B0200082B0200082B0200082B020008DB
:100150002B0200082B0200082B0200082B020008CB
:100160002B0200082B0200082B0200082B020008BB
:100170002B0200082B0200082B02000800000000E0
:100180002B0200082B0200082B0200082B0200089B
:100190002B0200082B0200082B0200082B0200088B
:1001A0002B0200082B0200082B0200082B0200087B
:1001B0002B0200082B0200082B0200082B0200086B
:1001C0002B0200082B020008000000002B02000890
:1001D0002B0200082B0200082B0200082B0200084B
:1001E0002B0200082B0200082B0200082B0200083B
:1001F0002B0200082B020008DFF810D000F08AF86C
:1002000000480047113F0008AFF300804808002075
:100210000648804706480047FEE7FEE7FEE7FEE7A0
:10022000FEE7FEE7FEE7FEE7FEE7FEE7E531000852
:10023000F90100082DE9F05F0546002092469B4633
:1002400088460646814640241BE0284641464746EC
:10025000224600F04FF853465A46C01A914110D337
:1002600011461846224600F036F82D1A67EB0108B1
:100270004F4622460120002100F02DF817EB00091F
:100280004E41201EA4F10104DFDC484631462A46D7
:100290004346BDE8F09FD2B201E000F8012B491EB1
:1002A000FBD270470022F6E710B513460A46044613
:1002B0001946FFF7F0FF204610BD10B5002200E000
:1002C000521C835C8C5CA34201D1002BF8D1D8B2C4
:1002D000E1B2401A10BD202A04DB203A00FA02F1F4
:1002E000002070479140C2F1200320FA03F3194324
:1002F00090407047202A04DB203A21FA02F00021C6
:10030000704721FA02F3D040C2F120029140084325
:1003100019467047064C074D06E0E06840F00103BF
:1003200094E8070098471034AC42F6D3FFF768FF13
:10033000504400087044000810B5024800F0D4F999
:1003400010BD0000100100205849096821F4403117
:10035000574AC2F804131146D1F8041342681143F6
:10036000524A11600168496821F480710268516045
:1003700001684A68016942EA012102685160016826
:10038000496821F0407102685160016849688268DB
:100390001143026851600168896821F400610268B4
:1003A000916001688968C268114302689160414A9E
:1003B000816A914218D00168896821F070610268F1
:1003C000916001688968826A1143026891600168DE
:1003D000896821F040510268916001688968C26AA9
:1003E0001143026891600BE00168896821F0706137
:1003F000026891600168896821F04051026891604B
:100400000168896821F002010268916001688A68C8
:10041000816942EA4101026891602021095CA1B131
:100420000168496841F400610268516001684968E7
:1004300021F460410268516001684A68416A491EBE
:1004400042EA41310268516005E00168496821F4DF
:100450000061026851600168C96A21F47001026894
:10046000D1620168CA6A818B491E42EA0151026861
:10047000D1620168896821F40071026891600168A5
:100480008A6890F8301042EA412102689160016860
:10049000896821F480610268916001688A68416915
:1004A00042EA812102689160704700000423014004
:1004B000002001400100000F00BFFEE7704710B5AB
:1004C0004FF4005000F02CFC10BD10B54FF400703C
:1004D00000F026FC10BD72B600BFFEE703B585B084
:1004E00014216846FFF7DEFE069800900120019077
:1004F0000020029003906946059800F01FFC07B0A9
:1005000000BD704718B502460020009000BF92F869
:100510003C00012801D1022018BD012082F83C00D6
:1005200000BF0868092826D90868B0F1004F22D01A
:100530001068C0680B780A3B03EB43040723A34011
:1005400098431368D860604B0868984207D11068D8
:10055000C0680B7A40EA03601368D8601FE00B782C
:100560000A3B03EB4303886898401368DB68184331
:100570001368D86013E0106800690B7803EB43043C
:100580000723A3409843136818610B7803EB4303D8
:100590008868984013681B69184313681861486895
:1005A000072817D21068406B0B795B1E03EB83049E
:1005B0001F23A340984313685863088880B20B79BF
:1005C0005B1E03EB8303984013685B6B184313684F
:1005D000586331E048680D2817D21068006B0B791A
:1005E000DB1F03EB83041F23A340984313681863A6
:1005F000088880B20B79DB1F03EB830398401368F4
:100600001B6B18431368186316E01068C06A0B79F7
:100610000D3B03EB83041F23A34098431368D86268
:10062000088880B20B790D3B03EB83039840136875
:10063000DB6A18431368D862244B1068984209D1CA
:100640000868B0F1004F05D12148006820F440004F
:10065000C3F804031D4B1068984208D1086812289B
:1006600005D11B48006840F48000C3F80403174B11
:100670001068984220D1144B0868984202D008684C
:10068000112819D11248006840F40000104B18607E
:100690000D4B086898420FD10E4800680E4BB0FB16
:1006A000F3F000EB80004000009002E00098401E54
:1006B000009000980028F9D100BF002082F83C008B
:1006C00000BF00BF28E7000012000010002001401A
:1006D000042301406800002040420F00704770472B
:1006E00001460868C06C704770B5044600250026B6
:1006F00020680068C0F3400520684068C0F34016D9
:1007000095B38EB3206C00F0100018B9206C40F443
:10071000007020642068806800F04050E8B9A0694B
:10072000D8B92068C06A00F4700020B120688068E1
:1007300000F4806088B92068406820F020002168BB
:100740004860206C20F480702064206C00F480509D
:1007500018B9206C40F0010020642046FFF7BEFF6E
:100760006FF012002168086020680068C0F38005FF
:1007700020684068C0F3C016E5B3DEB3206C00F01B
:10078000100018B9206C40F4005020642068806884
:1007900000F4401038BB2068806B00F4401020B19A
:1007A0002068806800F48060E8B92068406800F440
:1007B0008060C0B92068806800F0405098B9A06996
:1007C00088B92068406820F0800021684860206C6B
:1007D00020F480502064206C00F4807018B9206CE4
:1007E00040F0010020642046FFF78BFE6FF00C0004
:1007F000216808602068006800F0010520684068F2
:10080000C0F3801685B17EB12068006800F0010059
:1008100050B1206C40F480302064204600F052F843
:100820006FF001002168086020680068C0F340157F
:1008300020684068C0F380667DB176B1606C40F09E
:10084000020060646FF02000216808602046FFF716
:1008500046FF6FF020002168086070BD70B5044647
:1008600000250CB9012070BD1549A06A884200D04E
:1008700000BF206C30B9204600F026F800206064EC
:1008800084F83C00206C00F0100088B9206C20F443
:10089000885040F0020020642046FFF755FD0020FC
:1008A0006064206C20F0020040F00100206400E051
:1008B000012500BF002084F83C0000BF2846D2E795
:1008C0000100000F7047000010B586B004461421E7
:1008D00001A8FFF7E7FC3249206888425DD100BFDC
:1008E0003048006840F480702E490860084600686F
:1008F00000F48070009000BF00BF00BF294814388A
:10090000006840F004002749143908600846006870
:1009100000F00400009000BF00BF00BF0846006860
:1009200040F0010008600846006800F001000090F7
:1009300000BF00BF00BF0846006840F0020008602A
:100940000846006800F00200009000BF00BF0420CD
:100950000190032002900020039001A9124800F0AA
:10096000EDF941200190032002900020039001A99D
:100970000E4800F0E3F902200190032002900020CD
:10098000039001A90A4800F0D9F90022114612206B
:1009900000F062FB122000F04FFB06B010BD00001B
:1009A000002001404438024000080240000002409C
:1009B0000004024070B504460D4600262068806899
:1009C00000F48060B0F5806F11D12068806800F479
:1009D0008070B0F5807F0AD1206C40F02000206448
:1009E00000BF002084F83C0000BF012070BD00F073
:1009F000BFFA064618E0681CB0B125B100F0B8FA9D
:100A0000801BA84210D92068006800F0020002286C
:100A10000AD0206C40F00400206400BF002084F85D
:100A20003C0000BF0320E1E72068006800F00200FE
:100A30000228E0D16FF0120021680860206C40F4B9
:100A4000007020642068806800F04050B8B9A06948
:100A5000A8B92068C06A00F4700020B120688068DE
:100A600000F4806058B9206C20F480702064206C01
:100A700000F4805018B9206C40F001002064002080
:100A8000B4E7000008B501460020009000BF91F8CF
:100A90003C00012801D1022008BD012081F83C0062
:100AA00000BF0868806800F00100A0B9086880688D
:100AB00040F001000A6890603D4800683D4AB0FB84
:100AC000F2F000EB4000009002E00098401E009021
:100AD00000980028F9D10868806800F0010000281B
:100AE0005CD0086C40F20162904340F4807008646E
:100AF0000868406800F4806028B1086C20F4005059
:100B000040F480500864086C00F48050B0F5805FB9
:100B100004D1486C20F00600486401E000204864DD
:100B200000BF002081F83C0000BF6FF022000A687F
:100B300010602148006800F01F0058B908688068FC
:100B400000F0405048BB0868806840F080400A6868
:100B500090602BE0194A086890420AD108688068C2
:100B600000F0405028B90868806840F080400A686A
:100B700090601148006800F0100070B9104A0868D1
:100B8000904213D10868806800F0405028B9086886
:100B9000806840F080400A68906007E0086C40F090
:100BA00010000864486C40F001004864002073E7BE
:100BB0006800002040420F00042301400020014053
:100BC00000220140014600BF91F83C00012801D1FC
:100BD00002207047012081F83C0000BF086880684F
:100BE00020F001000A6890600868806800F0010049
:100BF00028B9086C20F4885040F00100086400BF58
:100C0000002081F83C0000BF00BFE2E770B5044659
:100C1000A56D00F0ADF9064694F83500022808D01D
:100C20008020606500BF002084F8340000BF0120F0
:100C300070BD2068006820F01600216808602068F8
:100C4000406920F0800021684861206C08B9A06CE0
:100C500028B12068006820F008002168086020683A
:100C6000006820F00100216808600FE000F080F9C2
:100C7000801B05280AD92020606500BF002084F869
:100C8000340000BF032084F83500D1E720680068F5
:100C900000F001000028E9D194F85C103F20884062
:100CA000A86000BF002084F8340000BF012084F851
:100CB00035000020BCE7014691F83500022803D03A
:100CC0008020486501207047052081F835000868BC
:100CD000006820F001000A6810600020F3E70000BF
:100CE00070B5044600F044F906462546681C10B16C
:100CF00004480078054400BF00F03AF9801BA84280
:100D0000FAD370BD6400002010B50446B4F5007F2E
:100D100002D1024803F04CFB10BD0000700000201F
:100D200010B5044604480068204020B10248046021
:100D30002046FFF7E9FF10BD143C0140F8B502461C
:100D40000B46002100250024002000BFE4E001261E
:100D500006FA01F51E6806EA0504AC4271D15E6828
:100D6000012E08D05E68022E05D05E68112E02D0DA
:100D70005E68122E13D190684F000326BE40B04328
:100D80004F00DE68BE4030439060506801268E40C0
:100D9000B0431E79C6F300168E4030435060D068D1
:100DA0004F000326BE40B0434F009E68BE40304314
:100DB000D0605E68022E02D05E68122E13D1CF087A
:100DC00002F1200656F827004E07F70E0F26BE4008
:100DD000B0434F07FF0E1E69BE403043CF0802F1FB
:100DE000200646F8270010684F000326BE40B04397
:100DF0001E7906F003064F00BE40304310605E6867
:100E000006F08056B6F1805FA8D100BF444E366828
:100E100046F48046424F3E603E46366806F48046C1
:100E2000009600BF00BF3F4E8F0856F827008E0780
:100E3000370F0F26BE40B0433B4EB24202D10026D0
:100E40002EE068E0394EB24201D1012628E0384E4A
:100E5000B24201D1022623E0364EB24201D103262E
:100E60001EE0354EB24201D1042619E0334EB242A3
:100E700001D1052614E0324EB24201D106260FE020
:100E8000304EB24201D107260AE02F4EB24201D1C4
:100E9000082605E02D4EB24201D1092600E00A26BF
:100EA0008F073F0FBE4030431E4E8F0846F8270085
:100EB000274E3068A0435E6806F48036B6F5803F62
:100EC00000D12043224E3060361D3068A0435E685A
:100ED00006F40036B6F5003F00D120431C4E361D07
:100EE0003060361D3068A0435E6806F48016B6F5A3
:100EF000801F00D12043164E08363060361D306802
:100F0000A0435E6806F40016B6F5001F00D120432A
:100F10000F4E0C363060491C1029FFF418AFF8BD95
:100F200044380240083801400000024000040240FA
:100F300000080240000C0240001002400014024071
:100F400000180240001C0240002002400024024021
:100F5000003C0140024613690B400BB1012000E048
:100F6000002070470AB1816101E00B048361704782
:100F700001480068704700005C00002003480068DA
:100F80000349097808440149086070475C00002063
:100F90006400002010B5032000F09CF8002000F051
:100FA00005F800F029F8002010BD000070B50446D7
:100FB0000E4800784FF47A71B1FBF0F00C490968E3
:100FC000B1FBF0F5284601F05FF808B1012070BDD3
:100FD000102C07D200222146501E00F03DF8054893
:100FE000046001E00120F2E70020F0E76400002047
:100FF000680000206000002008B500BF0D480068B0
:1010000040F080500B4908600846006800F08050AE
:10101000009000BF00BF00BF081D006840F4804082
:10102000091D08600846006800F48040009000BF79
:1010300000BF08BD4038024001460846002809DBD1
:1010400000F01F0301229A4043099B0003F1E023B3
:10105000C3F8002100BF70472DE9F05F80460D46C0
:101060001646002702F066FE074639462A463346F2
:1010700001F00700C0F1070ABAF1040F02D94FF0DE
:10108000040A01E0C0F1070AD14600F1040ABAF1EE
:10109000070F02D24FF0000A01E0A0F1030AD44684
:1010A0004FF0010A0AFA09FAAAF1010A0AEA020A49
:1010B0000AFA0CFA4FF0010B0BFA0CFBABF1010B27
:1010C0000BEA030B4AEA0B042146404602F03AFEC3
:1010D000BDE8F09F00BF00F00702064B19684FF60D
:1010E000FF031940044B0B4343EA0221014B1960F3
:1010F00000BF70470CED00E00000FA0538B5002491
:1011000000BF2048006840F080501E490860084633
:10111000006800F08050009000BF00BF1A480068CF
:1011200040F4803018490860FFF722FF044607E0CA
:10113000FFF71EFF001BB0F57A7F01D9032038BDF1
:101140001148406800F48030B0F5803FF0D10E487F
:10115000006840F400300C490860FFF709FF0446BE
:1011600007E0FFF705FF001BB0F57A7F01D90320E8
:10117000E5E70548406800F40030B0F5003FF0D1E5
:101180000020DCE740380240007000402DE9F843C1
:101190000446002600250027A846A946207800F02E
:1011A000010088B100BFFE48006820F40000FC493F
:1011B000086008460068616B0843F949086000BF91
:1011C000606B08B94FF00108206800F40020B0F50A
:1011D000002F13D1F2488430006820F44010E16BF6
:1011E0000843EF4984310860E06BB0F5801F01D1FE
:1011F0004FF00108E06B08B94FF00109206800F4D6
:101200008010B0F5801F13D1E5488430006820F4C9
:101210004000216C0843E24984310860206CB0F53D
:10122000800F01D14FF00108206C08B94FF001097F
:10123000206800F08070B0F1807F01D14FF001088C
:10124000207800F02000202870D100BFD44838302A
:10125000006840F08050D249383108600846006884
:1012600000F08050009000BF00BFCE48006840F4FE
:101270008070CC490860FFF77BFE064607E0FFF769
:1012800077FE801B642802D90320BDE8F883C54897
:10129000006800F480700028F1D0C1486830006810
:1012A00000F4407585B3208E00F44070A8422BD026
:1012B000BB486830006820F44075B9486830006861
:1012C00040F48030B649683108600846006820F470
:1012D0008030086008460560006800F0010098B1A1
:1012E000FFF746FE064608E0FFF742FE801B41F28C
:1012F0008831884201D90320C7E7A94868300068CF
:10130000C0F340000028EFD000BF208E00F44070F2
:10131000B0F5407F0BD1A248006820F4F810A24A33
:10132000216B114008439E49086006E010E09C488C
:10133000006820F4F8109A490860994868300068FD
:10134000218EC1F30B01084395496831086000BF45
:10135000207800F01000102810D100BF9048843091
:10136000006820F080708E4984310860084600686B
:10137000A16B08438A498431086000BF208800F4CB
:101380008040B0F5804F09D185488830006820F44E
:101390004030616E0843824988310860208800F43B
:1013A0000040B0F5004F09D17D488830006820F436
:1013B0004020A16E08437A4988310860206800F413
:1013C0008030B0F5803F09D175488830006820F43E
:1013D0004010E16E0843724988310860206800F4CB
:1013E0000030B0F5003F09D16D488830006820F426
:1013F0004000216F08436A4988310860207800F076
:101400004000402809D166488830006820F0030079
:10141000616C0843624988310860207800F08000E0
:10142000802809D15E488830006820F00C00A16C4B
:1014300008435B4988310860208800F48070B0F56B
:10144000807F09D156488830006820F03000E16C78
:101450000843534988310860208800F40070B0F5D3
:10146000007F09D14E488830006820F0C000216D0F
:1014700008434B4988310860208800F48060B0F54B
:10148000806F09D146488830006820F44070616D53
:101490000843434988310860208800F40060B0F5B3
:1014A000006F09D13E488830006820F44060A16D8B
:1014B00008433B4988310860208800F48050B0F52B
:1014C000805F09D136488830006820F44050E16DD3
:1014D0000843334988310860208800F40050B0F593
:1014E000005F09D12E488830006820F44040216E0A
:1014F00008432B4988310860206800F48000B0F56B
:10150000800F09D126488830006820F08060A16FE4
:101510000843234988310860206800F40010B0F5C2
:10152000001F0FD11E488830006820F00060E16F76
:1015300008431B4988310860E06FB0F1006F01D1AA
:101540004FF00109207800F00800082801D14FF081
:101550000109206800F48020B0F5802F09D11048DF
:101560008830006820F04070616F08430C49883172
:101570000860206800F40000B0F5000F0AD10848A8
:101580008830006820F08050D4F880100843044967
:1015900088310860206800F08060B0F1806F05E05D
:1015A0000838024000700040FFFCFF0F08D1CD4812
:1015B000006820F00050D4F884100843C94908603E
:1015C000206800F00060B0F1006F0AD1C548001F2C
:1015D000006820F00070D4F888100843C149091F42
:1015E0000860206800F08050B0F1805F0AD1BD48EB
:1015F000001F006820F08060D4F88C100843B949BF
:10160000091F0860B8F1010F05D0206800F00070D4
:10161000B0F1007F7ED1B3489038006820F0806040
:10162000B04990390860FFF7A3FC064606E0FFF7D3
:101630009FFC801B642801D9032026E6A948903826
:101640000068C0F3C0600028F1D1207800F00100EC
:10165000B8B1606BA8B9A3480C380068C0F3014565
:10166000A0480C380068C0F303676068800140EA56
:10167000054040EA0761207A41EA007099490C3937
:101680000860206800F40020B0F5002F03D1E06B63
:10169000B0F5801F09D0206800F48010B0F5801FDD
:1016A00024D1206CB0F5800F20D18E480C38006812
:1016B000C0F301458B480C380068C0F302776068BE
:1016C000800140EA0541207B41EA006040EA077062
:1016D00084490C3908608348001F006820F01F000F
:1016E000616A491E08437F49091F0860206800F0AD
:1016F0008070B0F1807F17D17A480C380068C0F351
:10170000036578480C380068C0F30277606881018F
:10171000208A00E036E041EA004040EA056040EA05
:10172000077070490C390860206800F00070B0F153
:10173000007F0DD160688101208A41EA0041207B51
:1017400041EA0061207A41EA007066490C3908607C
:1017500064489038006840F08060624990390860C1
:10176000FFF706FC064606E0FFF702FC801B642834
:1017700001D9032089E55B4890380068C0F3C06058
:101780000028F1D0B9F1010F7ED156489038006899
:1017900020F08050534990390860FFF7E9FB064676
:1017A00006E0FFF7E5FB801B642801D903206CE508
:1017B0004C4890380068C0F340700028F1D1206890
:1017C00000F40020B0F5002F01D1E06B38B12068A3
:1017D00000F48010B0F5801F22D1206C00BB41487E
:1017E00008380068C0F301453E4808380068C0F377
:1017F00002776069800140EA0541207E41EA00608D
:1018000040EA0770374908390860081D006820F46D
:10181000F851A06A401E41EA00203249091F0860C1
:10182000206800F40010B0F5001F19D1E06FB0F18E
:10183000006F15D12B4808380068C0F303652948AC
:1018400008380068C0F3027760698101208C41EAA2
:10185000004040EA056040EA077022490839086004
:10186000207800F00800082820D11E4808380068B9
:10187000C0F303651B4808380068C0F3014760697E
:10188000800140EA074000E02AE040EA0561207F4D
:1018900041EA0070134908390860081D006820F407
:1018A0004030E16A08430F49091F08600D4890382D
:1018B000006840F080500B4990390860FFF758FBF2
:1018C000064606E0FFF754FB801B642801D903207D
:1018D000DBE4044890380068C0F340700028F1D081
:1018E0000020D2E49038024070B504460D46002630
:1018F0000CB9012070BD5C48006800F00F00A842E0
:101900000ED25948006820F00F002843564908605D
:101910000846006800F00F00A84201D00120E9E766
:10192000207800F0020002281DD1207800F0040089
:10193000042805D14D48006840F4E0504B49086048
:10194000207800F00800082805D14848006840F4D5
:101950006040464908604548006820F0F000A168F2
:10196000084342490860207800F0010090B36068A5
:10197000012807D13D4808380068C0F34040A0B9AD
:101980000120B7E76068022807D1384808380068A6
:10199000C0F3406048B90120ACE73448083800681B
:1019A000C0F3400008B90120A4E73048006820F0E7
:1019B0000300616808432D490860FFF7D9FA06461D
:1019C00009E0FFF7D5FA801B41F28831884202D93D
:1019D00003208FE707E02548006800F00C006168ED
:1019E000B0EB810FEDD12048006800F00F00A84255
:1019F0000ED91D48006820F00F0028431A490860DE
:101A00000846006800F00F00A84201D0012071E7ED
:101A1000207800F00400042807D11448006820F45E
:101A2000E050E168084311490860207800F00800A0
:101A3000082808D10D48006820F46040216940EA78
:101A4000C1000A49086000F03FF808490968C1F37D
:101A50000311074A515CC8400649086006480068FF
:101A6000FFF7A4FA002045E7003C02400838024096
:101A70002044000868000020600000200148006841
:101A8000704700006800002000B5FFF7F7FF044929
:101A90000968C1F38221034A515CC84000BD0000BF
:101AA000083802403044000800B5FFF7E7FF04495A
:101AB0000968C1F34231034A515CC84000BD0000CF
:101AC00008380240304400082DE9F0470024002582
:101AD0000026A1462548006800F00C0020B104282B
:101AE00005D008283AD105E0DFF8849039E0DFF826
:101AF000809036E01D48001F006800F03F041B483E
:101B0000001F006800F4800078B119481749091FC8
:101B10000968C1F38811A0FB017001462246002329
:101B20003846FEF787FB05460EE011480F49091FAE
:101B30000968C1F38811A0FB017001462246002309
:101B40003846FEF777FB05460848001F0068C0F3DB
:101B50000140401C4600B5FBF6F902E0DFF81090AA
:101B600000BF00BF4846BDE8F087000008380240CB
:101B70000024F400F8B5044600270CB90120F8BD94
:101B8000207800F00100002871D0F948006800F0CA
:101B90000C0004280DD0F648006800F00C0008285E
:101BA00013D1F348001F006800F48000B0F5800FE7
:101BB0000BD1EF4808380068C0F34040002869D0D6
:101BC0006068002866D10120D9E700BF6068B0F5E1
:101BD000803F08D1E6480838006840F48030E44986
:101BE000083908602EE0606868B9E1480838006884
:101BF00020F48030DE49083908600846006820F487
:101C0000802008601EE06068B0F5A02F0DD1D84894
:101C10000838006840F48020D54908390860084633
:101C2000006840F4803008600CE0D1480838006853
:101C300020F48030CE49083908600846006820F456
:101C40008020086000BF606890B1FFF791F90546F9
:101C500006E0FFF78DF9401B642801D903208EE7C9
:101C6000C34808380068C0F340400028F1D011E0B4
:101C7000FFF77EF9054606E0FFF77AF9401B642876
:101C800001D903207BE7BA4808380068C0F3404018
:101C90000028F1D1207800F00200022869D1B44870
:101CA000006800F00C0058B1B148006800F00C006A
:101CB00008281CD1AE48001F006800F48000B0B9AD
:101CC000AB4808380068C0F3400020B1E068012844
:101CD00001D0012053E7A6480838006820F0F8003A
:101CE000216940EAC100A2490839086041E0E06882
:101CF00028B39F480838006840F001009C49083923
:101D00000860FFF735F9054606E0FFF731F9401B9B
:101D1000022801D9032032E7954808380068C0F34B
:101D200040000028F1D092480838006820F0F80000
:101D3000216940EAC1008E490839086019E08C48E1
:101D40000838006820F00100894908390860FFF769
:101D50000FF9054606E0FFF70BF9401B022801D9F1
:101D600003200CE7824808380068C0F340000028D0
:101D7000F1D1207800F00800082836D16069D0B190
:101D80007B486C30006840F0010079496C31086094
:101D9000FFF7EEF8054606E0FFF7EAF8401B0228D9
:101DA00001D90320EBE672486C300068C0F34000B4
:101DB0000028F1D019E06E486C30006820F0010076
:101DC0006B496C310860FFF7D3F8054606E0FFF772
:101DD000CFF8401B022801D90320D0E664486C30BC
:101DE0000068C0F340000028F1D1207800F0040022
:101DF000042874D15E483830006800F0805080B903
:101E000000BF5B483830006840F080505849383196
:101E100008600846006800F08050009000BF00BFD6
:101E200001275448006800F48070B0B95148006838
:101E300040F480704F490860FFF79AF8054606E0C5
:101E4000FFF796F8401B642801D9032097E649481C
:101E5000006800F480700028F2D000BFA06801285C
:101E600008D143486830006840F0010040496831BB
:101E700008602DE0A06868B93D486830006820F02F
:101E800001003B49683108600846006820F0040002
:101E900008601DE0A06805280DD13548683000684D
:101EA00040F004003249683108600846006840F09C
:101EB000010008600CE02E486830006820F0010046
:101EC0002B49683108600846006820F0040008606B
:101ED00000BFA068A8B1FFF74BF8054609E02EE067
:101EE000FFF746F8401B41F28831884201D90320B0
:101EF00045E61F4868300068C0F340000028EFD076
:101F000013E0FFF735F8054608E0FFF731F8401B0E
:101F100041F28831884201D9032030E61448683004
:101F20000068C0F340000028EFD1012F07D110480E
:101F30003830006820F080500D4938310860A069C1
:101F4000002854D00A48006800F00C00082867D028
:101F5000A06902284CD106480838006820F080703B
:101F6000034908390860FFF703F805460BE0000055
:101F70000838024000700040FEF7FAFF401B0228BC
:101F800001D90320FBE53F480068C0F3406000280A
:101F9000F2D1D4E907010843616A40EA81110122C4
:101FA000A06AC2EB500041EA00412C20005D41EAEA
:101FB00000613020005D41EA00703249091D08606F
:101FC000081F006840F08070091F0860FEF7D0FF0E
:101FD000054606E0FEF7CCFF401B022801D903208E
:101FE000CDE528480068C0F340600028F2D047E003
:101FF0002448006820F0807022490860FEF7B8FF8E
:10200000054606E0FEF7B4FF401B022801D9032075
:10201000B5E51C480068C0F340600028F2D12FE00D
:102020001848001D0668A069012827D006F4800121
:10203000E069814222D106F03F01206A81421DD130
:1020400047F6C0703040616AB0EB811F16D106F4CC
:1020500040310122A06AC2EB5000B1EB004F0DD11C
:1020600006F070612C20005DB1EB006F06D106F028
:10207000E0413020005DB1EB007F01D001207EE522
:1020800000207CE50038024070B504462546681EF5
:10209000B0F1807F01D301200FE0681E4FF0E021F6
:1020A00048610F214FF0FF3001F04CFE00204FF04F
:1020B000E021886107200861002070BD10B503464B
:1020C000002200BF93F83C00012801D1022010BD7E
:1020D000012083F83C0000BF22F0FF00CC6840EAFA
:1020E000040222F440708C6840EA040222F480600A
:1020F0004C6840EA040222F400600C6840EA0402E2
:1021000022F480500C6940EA040222F400504C6929
:1021100040EA040222F480408C6A40EA040222F47D
:1021200070200C8B40EA04420F4C1868A04203D088
:102130000E4C1868A0420ED122F470008C8C40EA3C
:10214000045222F08070CC6940EA040222F0007050
:102150000C6A40EA04021868426400BF002083F859
:102160003C0000BF00BFB2E7000001400004014096
:1021700030B502460B4600BF92F83C00012801D161
:10218000022030BD012082F83C0000BF022082F80E
:102190003D001068416810688468214D1068A842AD
:1021A00003D0204D1068A84203D121F47001586873
:1021B000014321F070011868014310684160184D17
:1021C0001068A8421BD01068B0F1804F17D0164D90
:1021D0001068A84213D0154D1068A8420FD0144DB6
:1021E0001068A8420BD00F4D1068A84207D0114DBF
:1021F0001068A84203D0104D1068A84205D124F001
:1022000080049868044310688460012082F83D00CF
:1022100000BF002082F83C0000BF00BFB1E7000013
:10222000000001400004014000040040000800409C
:10223000000C0040004001400018004010B504466A
:102240000CB9012010BD94F83D0028B9002084F895
:102250003C00204600F02AF8022084F83D00211DB1
:10226000206800F0C9FF012084F8480000BF84F80E
:102270003E0001213F2001554020015541200155DC
:10228000422001554320015500BF00BF012084F8C2
:10229000440045200155462001554720015500BF07
:1022A000012084F83D000020CCE7000008B5134A67
:1022B000016891420DD100BF1149096841F0100138
:1022C0000F4A11601146096801F01001009100BF2A
:1022D00013E00C4A016891420FD100BF0849091D63
:1022E000096841F40031064A121D1160114609685F
:1022F00001F40031009100BF00BF08BD0010004094
:10230000403802400044014010B586B00446142114
:1023100001A8FDF7C7FF1149206888421BD100BF03
:102320000F48006840F010000D490860084600683A
:1023300000F01000009000BF00BF4FF4C0400190BB
:10234000022002900020039004900120059001A932
:102350000448FEF7F3FC06B010BD00000000014089
:10236000303802400010024070B504460D46164653
:1023700000BF94F83C00012801D1022070BD01206B
:1023800084F83C0000BF0C2E51D005DC4EB1042E69
:102390001ED0082E7AD133E0102E60D0142EF9D141
:1023A00075E02946206800F0A5FF2068806940F0AC
:1023B0000800216888612068806920F00400216895
:1023C000886120688069296908432168886177E00D
:1023D0002946206800F0C8FF2068806940F400604A
:1023E000216888612068806920F4806021688861A4
:1023F00020688069296940EA0120216888615FE0DE
:102400002946206800F0F0FF2068C06940F008000D
:102410002168C8612068C06920F004002168C86193
:102420002068C069296908432168C86148E02946D5
:10243000206801F017F82068C06940F40060216846
:10244000C8612068C06920F480602168C861206884
:10245000C069296940EA01202168C86130E0294645
:10246000206801F02BF82068406D40F008002168DA
:1024700048652068406D20F00400216848652068A8
:10248000406D296908432168486519E017E029462D
:10249000206801F03BF82068406D40F4006021683E
:1024A00048652068406D20F4806021684865206898
:1024B000406D296940EA01202168486500E000BFBD
:1024C00000BF00BF002084F83C0000BF00BF55E7FC
:1024D00010B504460CB9012010BD94F83D0028B990
:1024E000002084F83C00204600F02AF8022084F8FE
:1024F0003D00211D206800F07FFE012084F8480087
:1025000000BF84F83E0001213F20015540200155C5
:1025100041200155422001554320015500BF00BF15
:10252000012084F8440045200155462001554720EC
:10253000015500BF012084F83D000020CCE70000D9
:1025400008B5094A016891420DD100BF07490968E1
:1025500041F00101054A11601146096801F00101CD
:10256000009100BF00BF08BD000001404438024098
:1025700070B504460D4615B994F83E0015E0042DDB
:1025800002D13F20005D10E0082D02D14020005D07
:102590000BE00C2D02D14120005D06E0102D02D190
:1025A0004220005D01E04320005D012801D00120B0
:1025B00070BD1DB9022084F83E001AE0042D03D13D
:1025C00002213F20015514E0082D03D102214020B3
:1025D00001550EE00C2D03D102214120015508E0E8
:1025E000102D03D102214220015502E00221432097
:1025F000015501222946206800F06AFE254920681D
:10260000884203D024492068884201D1012000E09B
:10261000002028B12068406C40F4004021684864E4
:102620001C49206888421BD02068B0F1804F17D029
:102630001A492068884213D01949206888420FD06F
:102640001849206888420BD013492068884207D077
:1026500015492068884203D014492068884210D167
:1026600020688068124900EA0106062E0FD0B6F5F0
:10267000803F0CD02068006840F0010021680860AD
:1026800005E02068006840F0010021680860002033
:102690008EE70000000001400004014000040040FB
:1026A00000080040000C00400040014000180040BD
:1026B0000700010070477047704700002DE9F047A0
:1026C00004462068C569206806682068876840F667
:1026D0000F0005EA0009B9F1000F0CD105F0200048
:1026E00048B106F0200030B1606E10B12046616E36
:1026F0008847BDE8F087B9F1000F7DD007F00100F1
:1027000018B99C4830400028F7D005F0010058B1B6
:1027100006F4807040B1012021680862D4F880007E
:1027200040F00100C4F8800005F0020058B107F045
:10273000010040B1022021680862D4F8800040F016
:102740000400C4F8800005F0040058B107F001004F
:1027500040B1042021680862D4F8800040F00200F3
:10276000C4F8800005F0080070B106F0200010B930
:1027700007F0010040B1082021680862D4F8800009
:1027800040F00800C4F8800005F4006060B106F075
:10279000806048B14FF4006021680862D4F880007E
:1027A00040F02000C4F88000D4F8800090B305F019
:1027B000200038B106F0200020B1606E10B1204634
:1027C000616E8847D4F880A02068806800F04000DF
:1027D000402802D00AF0280028B3204600F081FFEC
:1027E0002068806800F04000402818D12068806888
:1027F00020F04000216800E01CE08860206F50B1AC
:102800005D48216F0865206FFEF755FA10B1206F03
:10281000016D88470DE02046FFF74EFF09E0204696
:10282000FFF74AFF05E02046FFF746FF0020C4F807
:1028300080005EE7206E012875D105F010000028A9
:1028400071D006F0100000286DD0102021680862B9
:102850002068806800F0400040283BD1206F00686D
:1028600040681FFA80F8B8F1000F32D0B4F8580071
:1028700040452EDDA4F85A80206FC069B0F5807FF6
:102880001ED02068006820F48070216808602068ED
:10289000806820F00100216888602068806820F04E
:1028A0004000216888602020E067002020662068C2
:1028B000006820F0100021680860206FFEF7A6F97C
:1028C000B4F85800B4F85A20801A81B22046FFF7B5
:1028D000F1FE0EE734F8580F6188401A1FFA80F8AD
:1028E0006088583CE8B1B8F1000F1AD02068006841
:1028F00020F49070216808602068806820F0010052
:10290000216888602020E0670020206660662068DB
:10291000006820F010002168086041462046FFF75B
:10292000C9FEE6E6FFE705F4801050B107F4800029
:1029300038B14FF48010216808622046FFF7BBFED3
:10294000D7E605F0800040B106F0800028B1A06E07
:1029500010B12046A16E8847CBE605F0400030B1AB
:1029600006F0400018B1204600F0D6FEC1E600BFD8
:10297000BFE6000020010004CB36000810B5044675
:102980000CB9012010BDA06900B100E000BFA06F2C
:1029900028B9002084F87400204600F029F824208B
:1029A000A0672068006820F00100216808602046C8
:1029B00000F04EFF012800D1E4E7606A10B1204624
:1029C00000F0CEFD2068406820F490402168486007
:1029D0002068806820F02A002168886020680068EC
:1029E00040F0010021680860204600F035FEC9E78C
:1029F00010B586B00446142101A8FDF753FC4749E1
:102A0000206888424FD100BF4548006840F400303C
:102A1000434908600846006800F40030009000BF99
:102A200000BF00BF3E481038006840F001003C493C
:102A3000103908600846006800F00100009000BFEF
:102A400000BF00BF0846006840F008000860084664
:102A5000006800F00800009000BF00BF082001904F
:102A6000022002900020039003200490072005908C
:102A700001A92C48FEF762F9202001900220029063
:102A800000200390032004900720059001A9264808
:102A9000FEF754F9002211462620FEF7DDFA262023
:102AA000FEF7CAFA38E021492068884234D100BFD5
:102AB0001B48006840F480201949086008460068F7
:102AC00000F48020009000BF00BF00BF1448103801
:102AD000006840F008001249103908600846006894
:102AE00000F00800009000BF00BF4FF4407001905C
:102AF00002200290002003900320049007200590FC
:102B000001A90948FEF71AF9002211462720FEF70D
:102B1000A3FA2720FEF790FA06B010BD004400404B
:102B20004038024000000240000C024000480040D3
:102B300070B504460D461646E06F202821D105B138
:102B40000EB9012070BD00BF94F87400012801D1B6
:102B50000220F7E7012084F8740000BF00202066FF
:102B60002068406800F4000028B12068006840F048
:102B700080602168086032462946204601F006F848
:102B8000E0E70220DEE7000010B504460B492068AC
:102B9000884211D10A480078401C0949087008464B
:102BA000007820F08000087006480A4612788118E4
:102BB00001220548FFF7BCFF10BD000000440040A3
:102BC0004C0000203C0200203C030020704700BF66
:102BD000FEE700001FB500200090019002900390D6
:102BE0001548164908604FF48030486000211348AA
:102BF00081600161816180F82010C16210498162A9
:102C00000021C1600121C161002180F830104161C3
:102C1000FDF724FE08B1FDF75EFC002000900120C6
:102C200001900020029069460448FDF76BFC08B152
:102C3000FDF751FC1FBD00000020014010010020E5
:102C40000100000F00B587B0142102A8FDF72AFB90
:102C500000BF8048006840F004007E4908600846D4
:102C6000006800F00400019000BF00BF00BF0846EC
:102C7000006840F0800008600846006800F08000AE
:102C8000019000BF00BF00BF0846006840F001008F
:102C900008600846006800F00100019000BF00BF16
:102CA00000BF0846006840F002000860084600685F
:102CB00000F00200019000BF00BF00BF084600689E
:102CC00040F0100008600846006800F01000019015
:102CD00000BF00BF00BF0846006840F00800086061
:102CE0000846006800F00800019000BF00BF00BF68
:102CF0000846006840F0400008600846006800F0A0
:102D00004000019000BF00BF002244F28101524800
:102D1000FEF728F9002240215048FEF723F94FF42E
:102D2000005002904E4803900020049002A94D48A4
:102D3000FEF704F832200290022003900020049055
:102D4000032005900B20069002A94648FDF7F6FFE8
:102D5000862002900220039000200490032005901A
:102D60000B20069002A94048FDF7E8FF44F28100DD
:102D700002900120039000200490059002A936489B
:102D8000FDF7DCFF4FF4005002900220039000207A
:102D90000490032005900B20069002A92E48FDF711
:102DA000CDFF402002900120039000200490059068
:102DB00002A92A48FDF7C2FF80200290002003905C
:102DC000049002A92548FDF7B9FF4FF4E85002909E
:102DD0000220039000200490032005900A20069012
:102DE00002A92148FDF7AAFF4FF4007002900020CD
:102DF0000390049002A91C48FDF7A0FF4FF4007057
:102E000002901A4803900020049002A91348FDF78D
:102E100095FF4FF420500290022003900020049070
:102E2000032005900B20069002A90C48FDF786FFB1
:102E3000002201211720FEF70FF91720FEF7FCF8FA
:102E4000002211462820FEF707F92820FEF7F4F8A3
:102E500007B000BD303802400004024000180240B4
:102E60000000111000080240000002400000311074
:102E700010B50A480A4908604FF47A70486000218A
:102E800007488160D821C1600021016180218161F2
:102E9000FFF7D4F908B1FDF71EFB10BD0044014057
:102EA000F001002000B595B000201290139014900E
:102EB0001C210BA8FDF7F6F92C216846FDF7F2F965
:102EC0002B482C4908600020486000212948816077
:102ED0006421C16000210161416180218161FFF7AE
:102EE000F7FA08B1FDF7F7FA00201290139014904A
:102EF00012A92048FFF73CF908B1FDF7ECFA602071
:102F00000B9032200C9000200D900E900F9010909E
:102F1000119008220BA91748FFF726FA08B1FDF710
:102F2000DAFA0C220BA91348FFF71EFA08B1FDF7D5
:102F3000D2FA0020009001900290039004904FF488
:102F4000005005900020069007904FF00070089008
:102F5000002009900A9069460648FFF7AFF808B1CB
:102F6000FDF7B9FA0348FFF7CFF915B000BD00002F
:102F700000000140580100200EB500200090019093
:102F800002900F480F490860FF20486000210D485B
:102F900081604FF47A51C16080218161FFF74EF961
:102FA00008B1FDF798FA20200090002002906946B1
:102FB0000448FFF7DDF808B1FDF78DFA0EBD0000FB
:102FC00000100040A401002010B50D480D49086014
:102FD0004FF41650486000210A488160C1600161C9
:102FE0000C21416100218161C1610162002005491C
:102FF00048620846FFF7C2FC08B1FDF76CFA10BD45
:10300000004400403C03002010B50D480D49086005
:103010004FF4E130486000210A488160C1600161DD
:103020000C21416100218161C161016200200549DB
:1030300048620846FFF7A2FC08B1FDF74CFA10BD44
:1030400000480040C003002000BFFEE700BFFEE7CD
:103050001FB588B00E9C14F1640F01DB642C01DDF8
:103060000CB010BD0A9820B90B9810B9002C00DAEA
:10307000F6E764210898C1602048FFF729FA08B1F3
:10308000FDF729FA1C2101A8FDF70CF96020019039
:10309000201E01DB014600E0414202910A9808B976
:1030A0000B98C0B1DDE90A01FDF718FA002C09DA26
:1030B00002200390BDF82C2091B201220A98FDF75E
:1030C00051FF08E000200390BDF82C2091B20022AF
:1030D0000A98FDF747FF002005900690079001A988
:1030E000DDE90802FFF740F908B1FDF7F4F9DDE981
:1030F0000801FFF73DFA00BFB2E7000058010020C9
:103100007047704710B5FDF739FF10BD00B5B7B077
:1031100034212AA8FDF7C6F8142125A8FDF7C2F826
:10312000902101A8FDF7BEF800BF2C48006840F0D0
:1031300080502A4908600846006800F080500090DE
:1031400000BF00BF00BF2648006840F4404024494B
:1031500008600846006800F44040009000BF00BFCF
:1031600002202A9001202D9010202E9002203090D5
:1031700000212AA8C16108210162D82141620221EF
:103180008162C162FEF7F6FC08B1FDF7A4F9FDF714
:10319000B5FF08B1FDF79FF90F202590022026907A
:1031A000002027904FF4A05028904FF48050299091
:1031B000072125A8FEF798FB08B1FDF78CF94FF41D
:1031C000C070019000201390149001A8FDF7DEFF5D
:1031D00008B1FDF780F937B000BD0000403802406B
:1031E000007000400348006840F470000149086026
:1031F0007047000088ED00E010B50268294B984246
:103200000ED0B0F1804F0BD0274B984208D0274BFF
:10321000984205D0264B984202D0264B984203D1C3
:1032200022F070024B681A431E4B984220D0B0F136
:10323000804F1DD01C4B98421AD01C4B984217D07F
:103240001B4B984214D01B4B984211D01A4B9842FA
:103250000ED01A4B98420BD0194B984208D0194BFC
:10326000984205D0184B984202D0184B984203D18F
:1032700022F44072CB681A4322F080034C6943EA7F
:10328000040202608B68C3620B688362054B98423C
:1032900002D0084B984201D10B69036301234361BB
:1032A00010BD000000000140000400400008004084
:1032B000000C004000040140004001400044014077
:1032C0000048014000180040001C00400020004061
:1032D00030B501F01F05012404FA05F3046A9C438C
:1032E0000462046A01F01F0502FA05F52C4304622A
:1032F00030BD000030B5056A25F001050562026A9F
:1033000043688469154D2C4024F003040D682C4358
:1033100022F002028D682A43114DA84200D103E039
:10332000104DA84206D100BF22F00802CD682A4302
:1033300022F004020A4DA84202D00A4DA84207D149
:1033400023F4807323F400734D692B438D692B4361
:10335000436084614D684563026230BD8FFFFEFFAC
:10336000000001400004014030B5056A25F0100559
:103370000562026A43688469184D2C4024F4407445
:103380000D6844EA052422F020028D6842EA051205
:10339000134DA84200D103E0124DA84207D100BF4F
:1033A00022F08002CD6842EA051222F040020C4D64
:1033B000A84202D00B4DA84209D123F4806323F424
:1033C00000634D6943EA85038D6943EA85034360E1
:1033D00084614D688563026230BD0000FF8FFFFE8F
:1033E000000001400004014030B5056A25F48075F5
:1033F0000562026A4368C469174D2C4024F0030437
:103400000D682C4322F400728D6842EA0522134DA8
:10341000A84200D103E0124DA84207D100BF22F418
:103420000062CD6842EA052222F480620B4DA84278
:1034300002D00B4DA84209D123F4805323F400534A
:103440004D6943EA05138D6943EA05134360C4617E
:103450004D68C563026230BD8FFFFEFF0000014072
:103460000004014030B5056A25F480550562036A01
:103470004468C2690E4D2A4022F440720D6842EA47
:10348000052223F400538D6843EA0533094DA84211
:1034900002D0094DA84204D124F480444D6944EA85
:1034A00085144460C2614D680564036230BD00004C
:1034B000FF8FFFFE000001400004014030B5056AA7
:1034C00025F480350562026A4368446D0C4D2C403A
:1034D0000D682C4322F400320D8942EA0542094D61
:1034E000A84202D0084DA84204D123F480334D698C
:1034F00043EA0523436044654D688565026230BD3B
:103500008FFFFEFF000001400004014030B5056A56
:1035100025F480150562026A4368446D0D4D2C4008
:103520000D6844EA052422F400120D8942EA05528E
:10353000094DA84202D0094DA84204D123F48023AA
:103540004D6943EA8523436044654D68C565026261
:1035500030BD0000FF8FFFFE00000140000401406D
:1035600090F8241001F0010139B10168496821F493
:103570000031826A11430268516090F8241001F012
:103580000201022907D10168496821F48031C26A29
:1035900011430268516090F8241001F004010429DD
:1035A00007D10168496821F48021026B1143026848
:1035B000516090F8241001F00801082907D1016832
:1035C000496821F40041426B11430268516090F850
:1035D000241001F01001102907D10168896821F435
:1035E0008051826B11430268916090F8241001F0C1
:1035F0002001202907D10168896821F40051C26B9C
:1036000011430268916090F8241001F040014029B4
:1036100013D10168496821F48011026C11430268DA
:103620005160016CB1F5801F07D10168496821F430
:10363000C001426C11430268516090F8241001F0FF
:103640008001802907D10168496821F40021826C3A
:10365000114302685160704738B504460020C4F831
:103660008000FDF785FC05462068006800F0080032
:1036700008280CD16FF07E402B4600224FF4001139
:103680000090204600F0E0FA08B1032038BD206821
:10369000006800F0040004280CD16FF07E402B4637
:1036A00000224FF480010090204600F0CDFA08B1CE
:1036B0000320EBE72020A067E0670020206600BF22
:1036C00084F8740000BF00BFE0E770B50546AC6B3E
:1036D0000020A4F85A00A4F852002046FEF7ECFFA0
:1036E00070BD0168096821F4907102681160016879
:1036F000896821F0010102689160016E012905D1FC
:103700000168096821F01001026811602021C16779
:10371000002101664166704710B5044620680068C4
:1037200020F04000216808602020A0670020A066EB
:103730002046FFF74BFA10BD2DE9F0410446B4F8DE
:103740005C70E06F222836D12068406A86B2656DD1
:1037500006EA07002880606D801C6065B4F85A0096
:10376000401EA4F85A00B4F85A0018BB206800683C
:1037700020F49070216808602068806820F00100C3
:10378000216888602020E06700206066206E0128A4
:103790000BD12068006820F0100021680860B4F8A0
:1037A00058102046FEF786FF02E02046FFF7ECF9AE
:1037B0000020206605E02068806940F0080021684C
:1037C0008861BDE8F08170B50446B4F85C60E06FD4
:1037D000222836D12068406A85B2F0B22840616D57
:1037E0000870606D401C6065B4F85A00401EA4F873
:1037F0005A00B4F85A0018BB2068006820F4907092
:10380000216808602068806820F0010021688860D5
:103810002020E06700206066206E01280BD1206820
:10382000006820F0100021680860B4F858102046A5
:10383000FEF740FF02E02046FFF7A6F900202066D1
:1038400005E02068806940F008002168886170BD4B
:103850002DE9F04705464FF0000A2969A86808439A
:1038600069690843E96940EA010828680068BC49B9
:10387000084040EA0800296808602868406820F489
:103880004050E968084329684860D5F81880286ADC
:1038900040EA08082868806820F4306040EA0800A0
:1038A0002968886000BFAF492868884216D1AE48B1
:1038B000006800F0030030B1012808D0022804D0CD
:1038C000032808D105E0012407E0022405E00424D0
:1038D00003E0082401E0102400BFC9E0A3492868E0
:1038E000884216D1A048006800F00C0030B10428CE
:1038F00008D0082804D00C2808D105E0002407E0EF
:10390000022405E0042403E0082401E0102400BFA1
:10391000AEE097492868884216D19348006800F0C5
:10392000300030B1102808D0202804D0302808D129
:1039300005E0002407E0022405E0042403E0082455
:1039400001E0102400BF93E08A492868884216D11C
:103950008548006800F0C00030B1402808D08028B9
:1039600004D0C02808D105E0002407E0022405E0C7
:10397000042403E0082401E0102400BF78E07E491D
:103980002868884219D17848006800F4407048B12E
:10399000B0F5807F0AD0B0F5007F05D0B0F5407F4C
:1039A00008D105E0002407E0022405E0042403E038
:1039B000082401E0102400BF5AE0704928688842BA
:1039C00019D16948006800F4406048B1B0F5806FD3
:1039D0000AD0B0F5006F05D0B0F5406F08D105E012
:1039E000012407E0022405E0042403E0082401E0A8
:1039F000102400BF3CE062492868884219D15A4827
:103A0000006800F4405048B1B0F5805F0AD0B0F5CE
:103A1000005F05D0B0F5405F08D105E0002407E065
:103A2000022405E0042403E0082401E0102400BF80
:103A30001EE054492868884219D14B48006800F4B8
:103A4000404048B1B0F5804F0AD0B0F5004F05D0E6
:103A5000B0F5404F08D105E0002407E0022405E05E
:103A6000042403E0082401E0102400BF00E0102437
:103A700000BFE869B0F5004F3AD1092C17D2DFE852
:103A800004F005090D160F1616161300FDF7FCFFBE
:103A9000064610E0FEF708F806460CE03A4E0AE04B
:103AA000FEF712F8064606E04FF4004603E0002653
:103AB0004FF0010A00BF00BF8EB37000696800EBD1
:103AC0005100B0FBF1F087B2102F0ED3B7F5803F55
:103AD0000BD24FF6F07007EA0009C7F3420049EA3B
:103AE00000092868C0F80C9034E04FF0010A31E07A
:103AF000092C18D2DFE804F005090D170F17171766
:103B00001400FDF7C1FF064611E0FDF7CDFF0646A4
:103B10000DE01D4E0BE0FDF7D7FF064607E019E06C
:103B20004FF4004603E000264FF0010A00BF00BF3B
:103B300086B1686806EB50006968B0FBF1F087B2A7
:103B4000102F05D3B7F5803F02D22868C76001E087
:103B50004FF0010A00206866A8665046BDE8F0876D
:103B6000F369FFEF0010014090380240004400402C
:103B700000480040004C004000500040001401404C
:103B800000780040007C00400024F40010B503469B
:103B90005965A3F85820A3F85A200020586600BFA2
:103BA0009868B0F5805F0AD1186920B940F2FF101B
:103BB000A3F85C0020E0FF20A3F85C001CE09868FC
:103BC00048B9186918B9FF20A3F85C0014E07F20F9
:103BD000A3F85C0010E09868B0F1805F09D1186923
:103BE00018B97F20A3F85C0006E03F20A3F85C0032
:103BF00002E00020A3F85C0000BF0020C3F88000B2
:103C00002220D8671868806840F001001C68A06016
:103C10009868B0F5805F04D1186910B908485866F3
:103C200001E00848586600BF002083F8740000BF18
:103C30001868006840F490701C682060002010BD77
:103C400039370008C73700082DE9F04104460D4612
:103C500017469846069E46E0701C002843D0FDF7A4
:103C600087F9A0EB0800B04200D8B6B92068006818
:103C700020F4D070216808602068806820F001007E
:103C8000216888602020A067E06700BF002084F8DA
:103C9000740000BF0320BDE8F0812068006800F0D8
:103CA000040000B32068C069C0F3C020D8B14FF44D
:103CB0000060216808622068006820F4D0702168E4
:103CC00008602068806820F001002168886020205A
:103CD000A067E067C4F8800000BF002084F874008B
:103CE00000BF0320D7E72068C0692840A84201D15F
:103CF000012000E00020B842AED00020CBE7000059
:103D000010B50248FEF7DAFC10BD00003C030020AD
:103D100010B50248FEF7D2FC10BD0000C003002021
:103D200000BFFEE7014A024900F02FB8913E0008AB
:103D30006C00002002480068C0F3022070470000B9
:103D40000CED00E010B5002804DB0A07130E054A4D
:103D5000135406E00A07140E034A00F00F031B1F5A
:103D6000D45410BD00E400E018ED00E002E008C803
:103D7000121F08C1002AFAD170477047002001E0E5
:103D800001C1121F002AFBD170472DE9F0411646F0
:103D90000F460446002503E03946B047641C6D1CFD
:103DA00020780028F8D12846BDE8F08103B585B019
:103DB0000020019002900390049006980190012049
:103DC00002900020039001A90348FCF79BFB08B177
:103DD000FCF781FB07B000BD1001002013B5DDE941
:103DE0000001FFF7E3FF0D48FCF74CFE98B94FF0D8
:103DF000FF310A48FCF7DEFD40B90848FCF770FCCB
:103E000004460648FCF7DEFE20461CBD0348FCF7CE
:103E1000D9FE0020F9E70020F7E70000100100209C
:103E20001FB5DDE90001FFF7D9FF0446DDE9020116
:103E3000FFF7D4FF0444DDE90601FFF7CFFF044498
:103E4000DDE90801FFF7CAFF2044C0F38F0004B08A
:103E500010BD00000148006870470000000000200D
:103E60000FB410B5079CDDE90312C0E90012DDE9CB
:103E70000512C0E9021204610021416181619FEDD8
:103E8000030A80ED070A10BC5DF814FB0000000077
:103E900038B504468DF8000069460320ABBE2046C5
:103EA00038BD30B504460B4620460DE006E00578E7
:103EB0000D2D02D10025157030BD401C0578202D38
:103EC000F5D1401C5D1EEBB2002BEFD1002104E0C8
:103ED000057855544D1CE9B2401C0578202D02D0C0
:103EE00005780D2DF4D10025555400BFE4E70000FE
:103EF00010B50448044A1278811801220348FEF7DD
:103F000017FE10BD3C0200204C0000203C030020A6
:103F1000A6B0FDF73FF8FFF7F9F8FEF793FEFEF7BE
:103F200059FEFFF729F8FEF7BDFFFEF7A1FFFFF7E7
:103F30006BF8FFF749F8FFF7DBFF4FF47060019073
:103F400058484068009057480368574806C8574883
:103F5000FFF786FF564903C9CDE9240154490831CA
:103F600003C9CDE922015249103103C9CDE920012D
:103F70004F49183103C9CDE91E014D49203103C90C
:103F8000CDE91C014A49283103C9CDE91A01484944
:103F9000303103C9CDE918014549383103C9CDE9AC
:103FA0001601DDE91C01CDE91201DDE91801CDE9B9
:103FB0001401DDE91A01CDE90E01DDE91601CDE9B3
:103FC00010016DE03BA0FFF7ADFE3C4800F07CF82F
:103FD0003B480068F0B100203949086000BF09E0A3
:103FE0003849095C01B907E03649095C334A115484
:103FF000411CC8B28028F3DB00BF0EA80FC8CDE972
:104000000323CDE90101159800902C4812A90EC98F
:1040100000F01AF9FFF71EFF01281CD14FF41670AB
:104020006421CDE90C1012A80FC8CDE90A23CDE90F
:1040300008010EA80FC8CDE90623CDE90401DDE98A
:104040001E01CDE90201DDE92001CDE9000122A830
:104050000FC800F077F8DDE91E01CDE90201DDE9C6
:104060002001CDE9000122A80FC8FFF7D9FEB0F565
:104070007A6F14DD642008900EA80FC8CDE90623DE
:10408000CDE90401094BD3E905021969DB69CDE9E2
:104090000223CDE9001005480FC800F063F900BF06
:1040A00090E7000040000020380000207000002051
:1040B000E043000874657374650000009000002000
:1040C00048000020BC02002029E01849184A126864
:1040D000895C184A184B1B68D15417490968491C58
:1040E000154A116012490968491C114A11601146AC
:1040F000096821F0800111600F490968491E0D4AC5
:10410000515C012901D10D4A11700B490968491E02
:10411000084A515C11B90021084A117000BF0449D6
:104120000968074A12789142CFD170473C020020BB
:1041300050000020BC020020540000205800002045
:104140004C0000207FB588B0DDE91C45DDE90801A1
:10415000FFF744FE0290DDE90A01FFF73FFE0390FE
:10416000DDE91001FFF73AFE0490DDE91201FFF7E7
:1041700035FE0590DDE90201401A0690DDE90401F3
:10418000401A079006E06FF06300009018A80FC86F
:10419000FEF75EFFDDE90801FFF720FE0646DDE9D8
:1041A0000A01FFF71BFE301AA0F5AF70A042EADC4F
:1041B00005E06420009018A80FC8FEF749FFDDE96C
:1041C0000801FFF70BFE0646DDE90A01FFF706FED0
:1041D000301AA0F5AF7061428842EADB06E06FF06A
:1041E0006300009014A80FC8FEF732FFDDE910014C
:1041F000FFF7F4FD0646DDE91201FFF7EFFD301A87
:10420000A042ECDC05E06420009014A80FC8FEF783
:104210001FFFDDE91001FFF7E1FD0646DDE91201B0
:10422000FFF7DCFD301A61428842ECDB0020009091
:1042300018A80FC8FEF70CFF0020009014A80FC8A4
:10424000FEF706FF0CB070BD0FB410B5A2B0044667
:1042500002AA00212046FFF724FE3A49086802A975
:10426000FCF72BF818B901203749086066E035499A
:10427000486802A9FCF721F818B900203249086003
:104280005CE03049886802A9FCF717F880B964201F
:10429000009025A80FC8FEF7DBFE4FF4FA70FCF77C
:1042A0001FFD0020009025A80FC8FEF7D1FE45E0B5
:1042B0002449C86802A9FCF700F888B96FF06300C8
:1042C000009029A80FC8FEF7C3FE4FF4FA70FCF760
:1042D00007FD0020009029A80FC8FEF7B9FE2DE0C9
:1042E0001849086902A9FBF7E8FF80B9642000902B
:1042F00029A80FC8FEF7ACFE4FF4FA70FCF7F0FCEB
:104300000020009029A80FC8FEF7A2FE16E00D4974
:10431000486902A9FBF7D1FF80B96FF063000090F4
:1043200025A80FC8FEF794FE4FF4FA70FCF7D8FCEE
:104330000020009025A80FC8FEF78AFE22B010BC0E
:104340005DF814FB040000200000002001464869CD
:104350000A6990FBF2F302FB1300002801DA0A69F4
:10436000104470470FB438B5109C06E06FF063003E
:1043700000900CA80FC8FEF76BFE04A8FFF7E6FF3D
:10438000A042F3DC05E0642000900CA80FC8FEF703
:104390005FFE04A8FFF7DAFF61428842F3DB0020EA
:1043A00000900CA80FC8FEF753FE38BC5DF814FB54
:1043B00070B50446A28891B22068FCF7CBFD054693
:1043C000A28891B2A068FCF7C5FD854203D160695F
:1043D000401C606102E06069401E606170BD0000C9
:1043E0001001002000000000100100200C0000005F
:1043F000100100200900000010010020060000004C
:10440000580100200C0000005801002008000000A6
:104410000010024000800000001002400100000077
:104420000000000000000000010203040607080964
:1044300000000000010203044100000042000000EF
:10444000430000004400000045000000460000005A
:104450007044000800000020700000006C3D00085F
:10446000E044000870000020D80700007C3D0008F0
:1044700001000000384400083C44000840440008A3
:1044800044440008484400084C440008010000006F
:10449000384400083C4400084044000844440008F4
:1044A000484400084C440008001802400002000084
:1044B00000100240000100000000000000000000A9
:1044C00000000000000000000000000000000000EC
:1044D00010000000010000000024F40000000000B3
:04000005080001F9F5
:00000001FF
