:020000040800F2
:100000002808002011020008B72400084F2000082B
:10001000B524000895040008112D00080000000018
:10002000000000000000000000000000BB240008E9
:100030009704000800000000B9240008BD2400084F
:100040002B0200082B0200082B0200082B020008DC
:100050002B0200082B0200082B0200082B020008CC
:100060002B0200082B0200082B0200082B020008BC
:100070002B0200082B0200082B0200082B020008AC
:100080002B0200082B020008390300082B0200088D
:100090002B0200082B0200082B020008A104000814
:1000A0002B0200082B0200082B0200082B0200087C
:1000B0002B0200082B0200082B0200082B0200086C
:1000C0002B0200082B0200082B0200082B0200085C
:1000D0002B0200082B0200082B020008052D000847
:1000E000990400082B0200082B0200082B020008CC
:1000F0002B0200082B0200082B0200082B0200082C
:100100002B0200082B0200082B0200082B0200081B
:100110002B0200082B0200082B0200082B0200080B
:100120002B0200082B0200082B0200082B020008FB
:100130002B0200082B0200082B0200082B020008EB
:100140002B0200082B0200082B0200082B020008DB
:100150002B0200082B0200082B0200082B020008CB
:100160002B0200082B0200082B0200082B020008BB
:100170002B0200082B0200082B02000800000000E0
:100180002B0200082B0200082B0200082B0200089B
:100190002B0200082B0200082B0200082B0200088B
:1001A0002B0200082B0200082B0200082B0200087B
:1001B0002B0200082B0200082B0200082B0200086B
:1001C0002B0200082B020008000000002B02000890
:1001D0002B0200082B0200082B0200082B0200084B
:1001E0002B0200082B0200082B0200082B0200083B
:1001F0002B0200082B020008DFF810D000F08AF86C
:1002000000480047F12D0008AFF3008028080020C7
:100210000648804706480047FEE7FEE7FEE7FEE7A0
:10022000FEE7FEE7FEE7FEE7FEE7FEE77D250008C6
:10023000F90100082DE9F05F0546002092469B4633
:1002400088460646814640241BE0284641464746EC
:10025000224600F04FF853465A46C01A914110D337
:1002600011461846224600F036F82D1A67EB0108B1
:100270004F4622460120002100F02DF817EB00091F
:100280004E41201EA4F10104DFDC484631462A46D7
:100290004346BDE8F09FD2B201E000F8012B491EB1
:1002A000FBD270470022F6E710B513460A46044613
:1002B0001946FFF7F0FF204610BD10B5002200E000
:1002C000521C835C8C5CA34201D1002BF8D1D8B2C4
:1002D000E1B2401A10BD202A04DB203A00FA02F1F4
:1002E000002070479140C2F1200320FA03F3194324
:1002F00090407047202A04DB203A21FA02F00021C6
:10030000704721FA02F3D040C2F120029140084325
:1003100019467047064C074D06E0E06840F00103BF
:1003200094E8070098471034AC42F6D3FFF768FF13
:10033000E42F000804300008054810B500F091F9DA
:10034000044800F08EF9BDE81040034800F089B978
:100350004800002090000020D80000204A496FF09B
:10036000706210B5D1F8043323F44033C1F804337C
:10037000D1F8043344682343C1F8043301684B685F
:1003800023F480734B60016803694C6844EA0323DB
:100390004B6001684B6823F040734B6001688468D0
:1003A0004B6823434B6001688B6823F400638B60C8
:1003B0000168C4688B6823438B60816AD1420168FD
:1003C0008A6822F070628A6001680DD0836A8A6848
:1003D0001A438A6001688A6822F040528A60016884
:1003E000C36A8A681A4302E08A6822F040528A602F
:1003F00001688A6822F002028A60016882698B685B
:1004000043EA42028A6090F820100029016811D066
:100410001E4A4B6843F400634B6001684B6823F449
:1004200060434B600168446A4B6802EB44321343FB
:100430004B6003E04A6822F400624A600168144B92
:10044000CA6A22F47002CA620168848BCA6A03EB2A
:1004500004531A43CA6201688A6822F400728A60EF
:10046000016890F830208B6843EA42228A60016874
:100470008A6822F480628A60016840698A6842EA78
:100480008020886010BD00000020014000E0FFFFD8
:100490000000F0FFFEE770474FF4005000F030BB63
:1004A0004FF4007000F02CBB72B6FEE770470000FE
:1004B000F8B50025009590F83C20012A1DD00122B6
:1004C00080F83C20604C0723D6070A68092A22D905
:1004D000B24220D007680A3A02EB420CFA6803FAEB
:1004E0000CF39A43FA600A68A24208D102680B7AB8
:1004F000D76847EA0363D36022E00220F8BD0768AB
:100500000A3A8B6802EB4202D7F80CC0934043EAE8
:100510000C03FB6014E0076802EB4202D7F810C03E
:1005200093402CEA030CC7F810C003680F788A6860
:10053000D3F810C007EB4707BA4042EA0C021A6131
:100540004A681F23072A16D20768521E02EB820C44
:100550007A6B03FA0CF39A437A6302680F790B887B
:100560007F1ED2F834C09BB207EB8707BB4043EA3B
:100570000C0353632DE007680D2A15D2D21F02EB3E
:10058000820C3A6B03FA0CF39A433A6302680F79D0
:100590000B88FF1FD2F830C09BB207EB8707BB4028
:1005A00043EA0C03136314E00D3A02EB820CFA6A7F
:1005B00003FA0CF39A43FA6202680F790B880D3F35
:1005C000D2F82CC09BB207EB8707BB4043EA0C0371
:1005D000D3621E4A0368934208D10B68B34205D127
:1005E000D2F8043323F44003C2F80433036893427F
:1005F00008D10B68122B05D1D2F8043343F48003E1
:10060000C2F80433036893421AD10B68A34201D0A5
:10061000112B15D1D2F8043343F40003C2F804338C
:100620000968A1420CD10A490A4A0968B1FBF2F1F2
:1006300001EB8101490000E0491E00910029FBD136
:1006400080F83C500020F8BD12000010002001404E
:100650004400002040420F00704770470068C06CA3
:10066000704770B50446006801684268C1F34001F4
:10067000C2F3401251B34AB3216CC90603D4216CB2
:1006800041F400712164816811F0405F17D1A169C4
:10069000A9B9C16A11F4700F02D0816849050ED45E
:1006A000416821F020014160206C20F480702064BA
:1006B000206CC00403D4206C40F00100206420466C
:1006C000FFF7CAFF21686FF0120008602068016818
:1006D0004268C1F38001C2F3C01289B382B3216CB6
:1006E000C90603D4216C41F400512164816811F4DE
:1006F000401F1ED1816B11F4401F02D08168490553
:1007000017D44168490514D4816811F0405F10D1B5
:10071000A16971B9416821F080014160206C20F429
:1007200080502064206CC00503D4206C40F0010090
:1007300020642046FFF7BAFE21686FF00C000860C5
:1007400020680168436811F0010FC3F380110ED0D7
:1007500069B10068C0070AD0206C40F48030206482
:10076000204600F046F821686FF00100086020681C
:1007700001684268C1F340110029C2F380620DD0C4
:10078000002A0BD0616C6FF0200541F0020161641A
:1007900005602046FFF761FF2068056070BD70B5F9
:1007A00004004FF0000503D0206C002610B107E0D4
:1007B000012070BD204600F01DF8666484F83C609E
:1007C000206CC00610D4206C20F4885040F0020049
:1007D00020642046FFF7C2FD6664206C20F0020012
:1007E00040F00100206400E0012584F83C602846C8
:1007F00070BD7047F0B587B0044614216846FFF716
:1008000051FD204A0023266801251F4F143A1D4937
:1008100003241E48BE4207D10E6846F480760E605F
:10082000096801F4807109E0194FBE421FD10E68BA
:1008300046F400760E60096801F4007105911168B4
:1008400041F0010111601168009501F0010105916D
:10085000CDE90143694600F05FF9002212201146FC
:1008600000F0B0FA122000F09FFA07B0F0BD094F77
:10087000BE42FAD10E6846F480660E60096801F443
:100880008061DBE744380240002001400000024064
:1008900000210140002201402DE9F041044600689A
:1008A0000D460027816849050BD58068C00508D52D
:1008B000206C84F83C7040F0200020640120BDE8EA
:1008C000F08100F01FFA064613E0681C11D025B134
:1008D00000F018FA801BA8420BD920680068800736
:1008E00007D4206C84F83C7040F00400206403209E
:1008F000E5E7206800688007E7D521686FF01200FF
:100900000860206C40F4007020642068816811F059
:10091000405F13D1A16989B9C16A11F4700F02D087
:10092000806840050AD4206C20F480702064206C1C
:10093000C00403D4206C40F0010020640020BEE716
:1009400018B50021009190F83C20012A07D001221F
:1009500080F83C2002689368DB0702D011E0022097
:1009600018BD94682F4B44F0010494602E4A12681D
:10097000B2FBF3F202EB420200E0521E0092002AA8
:10098000FBD103689A68D20741D0026C40F201643F
:10099000A24342F4807202645A68520505D5026C83
:1009A00022F4005242F480520264026CD20404D554
:1009B000426C22F00602426400E041646FF02204BF
:1009C0001A4A80F83C101C60D2F80413C90607D0FC
:1009D000016891420AD18B6813F0405F02D005E0B4
:1009E00000680BE08B6843F080438B60D2F80413FF
:1009F000C90614D400680E49884210D1816811F0EC
:100A0000405F0CD1816841F08041816007E0016C5A
:100A100041F010010164416C41F00101416400208A
:100A200018BD000040420F0044000020002001409B
:100A3000002201402DE9F041876D044600F062F983
:100A4000064694F835000025022806D0802060650F
:100A5000012084F83450BDE8F0812068016821F05D
:100A6000160101602068416921F080014161206C1C
:100A700008B9A06C20B12068016821F0080101606C
:100A80002068016821F0010101600CE000F03AF9F2
:100A9000801B052807D920216165032084F8345084
:100AA00084F83500D7E720680068C007EED194F8D5
:100AB0005C203F2001219040B86084F8345084F8D5
:100AC00035100020C7E790F83510022903D08021A7
:100AD000416501207047052180F8351000680168E4
:100AE00021F001010160002070470000B0F5007F97
:100AF00002D1024802F022BA7047000088030020A9
:100B0000044910B50A68024202D00860FFF7EEFF00
:100B100010BD0000143C01402DE9F84F00224FF0B9
:100B200001094FF0030A4FF00F0E00BF0B6809FADE
:100B300002F42340A34270D14D68012D05D0022D4F
:100B400003D0112D01D0122D11D185685700CE6828
:100B50000AFA07FC25EA0C05BE402E43866045686C
:100B60000E79A543C6F3001696402E434660C5682D
:100B700056008F680AFA06F4A543B7402F43C760B2
:100B80004D68022D01D0122D12D1D5080F694FEA00
:100B9000427C00EB8505AB462D6A4FEADC6C0EFA11
:100BA0000CF807FA0CF725EA08052F43CBF820705C
:100BB0000D79076805F00305A743B5403D4305607F
:100BC0004C68E40074D53D4C256845F480452560AB
:100BD000246822F00307960704F480440094384CFC
:100BE000360F2744D7F80848DFF8D8C00EFA06F5C4
:100BF000604524EA050401D100252EE0324DA842CB
:100C000001D1012529E0314DA84201D1022524E07E
:100C10002F4DA84202D103251FE049E02D4DA842E7
:100C200001D1042519E02C4DA84201D1052514E07D
:100C30002A4DA84201D106250FE0294DA84201D135
:100C400007250AE0274DA84201D1082505E0264DD9
:100C5000A84201D1092500E00A25B540234E2543CD
:100C6000C7F808584D683468ED0324EA030400D53A
:100C70001C431E4D34602D1D4E682C68B60324EABB
:100C8000030400D51C43194E2C6008364D683468A7
:100C9000ED0224EA030400D51C43144D34600C35E6
:100CA0004E682C68B60224EA030400D51C432C606D
:100CB000521C102AFFF43AAFBDE8F88F44380240C6
:100CC00000300140000002400004024000080240E1
:100CD000000C0240001002400014024000180240C4
:100CE000001C02400020024000240240003C014061
:100CF0000069084000D0012070470AB18161704747
:100D00000904FBE7014880687047000038000020B4
:100D100002488168027811448160704738000020E1
:100D2000032010B500F06EF8002000F005F800F088
:100D300023F8002010BD000070B50D4D04464FF49F
:100D40007A700C4A29781268B0FBF1F0B2FBF0F02F
:100D500000F0E8FD48B9102C07D200222146501EB1
:100D600000F030F800206C6070BD012070BD000004
:100D700038000020440000200A4808B5016841F00E
:100D800080510160006800F0805000900548001D0F
:100D9000016841F480410160006800F480400090E7
:100DA00008BD000040380240002809DB410900F07E
:100DB0001F028900012001F1E0219040C1F80001EB
:100DC000704700000E4BF0B41B680D46C3F30223BE
:100DD000C3F10706042E00D90426191D072901D2E4
:100DE000002300E0DB1E012404FA06F19C40491EAA
:100DF0002940641E994014402143F0BC01F089BF92
:100E00000CED00E0064900F0070210B54FF6FF04B4
:100E10000868044B204040EA02201843086010BDD7
:100E20000CED00E00000FA051848F8B5016841F043
:100E3000805101600068164C00F0805000902068DE
:100E400040F480302060FFF75DFF4FF47A7605466E
:100E500005E000BFFFF756FF401BB0420FD86068A7
:100E6000C003F7D5206840F400302060FFF74AFF48
:100E7000054606E0FFF746FF401BB04201D90320BC
:100E8000F8BD60688003F5D50020F8BD4038024009
:100E9000007000402DE9F84F04460078DFF82494F4
:100EA0004FF000063746C0070ED0D9F8001021F4E5
:100EB0000001C9F80010D9F80010626B1143C9F89D
:100EC0000010606B00B90126FE4D206884350003D8
:100ED0000ED5E16B286820F4401008432860E06BD1
:100EE000B0F5801F01D010B102E0012600E001271B
:100EF00020684FF4800BC0020CD5216C286820F4C8
:100F0000400008432860206C584501D1012601E0CB
:100F100000B901272068C10100D50126800666D5E9
:100F2000E8483830016841F0805101600068DFF81E
:100F300098A300F080500090DAF8001041F480711E
:100F4000CAF80010FFF7DEFE804605E0FFF7DAFE84
:100F5000A0EB080064287DD8DAF80000C005F5D5BC
:100F6000DFF8608308F16808D8F8000010F44070DA
:100F70002AD0218E01F44071814225D0D8F800108A
:100F8000D8F8002021F4407142F48032C8F80020E3
:100F9000D8F8002022F48032C8F80020C8F80010E9
:100FA000D8F80000C0070FD0FFF7ACFE824607E07C
:100FB000FFF7A8FEA0EB0A0141F288308142CAD8AF
:100FC000D8F800008007F3D5206BC0F30121032976
:100FD0007ED0D9F8001021F4F811C9F80010228E43
:100FE000D8F80010C2F30B021143C8F800102078A3
:100FF000C00607D5286820F0807028602868A16B9B
:10100000084328602188AF488830490405D5626EBE
:10101000016821F44031114301602188090405D59C
:10102000A26E016821F44021114301602168C903C7
:1010300005D5E26E016821F4401111430160216879
:10104000890305D5226F016821F440011143016035
:10105000217800E034E1490605D5626C016821F091
:101060000301114301602178090605D5A26C0168CE
:1010700021F00C01114301602188C90505D5E26CFE
:10108000016821F03001114301602188890505D5EF
:10109000226D016821F0C0011143016021884905DA
:1010A00005D5626D016821F440711143016021880A
:1010B000090505D5A26D016821F440611143016065
:1010C0002188C90407D5E26D016821F4405100E090
:1010D00068E0114301602188890405D5226E01680A
:1010E00021F44041114301602168490205D5A26FF6
:1010F000016821F080611143016021684FF0006AAE
:10110000890209D5E26F016821F000611143016095
:10111000E16F514500D1012721680A0700D5012759
:10112000490305D5626F016821F0407111430160E8
:101130002168090206D5D4F88020016821F0805189
:10114000114301602168490106D5D4F88420016863
:1011500021F00051114301602068000106D5D4F848
:101160008810286820F00070084328602068C000BC
:1011700006D5D4F88C10286820F0806008432860D9
:10118000DFF84891012E02D0206880017ED5D9F881
:1011900000004E4620F08060C9F80000FFF7B2FD65
:1011A00080460FE04A4AD9F80030104023F4F81284
:1011B0000243C9F8002012E7FFF7A4FDA0EB0800E6
:1011C00064287DD830680001F6D421783D487C3011
:1011D000C90712D0616B81B9237A62680168D0F8BF
:1011E00000C09201C1F3014142EA0142CCF3036124
:1011F00042EA016141EA0371016021680A0303D5F3
:10120000E26BB2F5801F04D0C9021AD5216C594592
:1012100017D16368016894F80CC002689B01C1F3A0
:10122000014143EA0141C2F3027241EA0C6141EA21
:10123000027101602968626A21F01F01521E114388
:1012400029602168C90110D5238A62680168D0F835
:1012500000C09201C1F3036142EA034242EA016223
:10126000CCF3027142EA01710160216889010CD559
:101270006168228A237B94F808C0890141EA02410F
:1012800041EA036141EA0C71016000E011E031685C
:10129000B04641F080613160FFF734FD064604E05E
:1012A000FFF730FD801B64280AD8D8F80000000141
:1012B000F6D5E7B3D9F800004E4620F0805009E09B
:1012C0007BE0000008380240007000400038024017
:1012D000FFFCFF0FC9F80000FFF714FD074604E00C
:1012E000FFF710FDC01B642867D83068C04380003A
:1012F000F6D5216835480A0301D5E26B1AB1C90257
:101300001DD5216CD9B963690168277E02689B01EC
:10131000C1F3014143EA0143C2F3027143EA0762A8
:1013200042EA0171016029686FF0FF0300E04BE0C1
:10133000A26A21F4F85103EB0222114329602168CB
:10134000890212D5E16F51450FD1238C6269016882
:1013500007689201C1F3036142EA034242EA016273
:10136000C7F3027142EA017101602178090716D5BD
:1013700061690268D0F800C08B01277FC2F3036265
:10138000CCF3014143EA014141EA026141EA0771BC
:1013900001602868E16A20F4403008432860306822
:1013A00040F080503060FFF7ADFC044608E000BF1D
:1013B000FFF7A8FC001B642802D90320BDE8F88FC2
:1013C0003068C0438000F3D40020F7E7883802403B
:1013D0002DE9F04705000F4663D0444E306800F019
:1013E0000F00B84209D2306820F00F003843306057
:1013F000306800F00F00B84253D128683C4C810798
:1014000012D5400703D5206840F4E05020602878CA
:10141000000703D5206840F460402060A968206878
:1014200020F0F000084320602878C0072AD0304917
:1014300068680839012810D00968022810D0890787
:1014400000292EDA216821F0030101432160FFF712
:1014500059FC804641F288390DE009688903EFE7BD
:101460008901EDE7FFF74EFCA0EB0801494502D9E1
:101470000320BDE8F0876868216801F00C01B1EB3A
:10148000800FEFD1306800F00F00B8420BD9306800
:1014900020F00F0038433060306800F00F00B84291
:1014A00001D00120E5E72878400705D5E9682068E4
:1014B00020F4E050084320602878000706D528690A
:1014C000216821F4604141EAC000206000F038F852
:1014D0002168084AC1F30311515CC84006490860FD
:1014E00006480068FFF728FC0020C2E7003C0240E5
:1014F00008380240A82F0008440000203C000020CB
:101500000449054809680068044AC1F38221515C16
:10151000C84070470838024044000020B82F000837
:101520000449054809680068044AC1F34231515C26
:10153000C84070470838024044000020B82F000817
:10154000104910B51048096811F00C0118D0042991
:1015500016D0082914D10B4C241F22682168216859
:1015600002F03F020023C1F38811A1FB0001FEF746
:1015700061FE2168C1F30141491C4900B0FBF1F053
:1015800010BD0000083802400024F4002DE9F84F97
:1015900004004FF000076ED02078DFF87CA3AAF19A
:1015A0000408C007A8F104054CD0DAF80010504632
:1015B000C1F38101012908D00068C0F3810002282D
:1015C0000AD1D8F80000400206D52868800339D532
:1015D00060680028DFD035E06068B0F5803F0BD050
:1015E00010B1B0F5A02F11D0286820F48030286009
:1015F000286820F4802002E0286840F480302860C9
:10160000606890B1FFF77EFB06460AE0286840F468
:1016100080202860F0E700BFFFF774FB801B642880
:1016200072D828688003F7D50CE0FFF76BFB0646FD
:1016300005E000BFFFF766FB801B6428F0D8286830
:101640008003F7D42078800742D5DAF8001050469E
:1016500011F00C0F08D00068C0F3810002280BD1F4
:10166000D8F80000400207D42868800718D5E06841
:10167000012800D114E04AE1E0680028286817D06A
:1016800040F001002860FFF73DFB064605E000BF83
:10169000FFF738FB801B0228C2D828688007F7D5DF
:1016A0002069296821F0F80141EAC00028600FE0B4
:1016B00020F001002860FFF725FB064605E000BF8B
:1016C000FFF720FB801B02281ED828688007F7D46C
:1016D0002078000729D5904861696C30002981463F
:1016E000016812D041F001010160FFF70BFB0646D3
:1016F00005E000BFFFF706FB801B022804D8D9F8DD
:1017000000008007F6D510E089E021F001010160BA
:10171000FFF7F8FA064604E0FFF7F4FA801B022808
:101720007DD8D9F800008007F6D4207840076BD523
:10173000DFF8E49109F13809D9F80000C0000BD4B2
:10174000D9F8001041F08051C9F80010D9F8000014
:10175000012700F08050009070480168C90512D43C
:101760000168834641F480710160FFF7CBFA0646B9
:1017700005E000BFFFF7C6FA801B64284FD8DBF8EE
:101780000000C005F6D5644EA068683601280AD06E
:1017900008B1052811D0306820F0010030603068B1
:1017A00020F0040002E0306840F001003060A068E2
:1017B000A0B1FFF7A7FA83460CE0306840F00400C0
:1017C0003060F0E7FFF79EFAA0EB0B0141F28830A2
:1017D000814268D830688007F4D50EE0FFF792FAAE
:1017E000834607E0FFF78EFAA0EB0B0141F2883049
:1017F000814258D830688007F4D42FB1D9F800104E
:1018000021F08051C9F80010A069E0B3DAF80010A7
:10181000C1F3810102294DD00228286800E042E08E
:1018200020F08070286003D0FFF76CFA04463DE09A
:10183000FFF768FA064604E0FFF764FA801B022807
:1018400031D828688001F7D4D4E90921DFF8D0C065
:10185000D4E9070694F830304F0894F82C10304340
:101860000CEB074444EA8212104340EA016040EA6C
:101870000370C8F80000286840F080702860FFF707
:1018800041FA044605E044E0FFF73CFA001B022859
:1018900009D828688001F7D53BE000BFFFF732FA8E
:1018A000001B022802D90320BDE8F88F28688001B8
:1018B000F4D42EE00128D8F8000028D0E16900F423
:1018C00080028A4223D1216A00F03F028A421ED15F
:1018D000626A47F6C0710140B1EB821F17D1A16A5D
:1018E0004FF0FF3200F4403302EB5101B3EB014FF4
:1018F0000DD194F82C1000F07062B2EB016F06D19C
:1019000094F8301000F0E040B0EB017F01D00120EE
:10191000CAE70020C8E70000083802400070004015
:101920000000FFFF401EB0F1807F10B501D3012001
:1019300010BD4FF0E02460610F21601701F0E9F95C
:101940000020A0610721216110BD00002DE9F043B6
:1019500090F83C20012A42D0012280F83C2051F826
:101960000C4BDFF880804FF0000991E8680051E9E6
:10197000022723F44073B1F80CC03B43CF6923F432
:1019800080631343026823F40063234323F48053EA
:1019900043EA050323F4005343EA060323F4804398
:1019A00043EA07030C3923F47023424543EA0C430E
:1019B00002D00D4CA2420CD18D8C23F47006D1E9DB
:1019C000073446EA055121F08071194321F0007374
:1019D0002343536480F83C900020BDE8F08302204C
:1019E000FBE700000000014000040140F0B590F862
:1019F0003C20012A3BD01F4E012480F83C400222AB
:101A000080F83D2002681C4D5368B242D2F808C0ED
:101A100001D0AA4203D14F6823F470033B430F68FF
:101A200023F070031F4357600268B24213D0B2F133
:101A3000804F10D0114B9A420DD0114B9A420AD0D0
:101A4000104B9A4207D0AA4205D00F4B9A4202D0BF
:101A50000E4B9A4204D189682CF08003194391609F
:101A6000002180F83D4080F83C100846F0BD02207F
:101A7000F0BD0000000001400004014000040040EF
:101A800000080040000C00400040014000180040E9
:101A900010B5040003D094F83D0010B107E0012018
:101AA00010BD002084F83C00204600F023F80220FE
:101AB00084F83D002068211D00F068FD012084F8B5
:101AC000480084F83E0084F83F0084F8400084F821
:101AD000410084F8420084F8430084F8440084F80C
:101AE000450084F8460084F8470084F83D00002053
:101AF00010BD000008B500680C49884208D10C48A8
:101B0000016841F010010160006800F010000BE076
:101B10000849884209D10648001D016841F4003196
:101B20000160006800F40030009008BD0010004023
:101B3000403802400044014010B586B004461421EC
:101B40006846FEF7AFFB0E492068884216D10D4863
:101B5000016841F01001016000680123022200F0D9
:101B60001000059000204FF4C04100916946CDE976
:101B70000120CDE903030448FEF7CEFF06B010BDF7
:101B800000000140303802400010024070B50446A9
:101B900090F83C000D4601280BD0012084F83C0051
:101BA0000C2A45D007DC5AB1042A1BD0082A78D168
:101BB0002CE0022070BD102A4ED0142A71D15DE0B5
:101BC000206800F049FD2068816941F008018161C9
:101BD0002068816921F00401816120682A69816996
:101BE000114311E0206800F071FD2068816941F423
:101BF000006181612068816921F4806181612068D0
:101C00002969826942EA012181614AE0206800F085
:101C100099FD2068C16941F00801C1612068C1696E
:101C200021F00401C16120682A69C169114311E0F2
:101C3000206800F0C3FD2068C16941F40061C16102
:101C40002068C16921F48061C16120682969C26985
:101C500042EA0121C16124E0206800F0DBFD206838
:101C6000416D41F0080141652068416D21F004019A
:101C7000416520682A69416D114311E0206800F038
:101C8000F5FD2068416D41F4006141652068416DBA
:101C900021F48061416520682969426D42EA012191
:101CA0004165002084F83C0070BD10B5040003D0ED
:101CB00094F83D0010B107E0012010BD002084F829
:101CC0003C00204600F022F8022084F83D00206805
:101CD000211D00F05BFC012084F8480084F83E00E0
:101CE00084F83F0084F8400084F8410084F8420002
:101CF00084F8430084F8440084F8450084F84600E2
:101D000084F8470084F83D00002010BD08B5006845
:101D10000649884208D10648016841F00101016086
:101D2000006800F00100009008BD000000000140C4
:101D30004438024070477047704700002DE9F04179
:101D400002680446002540F60F06D06911689368C2
:101D5000304205D1860678D58E0676D5616EF2E0E2
:101D6000814F03F001060F4037437ED0C70709D0EB
:101D7000CF0507D501271762D4F8802042F0010271
:101D8000C4F8802082070AD5DA0708D02768022223
:101D90003A62D4F8802042F00402C4F8802042075E
:101DA0000AD5DA0708D0236804221A62D4F8802002
:101DB00042F00202C4F8802002070CD501F0200294
:101DC000324308D0236808221A62D4F8802042F0F7
:101DD0000802C4F8802002050BD54A0109D5236802
:101DE0004FF400621A62D4F8802042F02002C4F856
:101DF0008020D4F88020002A2FD0800605D58806C0
:101E000003D5616E09B1204688472168D4F8800067
:101E10008968490602D410F0280F20D0204600F02F
:101E2000EDFD20688168490614D5816821F04001E4
:101E30008160206F70B14D490165206FFEF743FE50
:101E400000280AD0206F016D01E00EE02046BDE8B9
:101E5000F04108472046FFF76FFFBDE8F0812046BC
:101E6000FFF76AFFC4F88050F7E7276E2026012F9E
:101E700059D1C70657D5CF0655D510201062206816
:101E8000816849062ED5226F116849680904090C3A
:101E9000E3D0B4F858308B42DFD9A4F85A10D16996
:101EA000B1F5807F17D0016821F48071016020684E
:101EB000816821F0010181602068816821F0400182
:101EC0008160E66725662068016821F010010160E5
:101ED000206FFEF7AFFDB4F85800B4F85A10401A5E
:101EE00081B21CE0B4F85810B4F85A20B4F85A3053
:101EF000891A89B2002BB0D00029AED0026822F432
:101F0000907202602068826822F001028260E667B7
:101F1000256665662068026822F01002026020468D
:101F2000FFF708FF99E7C70208D55B0206D54FF413
:101F3000801010622046FFF7FEFE8EE7030605D5EF
:101F40000B0603D5A16E002980D186E7400684D513
:101F5000480682D51168204621F040011160A6672D
:101F6000A56600F073F878E720010004E92900086D
:101F700010B5040002D0A06F10B107E0012010BD21
:101F8000002084F87400204600F026F82420A06782
:101F90002068016821F001010160204600F046FD43
:101FA0000128ECD0606A10B1204600F08BFC20685C
:101FB000416821F4904141602068816821F02A0144
:101FC00081602068016841F0010101602046BDE8A0
:101FD000104000F0DBBC000010B586B004461421B0
:101FE0006846FEF75FF916492068884226D11548F1
:101FF000016841F480210160006800F480200590B0
:1020000010481038016841F00801016000680221A1
:10201000002200F008000590032307244FF44070CD
:102020008DE81F0008486946FEF776FD002227204C
:102030001146FEF7C7FE2720FEF7B6FE06B010BD1C
:102040000048004040380240000C02407047FEE764
:102050007FB51648002401251349009401942A04F1
:1020600002940394130301604FF05061C0E901240E
:102070000461846180F82040C561C460C0E90A132E
:1020800080F830404561FEF78AFB08B1FEF70CFA94
:1020900006486946CDE900450294FEF709FA002892
:1020A00001D0FEF701FA7FBD00200140480000206A
:1020B0007FB51648002401251349009401942A0491
:1020C00002940B05039401604FF05061C0E90124B4
:1020D0000461846180F82040C561C460C0E90A13CE
:1020E00080F830404561FEF75AFB08B1FEF7DCF995
:1020F00006486946CDE900450294FEF7D9F9002863
:1021000001D0FEF7D1F97FBD0021014090000020F1
:102110007FB51648002401251349009401942A0430
:102120000294CB04039401604FF05061C0E9012494
:102130000461846180F82040C561C460C0E90A136D
:1021400080F830404561FEF72AFB08B1FEF7ACF994
:1021500006486946CDE900450294FEF7A9F9002832
:1021600001D0FEF7A1F97FBD00220140D800002078
:102170002DE9F04F87B014216846FEF793F86648C2
:10218000016841F004010160016801F0040105915A
:10219000016841F080010160016801F08001059152
:1021A000016841F001010160016801F00101059140
:1021B000016841F002010160016801F0020105912E
:1021C000016841F010010160016801F01001059102
:1021D000016841F008010160016801F00801059102
:1021E000016841F040010160006844F2810ADFF8B3
:1021F0002CB1002200F04000514605905846FEF7F1
:102200007CFD474800224021FEF777FD0024454928
:10221000DFF814914FF40058CDF80080CDE9011497
:1022200069464846FEF778FC02256946322002AA34
:10223000CDE90005032648460B2782E8D000FEF7CB
:102240006BFC8620694602AACDE90005374882E882
:10225000D000FEF761FC4FF00109CDF800A0CDE9F8
:102260000194694658460394FEF756FC02AA694653
:10227000584682E8D000CDE90085FEF74DFC4021AC
:102280000091CDE90194264869460394FEF744FC89
:1022900080206946CDE9000421480294FEF73CFC09
:1022A0004FF4E85000900A206946CDE903601F48CA
:1022B000CDE90154FEF730FC4FF400781B48CDE91E
:1022C000008469460294FEF727FC1949CDF8008086
:1022D000CDE9011412486946FEF71EFC4FF4205068
:1022E000694602AACDE900050D4882E8D000FEF754
:1022F00013FC002201211720FEF764FD1720FEF7D2
:1023000053FD002228201146FEF75CFD2820FEF731
:102310004BFD07B0BDE8F08F3038024000040240AA
:1023200000180240000011100008024000000240A6
:10233000000031100C48D82370B50021094DC0E9C8
:1023400002134FF47A74802282610161C0E9005463
:10235000FFF79EFB002803D0BDE87040FEF7A4B84D
:1023600070BD000000440140B801002010B596B0D7
:1023700000241C210BA8129413941494FDF792FFCF
:102380002C216846FDF78EFF2748642225498023CB
:10239000C0E90014C0E902420461C0E90543FFF747
:1023A00084FC08B1FEF780F81F4812A91294139418
:1023B0001494FFF71BFB08B1FEF776F80BAA602018
:1023C000322182E81300184808220BA90E940F94BA
:1023D00010941194FFF7DAFB08B1FEF765F8124884
:1023E0000C220BA9FFF7D2FB08B1FEF75DF84FF402
:1023F00000500094019401030294CDE90440039439
:102400000694CDE907410848694609940A94FFF704
:102410009DFA08B1FEF748F80348FFF78DFB16B0A8
:1024200010BD000000000140200100203EB5114811
:1024300000244FF47A520E4DFF2300940194802122
:1024400002948161C0E90242C0E90053FFF720FB1A
:1024500008B1FEF729F8202000900648694602944A
:10246000FFF7C4FA002801D0FEF71EF83EBD0000B9
:10247000001000406C0100200D48002110B50B4CED
:102480000C224FF4E1330460C0E90131C160C0E9BE
:1024900004128161C16101624162FFF769FD002898
:1024A00003D0BDE81040FDF7FFBF10BD004800405D
:1024B00004030020FEE7FEE770477047FEF728BCE4
:1024C00030B5B7B0342124A8FDF7ECFE142131A8B3
:1024D000FDF7E8FE90216846FDF7E4FE2548016817
:1024E00041F080510160006800F080503690224831
:1024F000016841F440410160006800250DF1B00C15
:10250000022424940822D823CDE92A4500F440402F
:10251000369010218CE81C0001202F94CDE9270172
:1025200024A8FFF733F808B172B6FEE7FEF77CFC8B
:1025300008B172B6FEE74FF480524FF4A0510F205D
:10254000CDE9341231AA072182E8310031A8FEF723
:102550003FFF08B172B6FEE74FF48070139500900C
:102560006846FEF797FC002801D072B6FEE737B048
:1025700030BD000040380240007000400248016851
:1025800041F470010160704788ED00E0F0B5274B21
:102590004FF0804E264D02689842264E264F274C1B
:1025A00009D0704507D0A84205D0B04203D0B84248
:1025B00001D0A04205D1D1F804C022F070024CEA4B
:1025C000020298421BD0704519D0A84217D0B042E1
:1025D00015D0B84213D0A04211D0194DA8420ED048
:1025E000184DA8420BD0184DA84208D0174DA8424C
:1025F00005D0174DA84202D0164DA84203D1CD6890
:1026000022F440722A434D6922F080022A4302607C
:1026100098428A68C2620A68826201D0A04201D1EF
:102620000969016301214161F0BD00000000014022
:102630000004004000080040000C0040000401407D
:1026400000400140004401400048014000180040A3
:10265000001C004000200040F0B5026ADFF860C0B6
:10266000184F22F00102DFF860E00262066A426859
:10267000836926F002060D68B8428C6803EA0C03F1
:1026800023F0030344EA060445EA030501D070453C
:1026900005D1CB6824F00804234323F00404B84296
:1026A00001D0704505D122F44076D1E9053233439B
:1026B0001A4342608561496841630462F0BD0000CD
:1026C0008FFFFEFF0000014000040140F0B5026AE8
:1026D000194E1A4C22F01002DFF864E00262056A1B
:1026E0004368826925F02005D1F808C0A0420F6830
:1026F00002EA060222F4407245EA0C1542EA072279
:1027000001D0704506D1CE6825F0800545EA061552
:1027100025F04005A04201D0704507D1D1E905461A
:1027200023F4406343EA840343EA860343608261FF
:10273000496881630562F0BDFF8FFFFE0000014024
:1027400000040140F0B5026A194F1A4E22F480725B
:10275000DFF864E00262056A4368C26925F4007527
:10276000D1F808C0B0420C6802EA070222F0030266
:1027700045EA0C2544EA020401D0704506D1CF6831
:1027800025F4006242EA072222F48065B04201D0BB
:10279000704507D123F44052D1E9053642EA0312CD
:1027A00042EA06134360C4614968C1630562F0BD33
:1027B0008FFFFEFF0000014000040140F0B5026AF7
:1027C000124B114F22F4805298420262046A42680E
:1027D000C36924F400548E680D6803EA070323F4E8
:1027E000407344EA063443EA052302D0084DA84268
:1027F00004D14D6922F4804242EA85124260C361ED
:10280000496801640462F0BDFF8FFFFE00000140D3
:1028100000040140F0B5026ADFF844C022F48032BF
:102820000262056A4268446D25F400350E896045F0
:102830000C4F0B6804EA070445EA064543EA040323
:1028400002D0094CA04204D14C6922F4803242EA01
:10285000042242604365496881650562F0BD00005D
:10286000000001408FFFFEFF00040140F0B5026A46
:10287000DFF844C022F480120262046A4268436DA9
:1028800024F400140E8960450C4F0D6803EA070319
:1028900044EA065443EA052302D0094DA84204D174
:1028A0004D6922F4802242EA8522426043654968EC
:1028B000C1650462F0BD000000000140FF8FFFFE13
:1028C0000004014090F82410C90706D00168836A0B
:1028D0004A6822F400321A434A6090F824108907AB
:1028E00006D50168C36A4A6822F480321A434A60F6
:1028F00090F82410490706D50168036B4A6822F452
:1029000080221A434A6090F82410090706D501680E
:10291000436B4A6822F400421A434A6090F824103C
:10292000C90606D50168836B8A6822F480521A436F
:102930008A6090F82410890606D50168C36B8A68FE
:1029400022F400521A438A6090F82410490611D5E7
:102950000168036C4A6822F480121A434A60016CD1
:10296000B1F5801F06D10168436C4A6822F4C002A9
:102970001A434A6090F82410090606D50168826C53
:10298000486820F40020104348607047F8B50026DE
:102990000446C0F88060FEF7B5F9054620686FF080
:1029A0007E470068000708D500222B464FF400112F
:1029B0002046009700F054F960B92068006840078D
:1029C0000AD500222B464FF480012046009700F0E4
:1029D00047F908B10320F8BD2020A067E06726660C
:1029E000002084F87460F8BD10B5806B0021A0F859
:1029F0005A10A0F85210FFF79FF910BD01680A683D
:102A000022F490720A6001688A6822F001028A60EA
:102A1000016E012904D101680A6822F010020A60DF
:102A200000212022C2670166416670472DE9F0410E
:102A300004460368C2698168D4E90450DFF8F4C130
:102A40007D4E29431F68002510437C4A014307EA55
:102A50000C070F431F604FF400402168E7684B6884
:102A600023F440533B434B602768A369216AD7F89E
:102A700008C019432CF430630B43BB602168B1429A
:102A80000AD1116811F0030152D001297CD002292A
:102A900071D003296ED184E0694B99420AD1116843
:102AA00011F00C0167D0042965D0082975D00C29D4
:102AB00060D176E0634B99420AD1116811F0300180
:102AC00059D010296BD0202967D0302952D168E025
:102AD0005D4B99420AD1116811F0C0014BD04029D9
:102AE0005DD0802959D0C02944D15AE0574B994232
:102AF0000DD1116811F440713DD0B1F5807F4ED0F9
:102B0000B1F5007F49D0B1F5407F33D149E0504B5A
:102B100099420FD1116811F4406109D0B1F5806F6D
:102B20003DD0B1F5006F38D0B1F5406F22D138E01B
:102B3000012120E0474B99420DD1116811F4405119
:102B400019D0B1F5805F2AD0B1F5005F25D0B1F57D
:102B5000405F0FD125E0404B99420BD1116811F431
:102B6000404108D0B1F5804F19D0814215D0B1F560
:102B7000404F16D01021E369384A4FF6EF76834272
:102B80002FD109294BD201E009E006E0DFE801F08E
:102B90000B0E11471347474716000221EBE70421AC
:102BA000E9E70821E7E7FEF7ABFC06E0FEF7B8FC33
:102BB00003E0104602E0FEF7C3FC88B36168400002
:102BC00000EB5100B0FBF1F080B2A0F11001B14276
:102BD00025D84FF6F0732168C0F342021840104325
:102BE00020E009291BD2DFE801F005080B1A0D1AB5
:102BF0001A1A1000FEF784FC06E0FEF791FC03E0D1
:102C0000104602E0FEF79CFC50B1616800EB5100F9
:102C1000B0FBF1F080B2A0F11001B14201D9012561
:102C200001E02168C86000206066A0662846BDE813
:102C3000F0810000F369FFEF00100140903802407E
:102C40000044004000480040004C0040005000405C
:102C50000014014000780040007C00400024F40093
:102C60002DE9F0479A4617460E460446089D4FF058
:102C700000094FF0200839E0681C37D0FEF742F811
:102C8000A0EB0A00A84222D80DB3206801684907CA
:102C90002CD5C069C043000528D423684FF40061D7
:102CA000196221680B6823F4D0730B6021688B686C
:102CB00023F001038B60C4F87880C4F87C80C4F8EA
:102CC000808000BF032084F87490BDE8F0872168FD
:102CD0000B6823F4D0730B6021688B6823F0010329
:102CE0008B60C4F87880C4F87C80EBE72068C0690A
:102CF00036EA000004D00020B842BDD00020E4E74E
:102D00000120F9E70148FFF719B80000040300208B
:102D1000FEE7090700284FEA116104DB00F1E0201B
:102D200080F80014704700F00F0000F1E02080F8F8
:102D3000141D704702E008C8121F08C1002AFAD10A
:102D400070477047002001E001C1121F002AFBD12B
:102D500070471FB5012300220292CDE90013694696
:102D60000392FDF7A5FB002801D0FDF79DFB1FBDD9
:102D700010B50446FFF7EDFF2046FDF7E1FD2046C4
:102D80004FF0FF31FDF788FD08B1002010BD20464F
:102D9000FDF764FC80B210BD70B59FED060A0024FB
:102DA000DDE9045680E86E0080ED070A4461846125
:102DB00070BD00000000000030B5002408E00D2BBD
:102DC00009D0401C0378202BF9D1491E401CC9B200
:102DD0000029F7D105E0147030BD4D1C5354401C40
:102DE000E9B20378202B01D00D2BF6D1545430BD1D
:102DF0001CB5FDF795FFFFF763FBFFF7B9F9FFF788
:102E000027F9FFF713FBFFF753F9FFF781F9FFF7F6
:102E1000ADFAFFF78FFAFFF72FFB4FF470600190C8
:102E20001848C168009190E80E001748FFF7B4FFFA
:102E300016480027144E164C164D2036D0E900983F
:102E400048464146FFF794FFADF80000414648462A
:102E5000FFF78EFFADF800000B48203000F01CF8A3
:102E600020680028ECD000202760295C21B1421C9A
:102E70003154D0B28028F8D30348203000F030F825
:102E8000DEE700001000002088030020682F000803
:102E900000000020840200200F4870B50F4C4378DA
:102EA000D0E90112A4F180050FE06E5C491CA65424
:102EB000521CA61821F0800116F8016C012E01D0D9
:102EC0001EB901E0012300E000230678B142ECD1F5
:102ED0004370C0E9011270BD04000020840200208C
:102EE00010B5A0B000216A46FFF766FF124C694694
:102EF0002068FDF7E2F900281BD060686946FDF7FD
:102F0000DCF9002815D0A0686946FDF7D6F900283D
:102F10000FD0E0686946FDF7D0F9002809D0206994
:102F20006946FDF7CAF9002803D060696946FDF7D4
:102F3000C4F920B010BD00002000002070B58188C9
:102F40000446006889B2FDF7D3FEA1880546A06853
:102F500089B2FDF7CDFE8542606901D1401C00E0D9
:102F6000401E606170BD00004800002001000000AC
:102F7000480000200200000048000020040000007B
:102F80004800002008000000200100200800000088
:102F9000200100200C0000000000024001000000A1
:102FA00000000240020000000000000000000000DD
:102FB00001020304060708090000000001020304DF
:102FC0004F4646004F4E0000444F574E0000000051
:102FD000555000004C4546540000000052494748F7
:102FE00054000000043000080000002048000000E9
:102FF000342D00084C30000848000020E007000095
:10300000442D000800000000000000000000000047
:103010000000000000180240000200000010024002
:1030200000010000C42F0008C02F0008D02F0008A6
:10303000D42F0008DC2F0008C82F00080100000072
:0C30400010000000000000000024F4005C
:04000005080001F9F5
:00000001FF
